:100000000C9451060C946E060C946E060C946E06BD
:100010000C946E060C946E060C946E060C941222D0
:100020000C9427220C946E060C946E060C946E06AB
:100030000C946E060C946E060C946E060C946E0670
:100040000C946E060C946E060C946E060C946E0660
:100050000C946E060C946E060C946E060C946E0650
:100060000C946E060C946E060C946E060C946E0640
:100070000C946E060C946E060C946E060C946E0630
:100080000C946E060C946E060C94C8070C946E06C5
:100090000C946E060C946E060C946E060C946E0610
:1000A0000C946E060C946E060C946E060C946E0600
:1000B0000C946E060C946E060C946E060C946E06F0
:1000C0000C946E060C946E060C946E060C946E06E0
:1000D0000C946E060C946E060C946E060C946E06D0
:1000E0000C946E060C946E060C94FA340C946E0606
:1000F0000C946E060C946E060C946E060C946E06B0
:100100000C94ED1F0C946E060C946E060C946E0607
:100110000C946E060C946E060C946E060C946E068F
:100120000C946E060C946E060C946E060C946E067F
:100130000C946E060C946E060C946E060C946E066F
:100140000C946E060C946E060C946E060C946E065F
:100150000C946E060C946E060C946E060C946E064F
:100160000C946E060C946E060C946E060C946E063F
:100170000C946E060C946E064F7363796C6F736B00
:100180006F700047656E657261746F722000416E1A
:10019000616C697A61746F7200416E2E73742E6C9B
:1001A0006F672E00576F62756C6F736B6F70004DC9
:1001B000756C74696D657472200052533233322D40
:1001C0003E50432000557374617769656E69610024
:1001D0004D696E69004B6F6D62616A6E00506F6DA4
:1001E0006961726F77790056312E340033316B328A
:1001F000002032356B0031326B35002020356B002A
:1002000020326B3500316B32350020353030002024
:1002100032353000203132350020203530002020AA
:1002200032350031322E350020202035002D4E4150
:1002300053202032750020203575002020387500AD
:100240002031307500203230750020353075003196
:100250003030750032303075003530307500202078
:10026000316D002020326D002020356D00203130AE
:100270006D002032306D002035306D00202020359B
:1002800000202020320020202031003530306D0049
:100290003230306D003130306D002035306D00204F
:1002A00032306D002031306D002020356D00732F0D
:1002B0006400562F6400487A2F6400644257005847
:1002C0003D0020593D00543A20004846004C46006D
:1002D0004846004C460064743D0030306E73200088
:1002E000757320202000307573202000463D0048A3
:1002F0007A20413D00644220000000000000000020
:100300005F00000007000700147F147F14242A7F79
:100310002A1223130864623649552250000503004F
:1003200000001C2241000041221C00082A1C2A084F
:1003300008083E08080050300000080808080800B7
:100340006060000020100804023E5149453E004212
:100350007F400042615149462141454B31181412FA
:100360007F1027454545393C4A4949300171090507
:10037000033649494936064949291E0036360000E8
:1003800000563600000008142241141414141441BD
:10039000221408000201510906324979413E7E11BA
:1003A00011117E7F494949363E414141227F4141F9
:1003B000221C7F494949417F090901013E414151C0
:1003C000327F0808087F00417F41002040413F0103
:1003D0007F081422417F404040407F0204027F7F1B
:1003E0000408107F3E4141413E7F090909063E4114
:1003F00051215E7F09192946464949493101017F4A
:1004000001013F4040403F1F2040201F7F20182017
:100410007F6314081463030478040361514945435E
:1004200000007F4141020408102041417F00000488
:1004300002010204404040404000010204002054F8
:100440005454787F48444438384444442038444421
:10045000487F3854545418087E0901020814545433
:100460003C7F0804047800447D40002040443D0067
:10047000007F10284400417F40007C041804787CF1
:100480000804047838444444387C141414080814CC
:1004900014187C7C080404084854545420043F4435
:1004A00040203C4040207C1C2040201C3C403040F0
:1004B0003C44281028440C5050503C4464544C4454
:1004C000000836410000007F0000004136080008A7
:1004D000082A1C08081C2A0808000091012303B5FB
:1004E000044706D8076909F90A8A0C190EA90F37BB
:1004F00011C5125214DF156A17F5187F1A071C8FE1
:100500001D161F9B201F22A2232325A32621289EE0
:1005100029192B932C0B2E812FF5306832D83347B5
:1005200035B3361D388539EB3A4F3CB03D0F3F6C43
:1005300040C6411D437244C54514476148AB49F26A
:100540004A374C784DB74EF24F2A5160529253C100
:1005500054EC55145739585B59795A935BAA5CBED1
:100560005DCE5EDA5FE260E761E862E563DF64D496
:1005700065C666B3679D688369646A416B1B6CF0EE
:100580006CC16D8D6E566F1A70DA7095714C72FF7A
:1005900072AD735774FD749D753A76D1766577F3B5
:1005A000777D7802798379FF79767AE97A577BC00B
:1005B0007B247C847CDE7C347D857DD27D197E5CD1
:1005C0007E997ED27E067F357F5F7F857FA57FC047
:1005D0007FD77FE87FF57FFD7FFF7FFD7FF67FEA96
:1005E0007FD97FC37FA97F897F647F3B7F0D7FD9C0
:1005F0007EA17E647E227EDB7D907D3F7DEA7C90C5
:100600007C317CCD7B657BF77A867A0F7A93791380
:10061000798F7805787777E5764E76B27512756DB5
:1006200074C47316736472AD71F2703370706FA816
:100630006EDC6D0B6D376C5E6B816AA069BB68D236
:1006400067E566F465FF640664096309620461FC9A
:100650005FF15EE15DCE5CB85B9E5A80595F583BAE
:10066000571356E854B953885253511B50E04EA2C9
:100670004D614C1D4BD6498C484047F0459E444A3D
:1006800043F34199403D3FDE3D7D3C1A3BB4394C3C
:1006900038E2367635083498322531B12F3C2EC4F5
:1006A0002C4A2BCF295328D5265525D4235122CD8A
:1006B00020481FC21D3A1CB21A28199E171216860E
:1006C00014F9126B11DC0F4D0EBE0C2D0B9D090C95
:1006D000087B06E9045703C6013400A3FE11FD7F21
:1006E000FBEEF95CF8CBF63BF5AAF31AF28BF0FDC2
:1006F000EE6EEDE1EB55EAC9E83EE7B4E52CE4A483
:10070000E21DE198DF13DE91DC0FDB8FD910D89367
:10071000D618D59ED326D2B0D03BCFC8CD58CCE981
:10072000CA7CC912C8A9C643C5DFC37DC21EC1C1E8
:10073000BF67BE0FBDBABB67BA17B9CAB77FB638B5
:10074000B5F3B3B1B272B137B0FEAEC8AD96AC6717
:10075000AB3BAA12A9EDA7CBA6ACA591A47AA36640
:10076000A255A149A0409F3A9E399D3B9C419B4B7D
:100770009A59996B9881979B96B995DB9401942C23
:10078000935A928D91C490FF8F3F8F838ECB8D189B
:100790008D698CBF8B198B778ADA894289AE881F65
:1007A0008895870F878D86118699852685B7844E13
:1007B00084E98388832D83D78285823882F081AD56
:1007C000816E8135810081D180A68080805F8043E9
:1007D000802C801A800C80048001800280098014A3
:1007E0008024803980548073809780BF80ED802082
:1007F0008157819481D5811B826682B6820B836486
:1008000083C38326848E84FA846B85E1855C86DCD1
:10081000866087E987768808899E893A8AD98A7DA1
:100820008B268CD38C858D3B8EF58EB48F77903E46
:10083000910A92DA92AE9386946295439627971026
:1008400098FC98ED99E19AD99BD69CD69DDA9EE1C9
:100850009FECA0FBA10EA324A43EA55BA67BA79FB3
:10086000A8C7A9F1AA1FAC51AD85AEBCAFF7B03592
:10087000B275B3B9B4FFB549B795B8E4B936BB8A18
:10088000BCE1BD3ABF96C0F4C155C3B8C41DC6850E
:10089000C7EFC85BCAC9CB38CDAACE1ED094D10B46
:1008A000D384D4FFD57CD7FAD879DAFADB7DDD00A2
:1008B000DF85E00BE293E31BE5A5E62FE8BAE94705
:1008C000EBD4EC61EEF0EF7FF10EF39FF42FF6C066
:1008D000F751F9E3FA74FC06FE98FF2901BB024DBB
:1008E00004DE0570070109910A220CB20D410FD0F8
:1008F000105E12EB13781504178F18191AA21B2912
:100900001DB01E3620BA213D23BF243F26BE273B03
:1009100029B72A312CA92D202F953008327933E8B8
:10092000345536BF3728398F3AF33B553DB43E1224
:10093000406C41C4421A446D45BD460B4856499E21
:100940004AE34B254D644EA14FDA50105243537287
:10095000549F55C856ED5710592F5A4A5B625C7721
:100960005D875E955F9E60A461A662A4639E6495A8
:100970006587667667616847692A6A086BE36BB9C1
:100980006C8B6D596E226FE76FA87065711D72D107
:100990007281732C74D27474751276AA763F77CFF5
:1009A000775A78E0786279DF79587ACC7A3B7BA500
:1009B0007B0B7C6B7CC77C1E7D717DBE7D077E4B77
:1009C0007E8A7EC47EF97E297F557F7B7F9D7FBA9C
:1009D0007FD17FE47FF27FFB7F73696E65202020EB
:1009E0002020200073717561726520202020007422
:1009F0007269616E676C6520200070696E6B206E95
:100A00006F697365007768697465206E6F6973003C
:100A100061726269747261727920006E6F6E652016
:100A2000286F66662900464D00414D005357005718
:100A3000726974652E2E2E00463D0020473D006DE4
:100A40005600463D0041726269747220583D002094
:100A5000563D00447574793D0020202020204443F9
:100A60003D0020446565703D00252020473D00572E
:100A70006176653A2000205A3D0000000100040024
:100A80000C0024004C009C008C011C033C069C0FB5
:100A90003C1F7C3E3C9C426173653A2000344D0013
:100AA0000000324D000000314D0000003530306B49
:100AB000003230306B003130306B0035306B00006D
:100AC00032306B000031306B0000356B00000032BB
:100AD0006B000000316B0000003530300000323018
:100AE000300000532F7320200052656164792E2E50
:100AF0002E00583D00205A004375723D0020563D9F
:100B000000547269673D00101414141932643F7D5B
:100B1000FA204348322000204348312000040005D9
:100B200000040005000A00190032006400FA00F415
:100B300001E803C40988131027A861524D533D00F2
:100B40004176673D004D61783D00204D696E3D0066
:100B50005670703D00467265713D006B487A0048E2
:100B60007A00574F524B00484F4C44002020202021
:100B7000202020524D533D0053572000522000307A
:100B8000487A00207820004452004E530031393218
:100B900030302020003338343030202000353736D4
:100BA00030302020003131353230302000323330C7
:100BB0003430302000343630383030200039323193
:100BC0003630302000313135323030300031353080
:100BD000303030300032353030303030004B616CE6
:100BE00069627261636A61005253323332202D2090
:100BF000504300577973776965746C6163002055C1
:100C00005354415749454E49412000204B414C49DE
:100C1000425241434A410044414320777A6D6F6319
:100C20006E3A2000444143206F66667365743A2033
:100C300000414443206F66667365743A20002F318B
:100C40002E3600312E3030006B616C00206F6B004F
:100C5000205253323332202D2050430053706565AB
:100C6000643A200020575953574945544C41435A40
:100C7000004A61736E6F73633A20004B6F6E74723B
:100C80006173743A200067332210F66B2518351310
:100C90004D4B503C2D2D52532D3233322D2D3E5085
:100CA000430011241FBECFEFDFE2DEBFCDBF1DE248
:100CB000A0E0B0E2E4EDF6E702C005900D92A033AB
:100CC000B107D9F71DE2A0E3BDE201C01D92A9342E
:100CD000B107E1F70E94AB370C94683B0C9400001D
:100CE000DF92EF92FF920F931F93CF93DF93F82E33
:100CF00062E08FE00E94440F80ED91E00E94AA0F15
:100D000063E086E00E94440F85ED91E00E94AA0F07
:100D100064E080E00E94440F8DED91E00E94AA0FF4
:100D200065E08FE00E94440F87EE91E00E94AA0FD9
:100D3000C0E0D0E08BE0E82EEF9C80011124085841
:100D40001E4F6C2F80E40E94440FCF1104C0C801D5
:100D50000E94BB0F09C0EC9EC001ED9E900D1124B6
:100D600088589E4F0E94AA0F2196C830D10549F796
:100D7000DF91CF911F910F91FF90EF90DF90089539
:100D800083E48093520088E080935000809151006A
:100D900083FFFCCF84EC80935500809150008061EC
:100DA000809350008091510084FFFCCF64E080E488
:100DB00090E00C94F4068091500084608093500081
:100DC0008091510082FFFCCF62E080E490E00E94BD
:100DD000F406809150008F7E8093500080915000E7
:100DE000877F8093500008950F93CF93DF931F92D6
:100DF000CDB7DEB72FB72983F8941BBEFC0108EDF1
:100E000004BF608389818FBF0F90DF91CF910F91D5
:100E1000089580EDE0E8F1E08183E0E0F9E021E091
:100E200020838DE790E086A397A3E0E2F3E085E0DE
:100E30008083218388E18283238380E5848384E621
:100E400081878087E0E0F1E080E8808385E2808B25
:100E500099E5928B838B80E094E0848B958B80E086
:100E600098E2808F918F128E88E3848F83E0858F44
:100E7000168E0895E0E0F1E080898F77808BE0E2C4
:100E8000F3E011821092000980E098E0808F918F4A
:100E9000089581E0E0E2F3E0818380930009E0E0DF
:100EA000F1E080898068808B0895E0E0F1E020899E
:100EB0002F77208B880F991F848B958B80E098E289
:100EC000808F918F88E3848F83E0858F808980680D
:100ED000808B0895E0E2F3E0808F918F0895CF93A7
:100EE000DF93D82F81E090E00E94353BC82F2D2F53
:100EF000332727FD3095280F311D2F3F310509F08D
:100F000010F437FFCD0F6C2F81E090E00E94453B3D
:100F1000C09329038C2FDF91CF910895CF93DF9356
:100F2000D82F80E090E00E94353BC82F2D2F33272B
:100F300027FD3095280F311D2F3F310509F010F4A2
:100F400037FFCD0F6C2F80E090E00E94453BC093AF
:100F500028038C2FDF91CF9108959AE09093B000F1
:100F6000E0E2F6E08AE1808B81858C7F8260818778
:100F70009287E0EAF0E08281826082837894E0E404
:100F8000F8E087E0808380E593EC86A397A308953B
:100F900068941895CF92EF920F9382FF01E0E822B8
:100FA00011F0601B71098C2111F0600F711D261763
:100FB00037070CF4B901641775070CF4BA01CB01BB
:100FC0000F91EF90CF9008958FEF8093400687EFB9
:100FD000809344068FE08A95F1F7809128068695E4
:100FE000817091E089279091280693FF02C090E0DC
:100FF00001C094E0892B9FEE909344064FE04A9500
:10100000F1F79091280691FF02C090E001C092E0B4
:10101000892B9091280693FF02C030E001C030E692
:10102000832B9FED909344064FE04A95F1F7909102
:10103000280691FF02C020E001C020EA822B909197
:10104000280693FF02C090E001C090E1892B9FEB3E
:10105000909344064FE04A95F1F79091280691FF4E
:1010600002C030E001C030E8832B9091280693FF46
:1010700002C020E001C020E4822B9FE79093440649
:101080002FE02A95F1F79091280691FF02C090E099
:1010900001C090E2892B9091280693FF02C090E056
:1010A00001C098E0892B09F1209160083091610816
:1010B0002D3D354010F480EE08959091302D9431FF
:1010C00018F49F5F9093302D109260081092610881
:1010D0009091302D913079F0953069F0983059F039
:1010E0009A3049F09C3038F308951092302D1092C8
:1010F0006008109261080895CF93DF93C82F80E3B2
:1011000002C0C4568F5FD82FD053C436D0F7D11148
:1011100001C080E20E94710F80E303C0CA508F5F5C
:10112000DF5FCA30D8F7D11101C080E20E94710F91
:101130008C2F805DDF91CF910C94710FCF93C82FCE
:1011400087FF04C0C1958DE20E94710F8C2FCF9153
:101150000C947C081F93CF93DF93EC0197FF05C09D
:10116000D195C195D1098DE201C080E20E94710F35
:1011700080E303C0C456D1098F5F182F1053C436C3
:10118000D105C4F7111101C080E20E94710F80E304
:1011900003C02A978F5F1F5FCA30D105D4F71111A2
:1011A00001C080E20E94710F8C2F805DDF91CF9192
:1011B0001F910C94710F1F93CF93DF93EC0180E389
:1011C00003C0C051D7428F5F182F1053C03197E230
:1011D000D907B8F7111101C080E20E94710F80E3B6
:1011E00004C0C85ED3408F5F1F5FC83E93E0D9073D
:1011F000C0F7111101C080E20E94710F80E304C0AA
:10120000C456D1098F5F1F5FC436D105C8F71111CD
:1012100001C080E20E94710F80E303C02A978F5FB4
:101220001F5FCA30D105D0F7111101C080E20E94C2
:10123000710F8C2F805DDF91CF911F910C94710FF6
:10124000CF93DF93EC0197FF05C0D195C195D109EC
:101250008DE201C080E20E94710FCE01DF91CF913B
:101260000C94DB08CF92DF92EF92FF92CF936B0149
:101270007C0180E308C090EAC91A96E8D90A91E097
:10128000E90AF1088F5FC82FC05390EAC91696E8A3
:10129000D90691E0E906F10470F7C11101C080E2BE
:1012A0000E94710F80E308C090E1C91A97E2D90A41
:1012B000E108F1088F5FCF5F90E1C91697E2D90688
:1012C000E104F10488F7C11101C080E20E94710FAE
:1012D00080E308C098EEC91A93E0D90AE108F10842
:1012E0008F5FCF5F98EEC91693E0D906E104F10451
:1012F00088F7C11101C080E20E94710F80E307C02E
:1013000094E6C91AD108E108F1088F5FCF5F94E62F
:10131000C916D104E104F10498F7C11101C080E2BB
:101320000E94710F80E307C09AE0C91AD108E10852
:10133000F1088F5FCF5F9AE0C916D104E104F10490
:1013400098F7C11101C080E20E94710F8C2D805D61
:10135000CF91FF90EF90DF90CF900C94710FCF92D0
:10136000DF92EF92FF926B017C0197FF0AC0F0942D
:10137000E094D094C094C11CD11CE11CF11C8DE2FE
:1013800001C080E20E94710FC701B601FF90EF908B
:10139000DF90CF900C9432090F931F93CF93DF937C
:1013A000EC01062F80E303C0C051D7428F5F182F96
:1013B0001053C03197E2D907B8F7013031F4111159
:1013C00001C080E20E948D0F05C0111101C080E2B2
:1013D0000E94710F80E304C0C85ED3408F5F1F5F1F
:1013E000C83E93E0D907C0F7023031F4111101C0B3
:1013F00080E20E948D0F05C0111101C080E20E94A1
:10140000710F80E304C0C456D1098F5F1F5FC436DB
:10141000D105C8F7033031F4111101C080E20E94F8
:101420008D0F05C0111101C080E20E94710F80E391
:1014300003C02A978F5F1F5FCA30D105D0F70430F1
:1014400031F4111101C080E20E948D0F05C011110D
:1014500001C080E20E94710F8EE20E94710F8C2FFA
:10146000805D053031F4DF91CF911F910F910C9485
:101470008D0FDF91CF911F910F910C94710FCF922F
:10148000DF92EF92FF92CF93DF936B017C01D42F19
:1014900080E308C090E8C91A96E9D90A98E9E90AF0
:1014A000F1088F5FC82FC05390E8C91696E9D90696
:1014B00098E9E906F10470F7D13031F4C11101C0A7
:1014C00080E20E948D0F05C0C11101C080E20E9420
:1014D000710F80E309C090E4C91A92E4D90A9FE031
:1014E000E90AF1088F5FCF5F90E4C91692E4D9064C
:1014F0009FE0E906F10478F7D23031F4C11101C060
:1015000080E20E948D0F05C0C11101C080E20E94DF
:10151000710F80E309C090EAC91A96E8D90A91E0F0
:10152000E90AF1088F5FCF5F90EAC91696E8D906FD
:1015300091E0E906F10478F7D33031F4C11101C02C
:1015400080E20E948D0F05C0C11101C080E20E949F
:10155000710F80E308C090E1C91A97E2D90AE10847
:10156000F1088F5FCF5F90E1C91697E2D906E104D9
:10157000F10488F7D43031F4C11101C080E20E9437
:101580008D0F05C0C11101C080E20E94710F80E380
:1015900008C098EEC91A93E0D90AE108F1088F5FF4
:1015A000CF5F98EEC91693E0D906E104F10488F7FD
:1015B000D53031F4C11101C080E20E948D0F05C009
:1015C000C11101C080E20E94710F80E306C094E661
:1015D000C91AD108E108F1088F5F94E6C916D10451
:1015E000E104F104A0F7D63019F40E948D0F02C077
:1015F0000E94710FC0E306C08AE0C81AD108E10852
:10160000F108CF5F9AE0C916D104E104F104A0F714
:101610008EE20E94710F8C2FD73019F40E948D0F2B
:101620000EC00E94710FD83051F48C2D805DDF9177
:10163000CF91FF90EF90DF90CF900C948D0F8C2D79
:10164000805DDF91CF91FF90EF90DF90CF900C9471
:10165000710F0F931F93CF93DF93EC01C03A8FE08C
:10166000D80740F0CE016AE070E00E94CF3AEB016B
:1016700001E001C000E080E303C0C85ED3408F5F9B
:10168000182F1053C83E93E0D907B8F7111101C0C5
:1016900080E20E94710F80E304C0C456D1098F5FBD
:1016A0001F5FC436D105C8F7111102C0002329F00D
:1016B0000E94710F002331F002C080E201C08EE26F
:1016C0000E94710F80E303C02A978F5F1F5FCA30AB
:1016D000D105D0F7111101C080E20E94710F8C2F4B
:1016E000805D0E94710F011103C08DE60E94710F91
:1016F00086E5DF91CF911F910F910C94710FCF93DD
:10170000DF93EC0197FF07C08DE20E94710FD19526
:10171000C195D10903C080E20E94710FCE01DF9113
:10172000CF910C94290B2F923F924F925F926F9220
:101730007F928F929F92AF92BF92CF92DF92EF9261
:10174000FF920F931F93CF93DF93CDB7DEB76697CA
:10175000CDBFDEBF4C012B014C83F22E0983CB861B
:10176000F0948F2D8770E1E0F0E02E2F01C0220F62
:101770008A95EAF72D833F2D3F5F3A83832F877049
:101780004E2F01C0440F8A95EAF74E835F2D5150CA
:101790005B83852F87707E2F01C0770F8A95EAF7CC
:1017A0007F83302F3095832F87709E2F01C0990F34
:1017B0008A95EAF79887532F5F5F852F87702E2FC2
:1017C00001C0220F8A95EAF72987432F4150842FC1
:1017D00087707E2F01C0770F8A95EAF77A870CE031
:1017E00010E07C81872F90E0DC011196AD87BE87E9
:1017F000FC013197EF87F88B387FC32ED12C587FAF
:10180000252E312C487F242F30E0298B3A8B602FF6
:101810006C5080E00C8B0E94440FA80183E0440FC1
:10182000551F8A95E1F74D8B5E8B92E0AA24A39415
:10183000B12C502F51705C873C8901C02301D40129
:101840006D914D0160957C917095462F487F50E0D9
:10185000ED89FE894E175F0749F4862F8770FA2DB0
:1018600001C0FF0F8A95EAF78F2F01C080E067174C
:1018700038F5462F487F50E0AD89BE894A175B078F
:1018800049F4462F4770F50102C0EE0FFF1F4A953D
:10189000E2F78E2B6F5F6713ECCF14C0472F487FA2
:1018A00050E0AD89BE894A175B0749F4472F47705E
:1018B000F50102C0EE0FFF1F4A95E2F78E2B7F5F06
:1018C0007613ECCF298132012F3F09F443C0D201B6
:1018D0006D913D016095F20171817095462F487FB1
:1018E00050E0AD89BE894A175B0749F4462F47701F
:1018F000F50102C0EE0FFF1F4A95E2F78E2B671726
:1019000038F5462F487F50E0AD89BE894A175B07FE
:1019100049F4462F4770F50102C0EE0FFF1F4A95AC
:10192000E2F78E2B6F5F6713ECCF14C0472F487F11
:1019300050E0AD89BE894A175B0749F4472F4770CD
:10194000F50102C0EE0FFF1F4A95E2F78E2B7F5F75
:101950007613ECCF492F4F7019F42C852111806834
:10196000492F437019F43F3009F48068903409F42A
:1019700088684C81941303C03C3009F48F60692F50
:1019800070E04D855E856417750729F04F8558898D
:101990006417750719F43C3009F484609E1101C086
:1019A00088685B85951301C088683C8B9B8B0E947F
:1019B0004F0E9B899F5F3C89903809F03FCF80E0B4
:1019C0000E944F0E8F2D887F90E06D897E8986174B
:1019D000970711F45D8001C0512C4E8045288A8103
:1019E000887F90E02D893E898217930709F0452C66
:1019F0003F813429852D90E04B81487FA42EB12C66
:101A00000CC0913039F44D895E89A416B50621F0D9
:101A1000842D03C0852D01C0832F59815F3FC1F004
:101A20006D897E89C616D70609F48885913081F4C0
:101A30004D895E892416350611F45985852B49890F
:101A40005A896D897E894617570711F47A85872B45
:101A50003C8B9B8B0E944F0E9B899F5F3C899430EF
:101A600081F68EE7881A910823019EE7491A5108EA
:101A70000F5F1F4F0331110509F0C9CE6696CDBF28
:101A8000DEBFDF91CF911F910F91FF90EF90DF901C
:101A9000CF90BF90AF909F908F907F906F905F900E
:101AA0004F903F902F9008951F93CF93DF931F92F5
:101AB000CDB7DEB715E0189FC00111248F5C9D4F94
:101AC00069830E94AA0F8EEA92E00E94AA0F6981A0
:101AD000169FC001112484589D4F0E94AA0F82EBCB
:101AE00092E00F90DF91CF911F910C94AA0F1F935A
:101AF000CF93DF931F92CDB7DEB7825015E0189FCA
:101B0000C001112484519E4F69830E94AA0F86EB65
:101B100092E00E94AA0F6981169FC0011124845887
:101B20009D4F0E94AA0F8BEB92E00F90DF91CF9117
:101B30001F910C94AA0F0F931F93CF93DF931F92C3
:101B4000CDB7DEB78C018FEB92E069830E94AA0FBC
:101B5000C8010E94AA0882EC92E00E94AA0F698143
:101B6000862F992787FD90950E94AA0880E20F9002
:101B7000DF91CF911F910F910C94710F0F931F93D1
:101B8000CF93DF93182FEB0186EC92E00E94AA0F0F
:101B9000012F0076E12FE370F0E0E35DFD4F8491CB
:101BA000011103C00E948D0F0CC00E94710F003202
:101BB00041F412FD02C08CE501C08FE20E948D0F3E
:101BC00013C012FF02C08FE201C08CE50E94710FAA
:101BD000003451F413FF03C08AEC92E002C08DEC94
:101BE00092E00E94BB0F09C013FF03C080ED92E09A
:101BF00002C083ED92E00E94AA0FCE01DF91CF9147
:101C00001F910F910C947F0B0F931F93CF93DF9332
:101C10001F92CDB7DEB78C0186ED92E069830E94FA
:101C2000AA0FC8010E9420096981653018F48AED65
:101C300092E007C06A3018F480EE92E002C086EEAF
:101C400092E00F90DF91CF911F910F910C94AA0F0A
:101C5000CF92DF92EF92FF92CF93DF931F92CDB797
:101C6000DEB76B017C018CEE92E049830E94AA0FE3
:101C7000C701B6010E9432098FEE92E00E94AA0FBE
:101C80004981842F0E949E0885EF92E00F90DF919A
:101C9000CF91FF90EF90DF90CF900C94AA0FE0E4EB
:101CA000F6E09FEF9183000000008483A0E0B6E09F
:101CB00092E016969C931697E0E8F6E081E0868322
:101CC0000000000015969C93858300000000089595
:101CD000E0E4F6E09FEF9183000000008483A0E041
:101CE000B6E096E016969C931697E0E8F6E081E061
:101CF00086830000000015969C93858300000000F9
:101D000008958EEA0E94680EE0E4F6E01482E0E0B6
:101D1000FAE011821082E0E0F6E08FE0868383E053
:101D2000A0E8B6E016968C9380E186830895CF9361
:101D3000C82F82E090E00E94353BC80FC53608F0FE
:101D4000C4E62C2F30E020932A0A30932B0A6C2F04
:101D500082E090E00E94453B8C2FCF910895CF9375
:101D6000DF9300D0CDB7DEB78FE080930506809378
:101D7000010683E080938506809381068FEF809330
:101D8000440680E1809301068093050619821A8239
:101D900005C089819A81019689839A8389819A8174
:101DA00088389341B0F388E08093060619821A823E
:101DB00005C089819A81019689839A8389819A8154
:101DC000843F9140B0F388E08093050686E08093DD
:101DD000000A84E690E08093260A9093270A80E028
:101DE0000E94970E83E28093010A0F900F90DF917B
:101DF000CF910895CF93C82F83E090E00E94353BA8
:101E0000C80FCF3118F4CA3018F003C0CEE101C0BA
:101E1000CAE081E80E94680E8C2F0E94680E6C2F29
:101E200083E090E00E94453B8C2FCF9108950E9463
:101E3000AF0E8FEF9FEF0197F1F781EA0E94680ED6
:101E400080EC0E94680E82EA0E94680E8FE20E9477
:101E5000680E8FEF8A95F1F780E00E94FA0E84EA0F
:101E60000E94680E8FEA0E94680E86EA0E94680E41
:101E700080EB0E94680E80E10E94680E80E00E9464
:101E8000680E80E40C94680E1F93CF93DF931F922B
:101E9000CDB7DEB7182F82958F70806169830E945D
:101EA000680E812F8F700E94680E6981862F806B6B
:101EB0000F90DF91CF911F910C94680ECF93DF9319
:101EC000C0E06C2F80E00E94440FD4E880E00E94C4
:101ED0004F0ED150D9F7CF5FC83099F7DF91CF912E
:101EE00008950F931F93CF93DF9395E0899FE001AF
:101EF0001124C75ADD4F8E010B5F1F4FFE01219643
:101F000084910E944F0EC017D107C1F780E0DF9186
:101F1000CF911F910F910C944F0E0F931F93CF935E
:101F2000DF9395E0899FE0011124C75ADD4F8E01B0
:101F30000B5F1F4FFE012196849180950E944F0EEA
:101F4000C017D107B9F78FEFDF91CF911F910F9194
:101F50000C944F0ECF93DF93EC0105C02196FC014A
:101F600084910E94710FCE01FE0124912111F6CFC0
:101F7000DF91CF910895CF93DF93EC0105C02196B7
:101F8000FC0184910E948D0FCE01FE01249121114C
:101F9000F6CFDF91CF910895AF92BF92CF92DF92AB
:101FA000EF92FF920F931F93CF93DF9300D0CDB7A3
:101FB000DEB78B015C012FEFA21AB20A9C012D5FE4
:101FC0003F4F7C014FEFE41A4BEFF40A6801C80160
:101FD00029833A830E94353BF50131978083C801FC
:101FE00001960E94353BF50180830D5F1F4FC601AE
:101FF00002960E94353B29813A81F901319780830D
:10200000F501808182958F70F9018083F5018081CF
:102010008F708083F4E0AF0EB11C2C5F3F4FAE1485
:10202000BF04A1F60F900F90DF91CF911F910F91F8
:10203000FF90EF90DF90CF90BF90AF900895CF9238
:10204000DF92EF92FF920F931F93CF93DF938C0158
:10205000EB012396E12CF12C6801FE01339760819E
:10206000C8010E94453B888120E1829FC001112464
:10207000FE01329760816F70682BC80101960E9443
:10208000453B0D5F1F4FFE0131976081C6010296EF
:102090000E94453B84E0E80EF11C2496E11424E004
:1020A000F206D1F6DF91CF911F910F91FF90EF9043
:1020B000DF90CF9008952F923F924F925F926F9250
:1020C0007F928F929F92AF92BF92CF92DF92EF92C8
:1020D000FF920F931F93CF93DF93CDB7DEB7679730
:1020E000CDBFDEBF6E8B7F8B4A875B875901088728
:1020F0001987E98201978093260990932709809197
:10210000342D9091352D2E893F898217930719F030
:10211000C9010E9455074E895F894093342D509321
:10212000352DA49E6001A59ED00CB49ED00C112428
:10213000E12CF12CC701B60124E630E040E050E08C
:102140000E94193B2C833D834E835F832A833B830C
:1021500000E018E2412C512C3201812C912C5401C9
:10216000212C312C8E899F89821B930B9C0140E08E
:1021700050E02E873F87488B598BAE89BF89CD01B0
:10218000A0E0B0E08A8B9B8BAC8BBD8B4A855B85D6
:102190009A0140E050E02A873B874C875D8788851D
:1021A0009985985F88879987BBC09981911118C0DC
:1021B000C501B4012A893B894C895D890E94F73A9F
:1021C00020583F4F4F4F5F4F220F331F27523B4F37
:1021D000F901C590D490EE24D7FCE094FE2C6BC09E
:1021E000A981A13069F4EA81FB812E163F0608F42B
:1021F0005CC0C12C70E8D72EEE24EA94FE2C5BC0A4
:10220000F981F23079F52A813B8122153305D8F422
:10221000B1014C815D81641B750BCB01A0E0B0E086
:10222000772766272E853F85488959890E94193B63
:10223000CC24CA946FE7D62EE12CF12CC21AD30A13
:10224000E40AF50A38C0C301B2012C813D814E81F8
:102250005F810E94193B69017A0150E8D51AE108B3
:10226000F10829C08981833009F460C0843009F401
:102270005DC0853009F45AC08630E9F46796CDBF59
:10228000DEBFDF91CF911F910F91FF90EF90DF9014
:10229000CF90BF90AF909F908F907F906F905F9006
:1022A0004F903F902F900C943A07CC24CA948FE71C
:1022B000D82EE12CF12CA70196016A857B858C85AF
:1022C0009D850E94B33A6B017C0120E43DE043E030
:1022D00050E00E94193BA885B9852A0F3B1F213089
:1022E000BDE73B0720F0F801108211820DC02115D7
:1022F000F0E13F0720F4D8012D933C9305C02FEF68
:102300003FE0F801208331833FEF231A330A0E5F49
:102310001F4F42E0940EA11CB11C5FEF651A750AB5
:102320008E899F892816390609F03FCF6796CDBF61
:10233000DEBFDF91CF911F910F91FF90EF90DF9063
:10234000CF90BF90AF909F908F907F906F905F9055
:102350004F903F902F900895E82F8150883078F467
:1023600021E030E040E050E006C0AAE0B0E00E948A
:10237000A03A9B01AC01EF5FE930B9F703C020E060
:1023800030E0A901B901CA0108952F923F924F92FE
:102390005F926F927F928F929F92AF92BF92CF92F5
:1023A000DF92EF92FF920F931F93CF93DF93CDB7FE
:1023B000DEB72C97CDBFDEBF80911001806880937F
:1023C00010011E821A8623E030E02C833D8332E028
:1023D00039878AE090E08F83988719821A821B825E
:1023E0001C861B86BDC5A12FB0E0A50194010E94EB
:1023F000A03A472F582F692F7727441655066606AF
:10240000770620F44C195D096E097F09A12FB0E011
:10241000A050B44D440F551F4050584DFA01208133
:102420003181C901880F991F820F931F892F885905
:102430008C931F5F1038B9F6B1E8CB2EEC840FEF08
:102440002B8540E060E070E080E09CE20E94930B0E
:102450000E94E407882EF0E48F1749F120E68217E6
:1024600009F499C530E8831709F498C580EA8816FD
:1024700009F497C594E4891208C064E070E080E034
:1024800098E20E94CC0F812C13C0A4E68A1210C0DF
:1024900067E080E00E94440F8FE29AE00E94AA0F5A
:1024A00060E078E284E090E00E941F1001C01B828F
:1024B0008091332D833009F0A4C0BE81BB2309F481
:1024C00001C18FEF809346066091092D70910A2D0E
:1024D000E0E0F8E280E094E00CC0569547952F5F6D
:1024E0003F4F40FFFACF21930196811528E09207D4
:1024F00021F0AC0120E030E0F4CFCB010F921F922D
:102500002F923F929F92AF92CF92DF92EF92FF92E3
:102510000F932F933F934F935F936F937F93AF935B
:10252000BF93CF93DF93EF93FF936FEF77E0681B39
:10253000790B880F991F880F991F880F991F880F93
:10254000991F880F991FEE2422240BE0E0E0FCE2A3
:10255000E1920A95E9F7D1E0CD2ED0E0DD2EED2E07
:10256000D0EDFD2E21E030E040E050E09924AA2497
:10257000E0E0F8E2DCE23190FC3209F4F8E2C32D4D
:10258000088020FF08C056954795379527950091FC
:102590002806056F08C056954795379527952C2531
:1025A0003D254E255F2558839018A208950EA21C44
:1025B000BB27A89EA12D999EA10DBB1FA99EA00D72
:1025C000B11DA60FB71FA0933803B09339030F3F77
:1025D00091F2FF91EF91DF91CF91BF91AF917F91F8
:1025E0006F915F914F913F912F910F91FF90EF90DD
:1025F000DF90CF90AF909F903F902F901F900F90C3
:1026000061C0843009F05EC03E81332309F45AC0B2
:102610008FEF809346068091092D90910A2D0F929D
:102620001F92CF92DF92EF92FF920F932F933F93DF
:102630004F935F936F937F93CF93DF936FEF77E029
:10264000681B790B880F991FD1E0CD2ED0E0DD2ECD
:10265000ED2ED0EDFD2E21E030E040E050E0E8949A
:1026600020FF08C056954795379527950091280675
:10267000056F08C056954795379527952C253D251C
:102680004E255F25DD27589FC12D499FC10DDD1FB8
:10269000599FC00DD11DC60FD71FC0933803D093CB
:1026A00039030F3FE9F2DF91CF917F916F915F91F5
:1026B0004F913F912F910F91FF90EF90DF90CF902E
:1026C0001F900F9067E080E00E94440F8B81811182
:1026D00095C188E39AE00E94AA0F1C8160910B2D9E
:1026E00070910C2D80910D2D90910E2D412F0E94F7
:1026F0003F0A8BE39AE00E94AA0F612F68508091F5
:10270000092D90910A2D0E94CC098FE39AE00E9436
:10271000AA0F882009F424C492E0C92EEE24E39481
:1027200002E02DE030E040E050E06C817D81882DBA
:102730000E94CA07B82E8C839D8328E0C22E30E108
:10274000E32E04E02AE030E046EF5FEF60E070E067
:10275000882D0E94CA07482E552447FC5094652CAA
:10276000752CAC81BD811997B0F00091092D1091A5
:102770000A2D8B2D85500E94AC11649D9001659DA2
:10278000300D749D300D1124200F311F2093092D21
:1027900030930A2D1DC0C0900B2DD0900C2DE090D1
:1027A0000D2DF0900E2D8B2D0E94AC119B01AC01D4
:1027B000C301B2010E94B33A6C0D7D1D8E1D9F1D99
:1027C00060930B2D70930C2D80930D2D90930E2DF7
:1027D0008091092D90910A2D8135B3EC9B0728F04B
:1027E0001092092D10920A2D09C081349C4930F0B5
:1027F00080E49CE98093092D90930A2D40910B2D44
:1028000050910C2D60910D2D70910E2D4253510958
:10281000610971094F3C56486349734060F082E397
:1028200090E0A0E0B0E080930B2D90930C2DA0934E
:102830000D2DB0930E2D80910B2D90910C2DA0910C
:102840000D2DB0910E2D8138904FAA4FB24060F0FF
:1028500040E850EF6AEF72E040930B2D50930C2D3F
:1028600060930D2D70930E2D8C819D81099708F03A
:10287000ADC040900B2D50900C2D60900D2D7090A0
:102880000E2D60E870EF8AEF92E0A30192010E94A2
:10289000F73A220F331F441F551F2093002D30930A
:1028A000012D4093022D5093032D211532404105F7
:1028B000510560F040E052E060E070E04093002D90
:1028C0005093012D6093022D7093032DC090002D25
:1028D000D090012DE090022DF090032D60E070E289
:1028E0008CEB9EEBA70196010E94F73ACA01B90151
:1028F000A30192010E94F73A2093042D3093052DF5
:102900004093062D5093072D60E070E28CEB9EEB18
:102910000E94F73ACA01B901A70196010E94F73A4D
:1029200069017A012138A0EF3A07AAEF4A07A2E02D
:102930005A0700F140E250E060E070E04093042D5F
:102940005093052D6093062D7093072D42E050E0C3
:1029500060E070E04093002D5093012D6093022DB4
:102960007093032D00E8C02E00EFD02E0AEFE02E6A
:1029700002E0F02E4091042D5091052D6091062D1E
:102980007091072D41155105B1E06B07710570F08D
:1029900076956795579547954093042D5093052D4F
:1029A0006093062D7093072D82E001C081E0809333
:1029B000000966E080E00E94440F82E49AE00E94F1
:1029C000AA0F4B2DC701B6010E943F0A0091312D7D
:1029D0001091322D2091082D4091092D50910A2DF2
:1029E0006091002D7091012DE090332D30E08091A9
:1029F000042D9091052D0E945B10AFC2EB81E13058
:102A000009F0C0C08091332D853009F069C085E49C
:102A10009AE00E94AA0F89819A810E94AA088FE4F5
:102A20009AE00E94AA0F8F81988598500E942009F1
:102A30002091002D3091012DB2E0CB2EEE24E394B5
:102A400001E040E050E069817A81882D0E94CA0748
:102A500089839A8382FC0AC0E981FA81EE0FFF1F05
:102A6000E050F84D208131812F83388738E0C32E24
:102A700040E1E42E08E220E030E140E050E06F81E8
:102A80007885882D0E94CA078F839887E981FA810B
:102A9000EE0FFF1FE050F84D80839183E981FA81AA
:102AA000CF01A0E0B0E06627782F892F9A2F4091C0
:102AB000002D5091012DF985F49F9001F59F300D67
:102AC000112440E050E00E94F73A2E5F2C878F815E
:102AD000988576E0959587957A95E1F78B873DC245
:102AE00083E59AE00E94AA0F8091082D0E947C083D
:102AF00089E59AE00E94AA0F8091312D9091322DA4
:102B00000E942009882009F44FC26091082D82E0BC
:102B1000C82EEE24E39403E023E630E041E050E0E9
:102B200070E0882D0E94CA078093082D6091312D96
:102B30007091322D98E0C92E20E1E22E04E120EDC3
:102B400037E040E358EF882D0E94CA078093312D6B
:102B50009093322D2091082D4091092D50910A2DEE
:102B60006091002D7091012DE090332D8C0130E0AB
:102B70008091042D9091052D0E945B101C8620E809
:102B80002B87EBC13B81323009F079C18A85282E31
:102B9000312CC101880F991F820D931D8A5D954FBD
:102BA0000E94AA0F82E69AE00E94AA0F80910F2D40
:102BB000A4E68A9FC0011124880F892F881F990BD2
:102BC00091950E947C0889E69AE00E94AA0F60E035
:102BD0008091092D90910A2D0E94CC092DC10E944F
:102BE000E407882EBA85B11187C0C090042DD0901B
:102BF000052DE090062DF090072D860180910F2D78
:102C0000E0E28E9FC0011124880F892F881F990B45
:102C10009195AC01405E5F4F60E070E04C155D0542
:102C20006E057F0508F460C04090002D5090012D86
:102C30006090022D7090032DF4E04F165104610452
:102C4000710408F451C00091312D1091322D209162
:102C5000082D4091092D50910A2DC301B20196957E
:102C6000879577956795CC0CDD1CE090332D30E08F
:102C7000C6010E945B100091042D1091052D000FDC
:102C8000111F32C00E94242A9801DC010E94993A47
:102C90009B01AC01A0910F2DB0E00E94A03A32E15F
:102CA00095958795779567953A95D1F76C0D7D1D2C
:102CB0008E1D9F1D6115710521E08207910534F479
:102CC000603271058105910534F009C06FEF7FEF27
:102CD00080E090E004C060E270E080E090E060930B
:102CE00026097093270903C06801E12CF12C0E948A
:102CF000E407882339F2A0C03A85313009F04FC08B
:102D000048C00091092D10910A2D0E94242A980193
:102D1000DC010E94993A9B01AC0193E055954795DF
:102D2000379527959A95D1F7A0910F2DB0E00E9485
:102D3000A03A2FE095958795779567952A95D1F7D5
:102D4000600F711F811D911D97FF03C060E070E04F
:102D5000CB010091312D1091322D2091082DAB0126
:102D6000BC0141348CE958076105710524F040E449
:102D70005CE960E070E08091002D9091012DE09081
:102D8000332D30E0BC018091042D9091052D0E94DF
:102D90005B100E94E407882309F4B3CF4DC09A85E5
:102DA000923009F049C0A0910F2D2091042D30914F
:102DB000052D4091062D5091072DB0E00E94A03ABC
:102DC0006B017C0135C09927F7FC9A958F2D7E2DDC
:102DD0006D2D60957095809590956C0D7D1D8E1D67
:102DE0009F1D2091042D3091052D4091062D50916D
:102DF000072D621773078407950728F4A0910F2DFC
:102E0000B0E00E94A03A6B017C0161157105A1E060
:102E10008A0791052CF0CC24CA94DC2CE12CF12CEF
:102E2000C0922609D09227098FEF9FE00197F1F712
:102E30000E94E407882339F2882009F4D0CE6091FB
:102E40000F2DA8E0CA2EB0E1EB2E03E02FEF30E00B
:102E500041E050E070E0882D0E94CA0780930F2D5A
:102E600012E0C12EEE24E39401E022E030E040E0E5
:102E700050E0B101882D0E94CA078A876EC0BB81CD
:102E8000B33009F06AC08FE69AE00E94AA0F8091E1
:102E9000332DEBE0E89FC00111248752964F0E942A
:102EA000AA0F86E79AE00E94AA0F89850E947C08F3
:102EB00083FE0CC08091332D982F91509093332D29
:102EC000811103C0F6E0F093332D1E8284FE0BC007
:102ED0008091332D982F9F5F9093332D863010F083
:102EE0001092332D1E8282FE29C08091332D8630B0
:102EF00061F080912103811108C00E9449078091EF
:102F0000002D9091012D0E9455070091312D1091B7
:102F1000322D2091082D4091092D50910A2D60915C
:102F2000002D7091012DE090332D30E08091042D23
:102F30009091052D0E945B1021E02E83F2E0CF2EB0
:102F4000EE24E39401E024E030E041E050E06985C4
:102F500070E0882D0E94CA07898730E2831641F10C
:102F6000C090002DD090012DE090022DF090032D07
:102F70008985A82FB0E0A70196010E94A03A4B01D5
:102F80005C0144244A94542C32014C0C5D1C6E1C90
:102F90007F1C10E028CA91E09B838ACAA2E0AB8321
:102FA00087CAB3E0BB8384CA1C86E0E8EB87D8CF2E
:102FB0002C96CDBFDEBFDF91CF911F910F91FF9077
:102FC000EF90DF90CF90BF90AF909F908F907F90C9
:102FD0006F905F904F903F902F90089520E030E0E9
:102FE00070E00BC0A901440F551F9C0121703327CD
:102FF000242B352B969587957F5F7613F3CFC901E8
:1030000008956115710581059105A1F020E005C0C5
:1030100096958795779567952C5F68307105810542
:103020009105B0F7DC01CB0183709927AA27BB2754
:10303000820F089580E00895009761F020E003C0BA
:10304000969587952C5F88309105D0F783709927E6
:10305000820F089580E008952F923F924F925F92E1
:103060006F927F928F929F92AF92BF92CF92DF9298
:10307000EF92FF920F931F93CF93DF93CDB7DEB7FD
:103080006C97CDBFDEBF1C01962EB72E9C013C5F16
:103090002D8B3E8B8B839C838C0119821A82FEE0E0
:1030A000AF2EADEBCA2EA9EEDA2EA7E0EA2EF12C58
:1030B000F801A081B181E981FA81EE7FE752FA4FF0
:1030C00085919491A89EA001A99E500D1124662778
:1030D00057FD6095762F26013701441A550A660A76
:1030E000770AA30192010E94AB3AD8018D939D9378
:1030F0008D01E981FA813196E983FA83E115F44083
:10310000B9F6C10140E050E0B1016058784F6983E1
:103110007A8347C0BC01620F731FDB011296ED90EA
:10312000FC901397F301E192F1923F01ED90FC9036
:10313000BC016C0D7D1DDB01ED92FC922C5F3F4FBD
:10314000B2E0CB0ED11C2115E1E03E0719F7DC01FE
:10315000B3959A016D917D917D01F2E8EF1AF10826
:10316000F701608371832F5F3F4F2038F3E03F0703
:1031700089F7A981BA8120E030E0F2016191719173
:103180002F016D937D932F5F3F4F20343105A9F7B9
:10319000405C5F4F80589F4F4115F2E05F0709F494
:1031A000E6C0492C5B2C3201C12CD12C20E030E050
:1031B000B1CFF501EE0FFF1FE752FB4F6590749002
:1031C000660C672C661C7708F501EE0FFF1FE752AF
:1031D000FA4F45905490440C452C441C550868E027
:1031E000C5010E94EE1768E001960E94EE175C018F
:1031F000298D3A8D280D391D29833A83F4011D82CA
:103200001E828DC0A981BA810D90BC91A02DA98785
:10321000BA8729813A813C5F298B3A8BD9010D907D
:10322000BC91A02DAD87BE87208131812B873C8743
:103230006901EE24D7FCE094FE2C29853A85D20161
:103240000E94853A472F582F692F772767FD7A9577
:10325000C40ED51EE61EF71E2D853E85D3010E94A5
:10326000853A472F582F692F772767FD7A95C40E27
:10327000D51EE61EF71EF594E794D794C7948B8568
:103280009C858C199D09A981BA818D939D93A983F1
:10329000BA83C082D1829F013C5F2B8B3C8BD901CA
:1032A0000D90BC91A02DAB87BC876D01EE24D7FC9F
:1032B000E094FE2C2D853E85D2010E94853A472F51
:1032C000582F692F772767FD7A95C40ED51EE61E05
:1032D000F71E29853A85D3010E94853A472F582F3A
:1032E000692F772767FD7A95C41AD50AE60AF70A87
:1032F000F594E794D794C7948B859C858C199D0988
:10330000A989BA898D939C93AB89BC89CD92DC92B3
:103310002D813E812F5F3F4F2D833E8332966D81FD
:103320007E818B8D9C8D6817790709F06BCF0F5FBD
:103330001F4F4F88588C840C951C6F847888061515
:10334000170509F036CF2801440C551C4F86588AC2
:103350002F813885215031092F8338874B8C5C8C25
:10336000569447944B8E5C8E232B69F420C029E041
:1033700030E02F83388761E070E06F87788B80E0E2
:1033800091E08B8F9C8F4B8C5C8C440C551C440CB7
:10339000551C4F8A588E6B8C7C8C660C771C698E02
:1033A0007A8E4101A12CB12C00E010E0C6CF810142
:1033B000E12CF12C69E0C7010E94EE178E159F05E4
:1033C00000F1DC01AA0FBB1FA1014A0F5B1FFA012C
:1033D00080819181F80120813181FA01208331833C
:1033E000F801808391834D885E88A40DB51D8D9171
:1033F0009C911197FC5F208131812D933C938083B8
:1034000091832FEFE21AF20A0E5F1F4FE11432E0B0
:10341000F30681F691013C5FF101A081B181F901D0
:1034200080819181A80FB91F108211829D010E9495
:10343000853AE6E09595879577956795EA95D1F772
:103440000E940118D1018C9311961C92F101E25057
:10345000FC4FED87FE8791012E5F3B4F29833A8316
:1034600081010250184FAA24A394B12CAB81BC81D6
:1034700012964D915C911397ED85FE858081918127
:103480001A01281A390AA981BA810D90BC91A02D80
:10349000AD83BE83F8010190F081E02DEF83F887C2
:1034A000AE0FBF1FA987BA87950136952795B90139
:1034B000660F771F67527B4FFB0145905490440C79
:1034C000452C441C5508220F331F27523A4FF9014F
:1034D00065907490660C672C661C7708FA01E80FFB
:1034E000F91FEB87FC879D01D3010E94853AC72E07
:1034F000D82EE92EFF24E7FCFA949101D2010E9414
:10350000853A472F582F692F772767FD7A954A010B
:10351000BF016C0D7D1D68197909AB81BC811296C4
:103520006D937C931397ED80FE80EF81F885EE1A02
:10353000FF0A29853A85D2010E94853A472F582FE4
:10354000692F772767FD7A952A019101D3010E949F
:10355000853A472F582F692F772767FD7A9597016E
:1035600024193509241B350BA981BA812D933C936D
:103570008B859C85880D991D8C199D09ED85FE858F
:1035800080839183440D551D4E0D5F1D51954195CE
:103590005109D8014D935C93E981FA81A191B191D0
:1035A000E983FA83EB81FC81428153819D010E9472
:1035B000853A6B017C019A01DA010E94853AC60EB8
:1035C000D71EE81EF91E9927F7FC9A958F2D7E2DA0
:1035D0006D2D0E940118AB81BC8112968C931297BD
:1035E00013961C92F801A081B181ED85FE85408182
:1035F00051819D010E94853A6B017C019A01DA019B
:103600000E94853AC60ED71EE81EF91E9927F7FCC0
:103610009A958F2D7E2D6D2D0E940118AD85BE854A
:103620008C9311961C92BFEFAB1ABB0AEB81FC8105
:103630003296EB83FC832D853E85225031092D8700
:103640003E870250110931E0A316B30609F00ECFF0
:103650006C96CDBFDEBFDF91CF911F910F91FF9090
:10366000EF90DF90CF90BF90AF909F908F907F9022
:103670006F905F904F903F902F9008952F923F92C0
:103680004F925F926F927F928F929F92AF92BF9272
:10369000CF92DF92EF92FF920F931F93CF93DF931E
:1036A000CDB7DEB76C97CDBFDEBF2C019C013E5F6E
:1036B0002D8B3E8B8B839C838C01212C312C8EE0B7
:1036C000B82E9DEBC92E99EED92E97E0E92EF12C5C
:1036D000F801A081B181F101EE7FE752FA4F8591A7
:1036E0009491B89EA001B99E500D1124662757FDF4
:1036F0006095762F36014701641A750A860A970A83
:10370000A40193010E94AB3AD8018D939D938D0142
:10371000BFEF2B1A3B0A2114E1E03E06C9F6B201C5
:10372000F20180E090E020813181DB012D933D9317
:10373000BD0122813381AD0142505E4FDA012D93EC
:103740003C93019634968038910569F7E7E0F0E004
:10375000EF83F88721E030E02F87388B60E470E05A
:103760006B8F7C8FE2C0C101969587959695879562
:10377000FC01EE0FFF1FE752FB4F85909490880CE1
:10378000892C881C9908FC01EE0FFF1FE752FA4FA5
:1037900065907490660C672C661C770866E0C10122
:1037A0000E94EE1766E001960E94EE171C01898DBB
:1037B0009A8D8A0D9B1D89839A83F5011D821E8235
:1037C0008DC0A981BA810D90BC91A02DA987BA871F
:1037D00029813A813E5F298B3A8BD9010D90BC91AA
:1037E000A02DAD87BE87208131812B873C87690161
:1037F000EE24D7FCE094FE2C29853A85D3010E9463
:10380000853A472F582F692F772767FD7A95C40E81
:10381000D51EE61EF71E2D853E85D4010E94853AF1
:10382000472F582F692F772767FD7A95C40ED51E2D
:10383000E61EF71EF594E794D794C7948B859C8574
:103840008C199D09A981BA818D939D93A983BA830F
:10385000C082D1829F013E5F2B8B3C8BD9010D90A2
:10386000BC91A02DAB87BC876D01EE24D7FCE09402
:10387000FE2C2D853E85D3010E94853A472F582F77
:10388000692F772767FD7A95C40ED51EE61EF71EB1
:1038900029853A85D4010E94853A472F582F692FF0
:1038A000772767FD7A95C41AD50AE60AF70AF594D0
:1038B000E794D794C7948B859C858C199D09A98919
:1038C000BA898D939C93AB89BC89CD92DC922D8172
:1038D0003E812F5F3F4F2D833E8332966D817E81E7
:1038E0008B8D9C8D6817790709F06BCF0F5F1F4F89
:1038F0006F88788CA60CB71C8F84988808151905DA
:1039000009F031CF3801660C771C6F86788A2F81D9
:103910003885215031092F8338876B8C7C8C7694C5
:1039200067946B8E7C8E232BA1F08B8C9C8C880CE7
:10393000991C880C991C8F8A988E6B8C7C8C660CD9
:10394000771C698E7A8E5201212C312C00E010E018
:10395000D3CF8201E12CF12C67E0C7010E94EE1762
:103960008E159F0500F1DC01AA0FBB1FA2014A0FB3
:103970005B1FFA0180819181F80120813181FA0178
:1039800020833183F801808391836D887E88A60D22
:10399000B71D8D919C911197FE5F208131812D93F0
:1039A0003C93808391832FEFE21AF20A0E5F1F4F40
:1039B00030E8E316F10481F692013E5FF201A08146
:1039C000B181F90180819181A80FB91F1082118204
:1039D0009D010E94853A26E0959587957795679594
:1039E0002A95D1F70E940118D2018C9311961C924E
:1039F000F201E250FF4FED87FE8792012E5F3D4FAF
:103A000029833A83820102501D4FAA24A394B12C2A
:103A1000AB81BC8112964D915C911397ED85FE852B
:103A2000808191811A01281A390AA981BA810D90E1
:103A3000BC91A02DAD83BE83F8010190F081E02DF3
:103A4000EF83F887AE0FBF1FA987BA87950163E0A0
:103A5000369527956A95E1F7B901660F771F67528A
:103A60007B4FFB0145905490440C452C441C550859
:103A7000220F331F27523A4FF90165907490660C5C
:103A8000672C661C77084A01880E991E8B869C86D7
:103A90009D01D3010E94853AC72ED82EE92EFF241E
:103AA000E7FCFA949101D2010E94853A472F582FE2
:103AB000692F772767FD7A954A016B857C856C0DA8
:103AC0007D1D68197909AB81BC8112966D937C9339
:103AD0001397ED80FE80EF81F885EE1AFF0A2985A5
:103AE0003A85D2010E94853A472F582F692F7727B0
:103AF00067FD7A952A019101D3010E94853A472FEB
:103B0000582F692F772767FD7A9597012419350972
:103B1000241B350BA981BA812D933C938B859C8501
:103B2000880D991D8C199D09ED85FE8580839183F3
:103B3000440D551D4E0D5F1D519541955109D801FC
:103B40004D935C93E981FA81A191B191E983FA8364
:103B5000EB81FC81428153819D010E94853A6B017A
:103B60007C019A01DA010E94853AC60ED71EE81E32
:103B7000F91E9927F7FC9A958F2D7E2D6D2D0E94A9
:103B80000118AB81BC8112968C93129713961C92EC
:103B9000F801A081B181ED85FE85408151819D01B3
:103BA0000E94853A6B017C019A01DA010E94853AF4
:103BB000C60ED71EE81EF91E9927F7FC9A958F2D81
:103BC0007E2D6D2D0E940118AD85BE858C931196BA
:103BD0001C92BFEFAB1ABB0AEB81FC813296EB83E0
:103BE000FC832D853E85225031092D873E8702506A
:103BF000110931E4A316B10409F00ACF6C96CDBFC8
:103C0000DEBFDF91CF911F910F91FF90EF90DF907A
:103C1000CF90BF90AF909F908F907F906F905F906C
:103C20004F903F902F9008956F927F928F929F9226
:103C3000AF92BF92CF92DF92EF92FF920F931F93BA
:103C4000CF93DF9380E098E0809324019093250147
:103C5000B12CD12CC0E0F12CAA24A39479E6972EA4
:103C6000E6E46E2E712CF4E08F2EFF2021F080917F
:103C7000132D873068F4B1100BC08091200180684B
:103C8000809320017894A09248008895DD24D394F5
:103C90008091200187FD2FC0DD2031F060E07CE2C3
:103CA00080E090E20E942C184091372D5091382DE1
:103CB0008091362DB92DB81BA0E02A2F30E0C90124
:103CC000840F951F880F991FFC01E050F04E608112
:103CD00071816734710514F0608271822050344D17
:103CE0008050904EFC0180818B0FF9018083AF5F83
:103CF000A03819F7D12C0E94E407F82EE090102D7F
:103D0000E3944091372D419531E8C32E0FEF209178
:103D1000362D60E070E080E09CE20E94930B67E04B
:103D200080E00E94440FF0E4FF1669F080E6F81688
:103D300009F4D5C0E0EAFE1609F480C0C1114FC0F5
:103D4000FF2009F444C06091132DCC24C394D2E029
:103D5000ED2E01E02EE030E042E050E070E08F2DEB
:103D60000E94CA078093132D6091392D10E1C12E56
:103D700088E0E82E26E030E040E050E070E08F2D53
:103D80000E94CA078093392D4091132DE42FF0E053
:103D9000EE0FFF1FE35EF44F2591349120936609E7
:103DA00030936709483010F027E006C0453018F01E
:103DB0008092040203C022E0209304029C01332776
:103DC000220F331F220F331F2360209320026091A4
:103DD000392D8091132D0E94770DC0E077C0C1303E
:103DE00069F56091372D7091382DCC24C394F2E0A1
:103DF000EF2E05E020E831E040E050E08F2D0E94FA
:103E0000CA078093372D9093382D6091362DA0E10D
:103E1000CA2EB8E0EB2E04E028E230E040E050E0AB
:103E200070E08F2D0E94CA078093362D682F8091F5
:103E3000372D9091382D0E949B0D48C06091102D18
:103E40007091112D22E0C22EEE24E39405E020E8CB
:103E500030E040E050E08F2D0E94CA078093102D83
:103E60009093112D2091372D3091382D280F391F27
:103E7000E091132DF0E0EE0FFF1FE35EF44F05918C
:103E80001491FC01E050F44D408150E0405851093C
:103E90008091362D480F511DEA01CC0FDD1FC40F54
:103EA000D51FD595C795D595C795A4E8BEE10E94C5
:103EB0008D3A980140E050E00E94F73A89019A015A
:103EC0004C2FC901B8010E94280EC2E0F0E8FF1291
:103ED00002C0BA24CCCE80E2F812C7CE02C0C1E044
:103EE00080CFDF91CF911F910F91FF90EF90DF90E6
:103EF000CF90BF90AF909F908F907F906F900895DC
:103F00006F927F929F92AF92BF92CF92DF92EF9289
:103F1000FF920F931F93CF93DF931F92CDB7DEB71E
:103F2000A82E992EB62E612C712CCC24C394D12CA2
:103F3000662D80E00E94440F862D8F5C0E94710FD9
:103F400086E00E944F0E7601062C02C0EE0CFF1C8C
:103F50000A94E2F70A2D192D41E0F80121918F0111
:103F600030E02E213F21232B11F081E001C088E0B9
:103F7000F801208130E02E213F21232BE1F083FF47
:103F800003C0876001C08E60942F9F7009F4806623
:103F90004B1101C0826949830E944F0E49814F5FD6
:103FA0004E37D9F6FFEF6F1A7F0A88E06816710462
:103FB00009F0BECF03C080FDE6CFE6CF0F90DF91C2
:103FC000CF911F910F91FF90EF90DF90CF90BF9016
:103FD000AF909F907F906F90089518950F93942FB6
:103FE000909598239093B00092E190937006942F4F
:103FF00098239093B00091E1909370069091690698
:104000009C7F92609093690680936A069091A200CB
:1040100092609093A200882391F081E08093480001
:1040200088958091280681FD04C02115310529F568
:1040300014C0809168068427862391F7F6CF81E02B
:104040008093480004C08091280681FFEECF8091C4
:10405000680684278623B9F7E8CF80E098E00F93BD
:10406000EF93FF93E0E0F0E200916806019301977F
:10407000D9F7FF91EF910F9119C0A0E0B8E00F932D
:104080008F939F93EF93FF93E0E0F0E20091680637
:104090000193000000000000C9010197F1F711979A
:1040A000A9F7FF91EF919F918F910F910F91089533
:1040B0008E3008F08DE0E82FF0E0EE0FFF1FE6589D
:1040C000F54F25913491C90108952F923F924F9257
:1040D0005F926F927F928F929F92AF92BF92CF9298
:1040E000DF92EF92FF920F931F93CF93DF9380E0C5
:1040F00090E2FC012E2F281B219327E2EF3FF207CD
:10410000C9F7D12C612C55245394812C212C312CAE
:10411000912CD0E0AA24AA94BA2CB5E0FB2E7724E7
:104120007A940E94E407C82F252D30E0D101A050D9
:10413000B04EE0E0FCE2452C132F8C918193A20F4E
:10414000B31F8CE2EE37F807C1F7F5013197F1F7AD
:10415000662D80E09CE20E94801FC11103C0DD2318
:1041600001F301C0DFEFD15067E080E00E94440F0F
:10417000C03409F054C086E99AE00E94AA0F0E9458
:10418000E4078111FCCFF5013197F1F767E084E294
:104190000E94440F0E94E407C82FF99CC00111241B
:1041A0008356954F0E94AA0F83EE9AE00E94AA0FB1
:1041B000C13021F4992041F09A9406C0C23021F414
:1041C0002DE0291508F09394F5013197F1F7C034EB
:1041D000E9F689EE9AE00E94AA0F0E94E407811195
:1041E000FCCF70924606F5013197F1F7E92DF0E02A
:1041F000EE0FFF1FE658F54FA591B49180913B2D2E
:1042000050913C2D452F409590913A2D982B492364
:104210009D0160913D2D852B0E94EE1F08C0C03688
:1042200041F0C03A09F4E5C0C03809F4E5C0811096
:1042300032C082EF9AE00E94AA0F80E098E0642DDD
:10424000712F0E94E33A9B012D573109CC24C3946E
:1042500052E0E52E04E140E050E0B1018C2F0E94D5
:10426000CA071C010E94DB0885EF9AE00E94AA0F92
:1042700060E1C62E78E0E72E02E020E130E041E088
:1042800050E0642D712F8C2F0E94CA07582E0E9477
:104290007C08812CAAC081E0881223C088EF9AE0B4
:1042A0000E94AA0F42E0C42EEE24E39404E020E82A
:1042B00030E040E050E0662D70E08C2F0E94CA078D
:1042C000682E8C011127C8010E94DB088DEF9AE04F
:1042D0000E94AA0FF801E050F44D80810E947C08F2
:1042E00084C022E0821281C081E09BE00E94AA0F7C
:1042F000412C11E080913D2D812349F480913C2D8A
:10430000812359F480913B2D812369F006C080916F
:104310003A2D812351F002E00BC080913B2D812387
:1043200031F003E005C000E003C001E001C004E09B
:10433000202F30E0F901EC5EF24D80814D1008C075
:104340000E948D0FC83041F40F5F053021F004C08A
:104350000E94710F01C000E0412F409580913D2DDA
:10436000842380933D2D30913A2D342330933A2D80
:1043700020913B2D242320933B2D90913C2D942381
:1043800090933C2D013021F4812B80933D2D14C05E
:10439000023039F4812B80933D2D312B30933A2D0F
:1043A0000BC0033021F4212B20933B2D05C004309A
:1043B00019F4912B90933C2D110F439488E04812EF
:1043C00099CFC23029F4D39427E02D1548F0A9CE17
:1043D000C13059F48D2D8150DD2021F0D82EA1CE91
:1043E000D12C9FCE37E0D32E9CCEC03209F099CE8F
:1043F00006C08824839452CF22E0822E75CFDF91AD
:10440000CF911F910F91FF90EF90DF90CF90BF90D1
:10441000AF909F908F907F906F905F904F903F9064
:104420002F9008951F920F920FB60F9211248F9321
:10443000EF93FF93E0E0F1E081A1806281A3FF911F
:10444000EF918F910F900FBE0F901F9018951F92B4
:104450000F920FB60F9211248F93EF93FF93E0E02A
:10446000F1E081A9806281ABFF91EF918F910F9074
:104470000FBE0F901F9018952F923F924F925F9210
:104480006F927F928F929F92AF92BF92CF92DF9264
:10449000EF92FF920F931F93CF93DF93CDB7DEB7C9
:1044A000CD54D109CDBFDEBFE0913E2DF0E0E95FF4
:1044B000F44F4490E0913F2DF0E0E95FF44FE49138
:1044C00019861A861B861C8681E080930106ED8F73
:1044D0004C8A1A8A1A8E1FA61B8A198A212C312C03
:1044E000332021F080911C2D873018F52A8D211161
:1044F00020C0222029F08091300180688093300113
:1045000080912001806880932001789431E030937D
:104510004800889520913F2D253008F024E04091F7
:104520003E2D453008F044E0622D80E090E20E948C
:10453000F52A0E94E407382E90911D2D892F837053
:10454000833031F440E8341619F059895111E3C32E
:104550002091402D60E126027001112496959695D8
:104560009370998F20911E2D30911F2D37FD06C01D
:10457000F9013196203831054CF402C0E0E0F0E05A
:10458000D901A558BE4FAE8FBF8F04C04BEF51E08D
:104590004E8F5F8F211005C06E8D7F8D7E5F6E8F79
:1045A0007F8F8823A1F08230B9F460911C2D88ECB4
:1045B00090E070E00E94E33A6D507109AB898A2F58
:1045C00090E0861797075CF4AF5FAB8B05C0B1E056
:1045D000B98B18A21B8A06C0198A18A203C0198AAF
:1045E00041E048A3ED8BFE8BE0911C2DE8AB8827C2
:1045F0009927821B930BFC01F595E795F595E795B7
:10460000E9ABFAABFE5FEFABF8AF8090202D909056
:10461000212DAA2497FCA094BA2CFC01F595E795CE
:10462000EDABFEABFE5FEAAFFBAF8091222D909128
:10463000232DAC01662757FD6095762F4CAF5DAFFB
:104640006EAF7FAFED89FE89EE0FFF1FE250F04E97
:104650008D899E89821B930B880F991FBC01605026
:10466000704E22966EAF7FAF2297DC01A050BC4DFA
:104670002696AEAFBFAF269719A21AA210E0BD8D45
:104680002D96BFAF2D972C892E962FAF2E97422EA9
:10469000512C612C712CA7014A5051094BA75CA7E2
:1046A000B701665F7F4F6DA77EA7C70105962A9663
:1046B0008EAF9FAF2A97D70115972C96AEAFBFAF9D
:1046C0002C9720C3B989B11125C6298D21113BC072
:1046D000868197812081318142815381240F351F4A
:1046E00044815581240F351F280F391F37FF02C021
:1046F0002D5F3F4F35952795359527952A964EADD9
:104700005FAD2A97421753070CF00AC62085318502
:10471000280F391F82859385280F391F8485958539
:10472000280F391F37FF02C02D5F3F4F3595279562
:10473000359527952C966EAD7FAD2C9726173707AC
:104740000CF465C0EDC5798D723089F48481958152
:10475000ADA5BEA5A817B9070CF0E2C58681978163
:104760002BA53CA5821793070CF454C0D9C5398DED
:104770003130B1F586819781208131814281538129
:10478000240F351F44815581240F351F280F391FF1
:1047900037FF02C02D5F3F4F3595279535952795FB
:1047A0004BA55CA5241735070CF0BAC520853185CB
:1047B000280F391F82859385280F391F8485958599
:1047C000280F391F37FF02C02D5F3F4F35952795C2
:1047D000359527956DA57EA56217730704F1A0C5D1
:1047E000798D733009F09CC584819581ABA5BCA5FA
:1047F0008A179B070CF094C5868197812DA53EA54D
:10480000281739070CF08CC531E0398B05C041E021
:10481000498B02C051E0598B10E01B8A05C061E052
:10482000698BFACF71E0798B22968EAD9FAD22977E
:10483000A9A1BAA18A0F9B1F24968EAF9FAF249780
:1048400026962EAD3FAD26972A0F3B1F28962EAFFA
:104850003FAF289700E03BC238A13111E5CF45C2F8
:1048600048A9411131C1002319F08FA998AD02C0A8
:1048700089A99AA96D897E89860F971FDC01AA0FE5
:10488000BB1FAE5FBF4D2D913C91A901662757FD1F
:104890006095762F4BA35CA36DA37EA3DC01AA0FCA
:1048A000BB1FAC5FBF4D6D917C916B8F7C8FDC012A
:1048B000AA0FBB1FAA5FBF4D4D915C914F8B588FC4
:1048C000DC01AA0FBB1FA85FBF4D6D917C916BAB44
:1048D0007CABCB01AA2797FDA095BA2F8FA398A7F1
:1048E000A9A7BAA7ABEFBFEF0E94853A6B017C0185
:1048F00028E330E0AB8DBC8D0E94993AC60ED71EDE
:10490000E81EF91E2EE030E0DA010E94993AC60E48
:10491000D71EE81EF91E2FA138A549A55AA5C21A0F
:10492000D30AE40AF50AA7019601C301B2010E9465
:10493000B33AAEE09595879577956795AA95D1F7A7
:10494000680D791D8A1D9B1D6F3F710581059105BD
:1049500009F01CF497FD06C008C06FEF70E080E01E
:1049600090E003C060E070E0CB01A12FB0E0A05068
:10497000B44D6C93312F3F5F39AF29E030E0AB8D00
:10498000BC8D0E94993A6B017C014BA15CA16DA189
:104990007EA1C41AD50AE60AF70AAF89B88D0E942B
:1049A000993AC60ED71EE81EF91E6FA178A589A5F3
:1049B0009AA5C61AD70AE80AF90A52E0CC0CDD1CFF
:1049C000EE1CFF1C5A95D1F7A7019601C301B20155
:1049D0000E94B33AAEE09595879577956795AA952D
:1049E000D1F7680D791D8A1D9B1D6F3F71058105EB
:1049F000910509F01CF497FD06C008C06FEF70E048
:104A000080E090E003C060E070E0CB0129ADA22F10
:104A1000B0E0A050B44D6C93312F3E5F3FA32EE029
:104A200030E0AB8DBC8D0E94993A6B017C014BA1AB
:104A30005CA16DA17EA1C41AD50AE60AF70A28E393
:104A400030E0AF89B88D0E94993AC60ED71EE81E95
:104A5000F91E2BA93CA9ABEFBFEF0E94853AC60E09
:104A6000D71EE81EF91EA7019601C301B2010E94DC
:104A7000B33A4EE095958795779567954A95D1F726
:104A8000680D791D8A1D9B1D6F3F7105810591057C
:104A900009F01CF497FD06C008C06FEF70E080E0DD
:104AA00090E003C060E070E0CB015FA1A52FB0E013
:104AB000A050B44D6C931D5F6F89788D9B01442786
:104AC00037FD4095542F9EC078A9713009F0B1C0D0
:104AD000002319F04AAD5BAD02C04DA95EA98D89D6
:104AE0009E89480F591FDA01AA0FBB1FAE5FBF4D49
:104AF0002D913C91DA01AA0FBB1FAC5FBF4D6D91A8
:104B00007C916B8F7C8FDA01AA0FBB1FAA5FBF4D10
:104B10008D919C918F8B988FDA01AA0FBB1FA85F94
:104B2000BF4D6D917C916BA37CA3DA01AA0FBB1FD3
:104B3000A050B04ECD90DC90EE24D7FCE094FE2C3B
:104B4000AAEFBFEF0E94853AC60ED71EE81EF91ED7
:104B500026E230E0AB8DBC8D0E94993AC60ED71E7E
:104B6000E81EF91EAF89B88D0E94993AC60ED71E6D
:104B7000E81EF91E2BA13CA1AAEFBFEF0E94853AC7
:104B8000C60ED71EE81EF91EDA01AA0FBB1FA65FCC
:104B9000BF4D4D915C91662757FD6095762FC40EF1
:104BA000D51EE61EF71EA7019601C301B2010E94A1
:104BB000B33A3EE095958795779567953A95D1F705
:104BC000680D791D8A1D9B1D6F3F7105810591053B
:104BD00009F01CF497FD06C008C06FEF70E080E09C
:104BE00090E003C060E070E0CB01A12FB0E0A050E6
:104BF000B44D6C931F5F8F89988D9C01442737FDBE
:104C00004095542F86E0220F331F441F551F8A956D
:104C1000D1F7C301B2010E94B33A2EE09595879572
:104C2000779567952A95D1F7680D791D8A1D9B1D8B
:104C300031C02496AEADBFAD24978D919C910111EA
:104C40000EC02E962FAD2E9730E0DC010E94993ACF
:104C5000672F782F892F992787FD9A95E5CF28967A
:104C6000AEADBFAD28978D919C912D962FAD2D9710
:104C700030E0DC010E94993A672F782F892F99271D
:104C800087FD9A952CAD3DAD4EAD5FAD620F731FA4
:104C9000841F951F6F3F71058105910509F01CF474
:104CA00097FD06C008C06FEF70E080E090E003C0A1
:104CB00060E070E0CB01212F30E0D901002319F032
:104CC000A058B34D02C0A050B44D6C930F5F202F7D
:104CD00030E0222019F082E090E002C081E090E014
:104CE000281739070CF4BCCD1F5F4D895E894F5FD3
:104CF0005F4F4D8B5E8B69A17AA16E5F7F4F69A379
:104D00007AA332968D899E89AE8DBF8D8A179B07B7
:104D100008F4D8CC02C0B1E0B98BCA84E98422205F
:104D200019F00091222D01C00FEF40911E2D4E5F12
:104D30002091202D60E87CE280E09CE20E94930BB1
:104D400067E080E00E94440FE0E83E1210C08091CE
:104D5000412D823009F0D6C280911D2D83708330A1
:104D600009F4D0C2FA8D21E0F227FA8FCBC230E4E9
:104D70003312CCC21092412D4FC041E04093412DDF
:104D80004BC050EA351202C083E0BDC264E4361263
:104D90002AC027FC41C0222059F081E480930302FD
:104DA00080E098E0809324019093250180E017C073
:104DB00085E48093030280E094E080932401909343
:104DC000250180911E2D90911F2D8C33914034F040
:104DD0008BE391E080931E2D90931F2D83E060E87C
:104DE000262E282A19C084E6381209C02220A1F0F4
:104DF00027FC12C091E02926A0E82A2A0DC0311014
:104E000007C0BFE72B22EA89EE2309F4A9C00AC034
:104E1000F4E03F1609F4A2C02A89222309F4A0C0B5
:104E200031109EC040E05DE74F87588B80E093E8EB
:104E30008D879E871D821E821F82188619821A8284
:104E40001B821C828E010F5F1F4F9E012B5F3F4F05
:104E5000AE01435F5F4FBE01615F7F4F80E090E234
:104E60000E940A2C6B017C01AD85BE854C88512CBB
:104E700092010E94993A812C912C54019394A5019E
:104E800094010E94193B39012D873E87AF85B8896F
:104E900092010E94993AA50194010E94193BC9010F
:104EA0002F87388B59E26516710424F4883D6FEF23
:104EB000960754F420913E2D222331F02150209367
:104EC0003E2D71E07A8B01C01A8AAFE06A16710438
:104ED00064F4823F9F4F4CF080913E2D863028F441
:104EE0008F5F80933E2DE1E0EA8BF0E4CF16FCE982
:104EF000DF06E104F10450F480911C2D8C30B8F4ED
:104F00008F5F80931C2D21E02A8B11C031EAC316DC
:104F100036E8D30631E0E306F10448F080911C2D19
:104F2000833028F0815080931C2D41E04A8B809182
:104F30003E2DE82FF0E0E95FF44F449060913F2D63
:104F4000653008F064E0853008F084E00E946F2A44
:104F500080911C2D0E944D2A4C8A02C051E05A8B30
:104F60008091412D122D117081116AC019F060914C
:104F70003F2D02C060913E2D80911C2D0E94540D4A
:104F8000332009F4A1C160911C2DCC24C39442E0CC
:104F9000E42E01E02EE030E040E050E070E0832DB0
:104FA0000E94CA07211001C003C0843008F484E0C5
:104FB00080931C2D80911C2D0E944D2A112391F06D
:104FC00060913F2D20E1C22E38E0E32E01E026E083
:104FD00030E040E050E070E0832D0E94CA078093EB
:104FE0003F2D11C060913E2D80E1C82E98E0E92E42
:104FF00001E026E030E040E050E070E0832D0E94C8
:10500000CA0780933E2D60913F2DE62FF0E0E95FC7
:10501000F44F149180913E2DE82FF0E0E95FF44FBA
:105020004490653008F064E0853008F084E00E9428
:105030006F2A1D8F4C8A37FC47C132FE44C144C1E0
:10504000813009F054C0112319F06091222D02C063
:105050006091202D605880911E2D90911F2DCE972C
:105060000E949B0D222019F02BE331E002C02BE3BC
:1050700033E060911E2D70911F2D02E0C02EEE24B2
:10508000E39405E045EC5EEF832D0E94CA07809310
:105090001E2D90931F2D1123A9F06091222D709148
:1050A000232DA8E0CA2EB0E1EB2E04E02FEF30E074
:1050B00040E050E0832D0E94CA078093222D9093F8
:1050C000232D02C16091202D7091212DE8E0CE2E7C
:1050D000F0E1EF2E04E02FEF30E040E050E0832DD0
:1050E0000E94CA078093202D9093212DEDC082301D
:1050F00009F076C0F0903E2DEF2DF0E0E95FF44F1F
:105100004491A091402DBB27A7FDB09528E833E13D
:105110000E94993A242F30E040E050E00E94193B71
:1051200004C05595479537952795FA94D2F72115E0
:1051300060E836074105510544F4283273EA370721
:105140007FEF4707570734F009C02FEF3FE740E0F4
:1051500050E004C020E030E84FEF5FEFB9018091EC
:105160001D2D0E94BE0D31FE07C080911D2D803483
:1051700018F4805E80931D2D30FE07C080911D2D98
:10518000803218F0805280931D2D84E0381214C0B4
:1051900080911D2D86FF03C098E098270BC085FFE6
:1051A00004C0832580931D2D07C0982F9F5F9370A7
:1051B0008C7F982B90931D2D34FE07C08091402D3D
:1051C00082381CF081508093402D33FE7DC0809149
:1051D000402D8F3709F478C08F5F8093402D74C0C5
:1051E000833009F071C09FA5A92EB12C29E0822E31
:1051F000912C8C0E9D1E8A0C9B1CD4016C9132E06C
:10520000C32EEE24E39404E020E830E040E050E0D8
:1052100070E0832D0E94CA07F401808348E0C42E09
:1052200050E1E52E01E021E030E040E050E0B50142
:10523000832D0E94CA078FA7A985BB27A7FDB0951C
:105240008A85A81BB10987FDB39510911C2DE12F0C
:10525000F0E0EE0FFF1FE35EF44F259134910E94C2
:10526000993A153078F4AAE0B0E09B01AC010E94B5
:10527000A03A28E030E040E050E00E94193B1123C2
:1052800079F016C01A3028F428E030E040E050E011
:1052900004C020E530E040E050E00E94193B0EC021
:1052A00092E055954795379527959A95D1F706C081
:1052B000113021F45595479537952795612FC901F0
:1052C0000E94040E01C01A8A20FE03C081E19BE007
:1052D00002C087E19BE00E94AA0FFA8DFF2331F004
:1052E00083E50E94710F21E02A8F08C039893111AE
:1052F00002C082E501C087E40E94710F40E23412CF
:10530000EFC812C082E08093412D86CD50E6351261
:1053100038CD33CD1F3708F485CA61E0698BE5CC01
:105320001F3708F0E2CC98CAC35BDF4FCDBFDEBFAA
:10533000DF91CF911F910F91FF90EF90DF90CF9071
:10534000BF90AF909F908F907F906F905F904F90A5
:105350003F902F900895AAECB1E092E09C93E82F43
:10536000F0E084911C920895CF93DF9380E20E9435
:10537000AB29C0E0D2E08C8781E20E94AB298D8707
:1053800088ED80938001E0E4F9E043E0408380E42D
:1053900090E086A397A381E0888330E139838981F7
:1053A000898322E02A8381E48B832C8348A38BE2C8
:1053B00089A348A783E389A718AA39ABA0EAB0E07C
:1053C00012968C911297826012968C931297E0E05D
:1053D000F1E080E8808355E050A321A312968C91E0
:1053E0001297826012968C9345E942A333A380E022
:1053F00098E084A395A330A721A712A680E090E2AD
:1054000084A795A716A650AB21AB42AB81E183AB35
:1054100080E094E084AB95AB82E180AF21AF12AE27
:1054200080E094E284AF90933D0110923E01DF91C1
:10543000CF910895E0E0F2E010821092000181E047
:105440008093400912820895E0E0F2E08081846058
:10545000808320893189C9010895E0E0F2E08081EC
:105460008860808322893389C90108958091000270
:10547000806180930002809133028823E1F38FE002
:105480008A95F1F72091140230911502932F80E054
:10549000AC01422B9A01C9010895E82FF0E0EE0F0C
:1054A000FF1FE35EF44F2591349121503109209381
:1054B000660930936709893010F087E00DC08830A5
:1054C00011F486E009C0873011F484E005C085300E
:1054D00010F083E001C082E080930402089524E08C
:1054E000629FB00111246360E0E0F2E060A724E075
:1054F000829FC0011124836080A308959F92AF9280
:10550000BF92CF92DF92EF92FF920F931F93CF93B0
:10551000DF9382E08093040200E010E0C7E0D9E16D
:10552000902E802F6C2F0E94C33A84E0989F9001A8
:10553000112423602093200220932802A12CB12C57
:10554000C12CD12C760117C08D2F8A95F1F786E0FA
:10555000891518F00E94242A02C00E942D2AAC014D
:10556000662757FD6095762FC40ED51EE61EF71EE2
:105570008FEFA81AB80AB7FEE7CF41E1F594E79498
:10558000D794C7944A95D1F781E8C8168FEFD8060B
:10559000E806F80634F431E8C32EDD24DA94ED2C65
:1055A000FD2C80E8C816D104E104F1042CF02FE7AB
:1055B000C22ED12CE12CF12C6C2D6195C8018C5F91
:1055C0009C4F0E94453B0F5F1F4F0E30110509F0A5
:1055D000A7CFDF91CF911F910F91FF90EF90DF90B8
:1055E000CF90BF90AF909F900895CF92DF92EF92AF
:1055F000FF920F931F93CF93DF9300D0CDB7DEB709
:105600007C01842F90E08C5F9C4F29836A830E94E9
:10561000353B44E0849F600111242981822F90E072
:10562000855F9C4F0E94353BA4E08A9FC0011124F6
:105630008701F701FC5F20E030E06A81D8014D91DD
:105640005C9111974C0D5D1D4D935D938D014081D3
:105650005181662319F0480F591F02C04C0D5D1D82
:10566000408351832F5F3F4F32962115B2E03B07B5
:1056700029F70F900F90DF91CF911F910F91FF901D
:10568000EF90DF90CF9008958F929F92AF92BF924C
:10569000CF92DF92EF92FF920F931F93812C912C68
:1056A000A12CF0E4BF2E07C0E2E0B694A794979433
:1056B0008794EA95D1F7681579058A059B05A0F3CB
:1056C00000E010E0980120C075016401C00ED11EF9
:1056D000E21EF31E6C157D058E059F0550F06C19BA
:1056E0007D098E099F0997018601080D191D2A1D44
:1056F0003B1D369527951795079552E0B694A794CC
:10570000979487945A95D1F781149104A104B10418
:10571000D9F6B801C9011F910F91FF90EF90DF906A
:10572000CF90BF90AF909F908F900895FC0120E0A4
:1057300030E02F5F3F4F8081918142815381840F00
:10574000951F95958795819391932F3F83E0380717
:1057500081F70895CF92DF92EF92FF920F931F93FC
:1057600069017A018B019C01000F111F221F331F59
:105770000C151D052E053F0504F197018601000F4C
:10578000111F221F331F0617170728073907ACF010
:10579000A3E0B0E09B01AC010E94A03A6C0D7D1D1E
:1057A0008E1D9F1DB2E09695879577956795BA9562
:1057B000D1F7462F372F282F04C04C2D3D2D2E2DED
:1057C0009F2D642F732F822F1F910F91FF90EF90C9
:1057D000DF90CF9008950F931F93562FFC0140E068
:1057E00060E070E0CB0109C00191119121913191EC
:1057F000600F711F821F931F4F5F4513F5CF242F3A
:1058000030E040E050E00E94193BB901CA011F910D
:105810000F9108952F923F924F925F926F927F92D5
:105820008F929F92AF92BF92CF92DF92EF92FF92B0
:105830000F931F93CF93DF93CDB7DEB72A97CDBFDA
:10584000DEBF5C017B0139010D831E83FC019C01DD
:1058500080E094E0D9016D917C91DA010D911C9169
:1058600011970617170714F46D937C93D9016D9166
:105870007D919D01D7010D911C91119760177107C2
:1058800014F46D937C93019729F7DA018D919C9123
:10589000D7012D913C91ABE0A29FA001A39F500D99
:1058A0001124B5E0B89F9001B99F300D1124420F2B
:1058B000531F64E0559547956A95E1F7B49FB00191
:1058C000B59F700D1124A89F9001A99F300D112440
:1058D000620F731FA4E075956795AA95E1F79A0189
:1058E000260F371F37FF02C02F5F3F4FC901959525
:1058F0008795D12CA0E000E010E020E0211107C046
:10590000E080F180E416F50604F521E01EC02130A8
:10591000A1F4E080F1808E159F05BCF4B0E0AA0FE1
:10592000BB1F21E030E02C0F3D1FA20FB31F0D93D2
:105930001C93D394A1E022E008C0223031F4E0802F
:10594000F1806E157F050CF420E034E63D15F0F48F
:105950002B803C8049805A80910124193509AAEF97
:10596000B0E00E948D3A2D2D30E0215031094427BE
:1059700037FD4095542F0E94F73A60E07AEC8AE9AF
:105980009BE30E94F73A69017A0112C00F5F1F4F33
:1059900032960115B4E01B0709F0B0CFE1E0ED1538
:1059A000B8F2212C312C412C512CC12CD12C760158
:1059B0004214530430F022242A9473E0372E412CF1
:1059C000512CF201EE0FFF1FEA0DFB1DE987FA874C
:1059D0004F82588600E010E02EC0A985BA85A00F3E
:1059E000B11F4D915C919A01DA010E94853A680DD0
:1059F000791D8A1D9B1DD3016D937D938D939C937F
:105A000013974A01AA2497FCA094BA2CED81FE8139
:105A100080819181A281B381880D991DAA1DBB1D32
:105A200080839183A283B383EF81F8853196EF83DE
:105A3000F8870E5F1F4FD3018D909D90AD90BC9065
:105A4000EF81F885E215F30540F2F0EC8F16F8EDE2
:105A50009F06F7EAAF06B10470F4A9E6B1E0A5012C
:105A600094010E94A03AD3016D937D938D939C93F2
:105A7000139711E001C010E0410184189508A12C92
:105A8000B12CF3016081718182819381A501940120
:105A90000E94F73AD3012D933D934D935C93139756
:105AA000ED81FE812081318142815381A3E1B0E00B
:105AB0000E94A03AA50194010E94193BAD81BE81CC
:105AC0002D933D934D935C931397F3016081718106
:105AD000828193810E94442B112339F0D3016D936D
