:100000000C9447060C9468060C9468060C946806D9
:100010000C9468060C9468060C9468060C940325EE
:100020000C941D250C9468060C9468060C946806C4
:100030000C9468060C9468060C9468060C94680688
:100040000C9468060C9468060C9468060C94680678
:100050000C9468060C9468060C9468060C94680668
:100060000C9468060C9468060C9468060C94680658
:100070000C9468060C9468060C9468060C94680648
:100080000C9468060C9468060C94E6070C946806B9
:100090000C9468060C9468060C9468060C94680628
:1000A0000C9468060C9468060C9468060C94680618
:1000B0000C9468060C9468060C9468060C94680608
:1000C0000C9468060C9468060C9468060C946806F8
:1000D0000C9468060C9468060C9468060C946806E8
:1000E0000C9468060C9468060C9460360C946806B0
:1000F0000C9468060C9468060C9468060C946806C8
:100100000C948F220C9468060C9468060C94680674
:100110000C9468060C9468060C9468060C946806A7
:100120000C9468060C9468060C9468060C94680697
:100130000C9468060C9468060C9468060C94680687
:100140000C9468060C9468060C9468060C94680677
:100150000C9468060C9468060C9468060C94680667
:100160000C9468060C9468060C9468060C94680657
:100170000C9468060C9468064F7363796C6F736B0C
:100180006F700047656E657261746F722000416E1A
:10019000616C697A61746F7200416E2E73742E6C9B
:1001A0006F672E00576F62756C6F736B6F70004DC9
:1001B000756C74696D657472200052533233322D40
:1001C0003E50432000557374617769656E69610024
:1001D00056312E3200506F6D6961726F7779004B26
:1001E0006F6D62616A6E004D696E69002020203576
:1001F00000202020320020202031003530306D00DA
:100200003230306D003130306D002035306D0020DF
:1002100032306D002031306D002020356D002020FF
:1002200032750020203575002020387500203130CF
:100230007500203230750020353075003130307552
:1002400000323030750035303075002020316D00BF
:100250002020326D002020356D002031306D0020CF
:1002600032306D002035306D002D4E415333316BEF
:1002700032002032356B0031326B35002020356B77
:100280000020326B3500316B3235002035303000C4
:10029000203235300020313235002020353000202A
:1002A0002032350031322E350020202035006442C6
:1002B0002000487A20413D00463D003075732020E3
:1002C0000075732020200030306E73200064743D70
:1002D000004C46004846004C4600484600543A2030
:1002E0000020593D00583D0064425700487A2F6471
:1002F00000562F6400732F6400000000000000000F
:100300005F00000007000700147F147F14242A7F79
:100310002A1223130864623649552250000503004F
:1003200000001C2241000041221C00082A1C2A084F
:1003300008083E08080050300000080808080800B7
:100340006060000020100804023E5149453E004212
:100350007F400042615149462141454B31181412FA
:100360007F1027454545393C4A4949300171090507
:10037000033649494936064949291E0036360000E8
:1003800000563600000008142241141414141441BD
:10039000221408000201510906324979413E7E11BA
:1003A00011117E7F494949363E414141227F4141F9
:1003B000221C7F494949417F090901013E414151C0
:1003C000327F0808087F00417F41002040413F0103
:1003D0007F081422417F404040407F0204027F7F1B
:1003E0000408107F3E4141413E7F090909063E4114
:1003F00051215E7F09192946464949493101017F4A
:1004000001013F4040403F1F2040201F7F20182017
:100410007F6314081463030478040361514945435E
:1004200000007F4141020408102041417F00000488
:1004300002010204404040404000010204002054F8
:100440005454787F48444438384444442038444421
:10045000487F3854545418087E0901020814545433
:100460003C7F0804047800447D40002040443D0067
:10047000007F10284400417F40007C041804787CF1
:100480000804047838444444387C141414080814CC
:1004900014187C7C080404084854545420043F4435
:1004A00040203C4040207C1C2040201C3C403040F0
:1004B0003C44281028440C5050503C4464544C4454
:1004C000000836410000007F0000004136080008A7
:1004D000082A1C08081C2A0808464D00414D0053F4
:1004E000570073696E6520202020202000737175ED
:1004F0006172652020202000747269616E676C65EE
:1005000020200070696E6B206E6F697365007768DC
:10051000697465206E6F69730061726269747261DB
:10052000727920006E6F6E6520286F666629000064
:100530000091012303B5044706D8076909F90A8A1F
:100540000C190EA90F3711C5125214DF156A17F5D1
:10055000187F1A071C8F1D161F9B201F22A2232302
:1005600025A32621289E29192B932C0B2E812FF5AC
:10057000306832D8334735B3361D388539EB3A4FBA
:100580003CB03D0F3F6C40C6411D437244C545140D
:10059000476148AB49F24A374C784DB74EF24F2A83
:1005A0005160529253C154EC55145739585B5979E4
:1005B0005A935BAA5CBE5DCE5EDA5FE260E761E8FB
:1005C00062E563DF64D465C666B3679D688369646A
:1005D0006A416B1B6CF06CC16D8D6E566F1A70DAD0
:1005E0007095714C72FF72AD735774FD749D753ABE
:1005F00076D1766577F3777D7802798379FF79769E
:100600007AE97A577BC07B247C847CDE7C347D85D0
:100610007DD27D197E5C7E997ED27E067F357F5F9E
:100620007F857FA57FC07FD77FE87FF57FFD7FFF38
:100630007FFD7FF67FEA7FD97FC37FA97F897F64B3
:100640007F3B7F0D7FD97EA17E647E227EDB7D9005
:100650007D3F7DEA7C907C317CCD7B657BF77A8623
:100660007A0F7A937913798F7805787777E5764ED4
:1006700076B27512756D74C47316736472AD71F2CF
:10068000703370706FA86EDC6D0B6D376C5E6B81B4
:100690006AA069BB68D267E566F465FF6406640911
:1006A0006309620461FC5FF15EE15DCE5CB85B9E54
:1006B0005A80595F583B571356E854B953885253E0
:1006C000511B50E04EA24D614C1D4BD6498C484009
:1006D00047F0459E444A43F34199403D3FDE3D7D0E
:1006E0003C1A3BB4394C38E236763508349832251A
:1006F00031B12F3C2EC42C4A2BCF295328D5265557
:1007000025D4235122CD20481FC21D3A1CB21A28DD
:10071000199E1712168614F9126B11DC0F4D0EBEBE
:100720000C2D0B9D090C087B06E9045703C6013408
:1007300000A3FE11FD7FFBEEF95CF8CBF63BF5AABA
:10074000F31AF28BF0FDEE6EEDE1EB55EAC9E83EEF
:10075000E7B4E52CE4A4E21DE198DF13DE91DC0FA1
:10076000DB8FD910D893D618D59ED326D2B0D03BE4
:10077000CFC8CD58CCE9CA7CC912C8A9C643C5DFC9
:10078000C37DC21EC1C1BF67BE0FBDBABB67BA176A
:10079000B9CAB77FB638B5F3B3B1B272B137B0FEEC
:1007A000AEC8AD96AC67AB3BAA12A9EDA7CBA6AC81
:1007B000A591A47AA366A255A149A0409F3A9E396B
:1007C0009D3B9C419B4B9A59996B9881979B96B9FD
:1007D00095DB9401942C935A928D91C490FF8F3F96
:1007E0008F838ECB8D188D698CBF8B198B778ADAAE
:1007F000894289AE881F8895870F878D86118699D3
:10080000852685B7844E84E98388832D83D78285A6
:10081000823882F081AD816E8135810081D180A6E0
:100820008080805F8043802C801A800C800480014F
:1008300080028009801480248039805480738097DE
:1008400080BF80ED80208157819481D5811B826695
:1008500082B6820B836483C38326848E84FA846B7E
:1008600085E1855C86DC866087E987768808899ED5
:10087000893A8AD98A7D8B268CD38C858D3B8EF5DF
:100880008EB48F77903E910A92DA92AE93869462FC
:1008900095439627971098FC98ED99E19AD99BD6A5
:1008A0009CD69DDA9EE19FECA0FBA10EA324A43E62
:1008B000A55BA67BA79FA8C7A9F1AA1FAC51AD85D0
:1008C000AEBCAFF7B035B275B3B9B4FFB549B795A3
:1008D000B8E4B936BB8ABCE1BD3ABF96C0F4C15595
:1008E000C3B8C41DC685C7EFC85BCAC9CB38CDAA7B
:1008F000CE1ED094D10BD384D4FFD57CD7FAD8792F
:10090000DAFADB7DDD00DF85E00BE293E31BE5A592
:10091000E62FE8BAE947EBD4EC61EEF0EF7FF10E99
:10092000F39FF42FF6C0F751F9E3FA74FC06FE9832
:10093000FF2901BB024D04DE0570070109910A225F
:100940000CB20D410FD0105E12EB13781504178F07
:1009500018191AA21B291DB01E3620BA213D23BF2B
:10096000243F26BE273B29B72A312CA92D202F95BD
:100970003008327933E8345536BF3728398F3AF3A7
:100980003B553DB43E12406C41C4421A446D45BDD6
:10099000460B4856499E4AE34B254D644EA14FDA1B
:1009A000501052435372549F55C856ED5710592F4B
:1009B0005A4A5B625C775D875E955F9E60A461A624
:1009C00062A4639E64956587667667616847692A55
:1009D0006A086BE36BB96C8B6D596E226FE76FA879
:1009E0007065711D72D17281732C74D2747475121A
:1009F00076AA763F77CF775A78E0786279DF7958B0
:100A00007ACC7A3B7BA57B0B7C6B7CC77C1E7D7193
:100A10007DBE7D077E4B7E8A7EC47EF97E297F5512
:100A20007F7B7F9D7FBA7FD17FE47FF27FFB7F203A
:100A30005A3D00576176653A2000252020473D0049
:100A400020446565703D00202020202044433D0067
:100A5000447574793D0020563D004172626974729C
:100A600020583D00463D006D560020473D00463D64
:100A70000057726974652E2E2E00344D000000322E
:100A80004D000000314D0000003530306B00323039
:100A9000306B003130306B0035306B000032306B22
:100AA000000031306B0000356B000000326B00003D
:100AB00000316B0000003530300000323030000073
:100AC0000000010004000C0024004C009C008C017C
:100AD0001C033C069C0F3C1F7C3E3C9C5472696787
:100AE0003D0020563D004375723D00205A00583DA0
:100AF0000052656164792E2E2E00532F7320200042
:100B0000426173653A2000101414141919193F7DBD
:100B1000FA204348312000204348322000040005D9
:100B200000040005000A00190032006400FA00F415
:100B300001E803C40988131027A861487A006B48AC
:100B40007A00467265713D005670703D00204D6917
:100B50006E3D004D61783D004176673D00524D533A
:100B60003D004E53004452002078200030487A0067
:100B70005220005357200020202020202020524DBA
:100B8000533D004B616C69627261636A610052534C
:100B9000323332202D2050430057797377696574C2
:100BA0006C6163003139323030202000333834300A
:100BB00030202000353736303020200031313532BA
:100BC000303020003233303430302000343630388A
:100BD000303020003932313630302000313135327A
:100BE0003030300031353030303030003235303058
:100BF000303030004B6F6E74726173743A20004A6B
:100C000061736E6F73633A200020575953574945FB
:100C1000544C41435A0053706565643A2000205299
:100C200053323332202D20504300206F6B006B6114
:100C30006C00414443206F66667365743A2000443B
:100C40004143206F66667365743A20004441432037
:100C5000777A6D6F636E3A2000204B414C494252C7
:100C600041434A410020555354415749454E49415B
:100C7000200067332210F66B251835134D4B503C7E
:100C80002D2D52532D3233322D2D3E504300112441
:100C90001FBECFEFDFE2DEBFCDBF18BE19BE1ABE4A
:100CA0001BBE1DE2A0E0B0E2EEE2F8E702C0059054
:100CB0000D92AE32B107D9F71DE2AEE2BDE201C03E
:100CC0001D92A634B107E1F70E94EA060C94153C88
:100CD0000C940000809150008460809350008091BB
:100CE000510082FFFCCF80E490E062E00E94780730
:100CF000809150008F7E8093500080915000877FBC
:100D000080935000089583E4E0E5F0E0828388E07A
:100D1000809350008091510083FFFCCF84ECE0E58C
:100D2000F0E0858380915000806180935000809135
:100D3000510084FFFCCF80E490E064E00E947807DB
:100D40000895EF92FF920F931F93CF93DF93E82EB6
:100D50008FE062E00E941B0F87EE91E00E94820FFD
:100D600086E063E00E941B0F8FED91E00E94820FEE
:100D700080E064E00E941B0F85ED91E00E94820FED
:100D80008FE065E00E941B0F80ED91E00E94820FD2
:100D90008BE0E89E8001112408581E4FC8E7D1E07F
:100DA000FF2480E46F2D0E941B0FFE1421F4C80164
:100DB0000E94930F03C0CE010E94820FF3942B96E2
:100DC00088E0F81671F7DF91CF911F910F91FF9096
:100DD000EF900895FF920F931F93CF93DF930E949C
:100DE00083060E948F2C0E948D070E94CB070E94D1
:100DF00005390E9430100E942F0F80E00E94A1064A
:100E0000789410E0C0E4D6E00FEFFF24F3940E9442
:100E10000208803129F41F5F1830D8F110E039C082
:100E2000883031F4112311F417E033C0115031C070
:100E3000843099F50E942F0F0E9402088823E1F761
:100E4000112319F40E94372522C0113019F40E9491
:100E500068121DC0123019F40E94092118C0133005
:100E600019F40E94FA2213C0143019F40E94C033FE
:100E70000EC0153019F40E948C2E09C0163019F4DA
:100E80000E947C3804C0173011F40E9423360E945F
:100E90002F0F812F0E94A106BACF803209F0B7CF61
:100EA0000E94030F0E94BE070E94182D0E946A062E
:100EB0000E9402088823E1F71C82802F8A95F1F7AF
:100EC000F092480088950E9483060E948F2C0E9411
:100ED0008D070E9430100E942F0F812F0E94A106C3
:100EE0000E9402088823E1F7802F8A95F1F78FCFBF
:100EF0000F93DF93CF930F92CDB7DEB72FB7298330
:100F0000F8941BBEFC0108ED04BF608389818FBF8C
:100F10000F90CF91DF910F91089580EDE0E8F1E01F
:100F20008183E0E0F9E021E020838DE790E086A373
:100F300097A3E0E2F3E085E08083218388E1828368
:100F4000238380E5848384E681878087E0E0F1E085
:100F500080E8808395E2908B89E5828B938B80E09B
:100F600094E0848B958B80E098E2808F918F128E35
:100F700088E3848F83E0858F168E08951092200376
:100F8000E0E0F1E0108A109200090895E0E2F3E059
:100F9000808F918F08959AE09093B000E0E2F6E0A0
:100FA0008AE1808B81858C7F826081879287E0EAED
:100FB000F0E08281826082837894E0E4F8E087E068
:100FC000808380E593EC86A397A308956894189591
:100FD000CF92EF920F9382FF01E0E82211F0601BA5
:100FE0007109C82211F0600F711D261737070CF424
:100FF000B901641775070CF4BA01CB010F91EF909A
:10100000CF9008958FEF8093400687EFE0E4F6E0FD
:1010100084838FE08A95F1F7209128068091280635
:1010200083FD02C0B4E001C0B0E08FEEE0E4F6E082
:1010300084838FE08A95F1F78091280681FD02C0B4
:10104000A2E001C0A0E08091280683FD02C070E606
:1010500001C070E08FEDE0E4F6E084838FE08A95D4
:10106000F1F78091280681FD02C060EA01C060E0CE
:101070008091280683FD02C050E101C050E08FEB53
:10108000E0E4F6E084838FE08A95F1F7809128060A
:1010900081FD02C040E801C040E08091280683FD48
:1010A00002C030E401C030E08FE7E0E4F6E0848382
:1010B0008FE08A95F1F78091280681FD02C090E2C9
:1010C00001C090E08091280683FD02C088E001C045
:1010D00080E02695209521702B2B2A2B272B262B61
:1010E000252B242B232B292B282BF9F0809160080A
:1010F000909161088D5D9540F8F080912E2D84319E
:1011000018F48F5F80932E2DE0E4F8E010A211A276
:1011100080912E2D813089F0853079F0883069F00A
:101120008A3059F08C3048F407C010922E2DE0E43C
:10113000F8E010A211A201C020EE822F0895FF92C4
:101140000F931F93062F825095E0F92E8F9DC001BB
:10115000112483599D4F0E94820F8CEE92E00E94D1
:10116000820F0F9D80011124C80184519E4F0E945F
:10117000820F88EE92E00E94820F1F910F91FF90E4
:101180000895FF920F931F93062F25E0F22E8F9D57
:10119000C0011124825E9D4F0E94820F85EF92E074
:1011A0000E94820F0F9D80011124C80184519E4F1F
:1011B0000E94820F81EF92E00E94820F1F910F9197
:1011C000FF9008950F931F93CF93DF93EC012FE0CF
:1011D000803A920710F400E006C06AE070E00E94D6
:1011E0007E3BEB0101E010E003C0C85ED3401F5F0F
:1011F000812F805D33E0C83ED307B8F7112309F48F
:1012000080E20E94430F80E304C0C456D0408F5F49
:101210001F5FC436D105C8F7112311F4002329F04C
:101220000E94430F002331F002C080E201C08EE231
:101230000E94430F80E303C02A978F5F1F5FCA306D
:10124000D105D0F7112309F480E20E94430F9E01DB
:10125000205D822F0E94430F002319F48DE60E9427
:10126000430F86E50E94430FDF91CF911F910F91AD
:101270000895CF93DF93EC0197FF07C08DE20E94A2
:10128000430FD095C195DF4F03C080E20E94430F0A
:10129000CE010E94E208DF91CF910895CF92DF92B4
:1012A000EF92FF920F931F93DF93CF930F92CDB7DF
:1012B000DEB77B018C01C42EDD2409C020E839E6AD
:1012C00047E65FEFE20EF31E041F151FD3948D2D2A
:1012D000805D30E8E31636E9F30638E9030730E0CD
:1012E000130760F741E0C41639F4DD2009F480E209
:1012F0000E94620F80E310C0DD2009F480E20E94AA
:10130000430FF8CF20EC3DEB40EF5FEFE20EF31E12
:10131000041F151F8F5FD39430E4E31632E4F30605
:101320003FE0030730E0130768F742E0C41639F4E2
:10133000DD2009F480E20E94620F80E310C0DD200E
:1013400009F480E20E94430FF8CF20E639E74EEF20
:101350005FEFE20EF31E041F151F8F5FD39430EA78
:10136000E31636E8F30631E0030730E0130768F7C9
:1013700043E0C41639F4DD2009F480E20E94620FD4
:1013800080E310C0DD2009F480E20E94430FF8CF13
:1013900020EF38ED4FEF5FEFE20EF31E041F151F35
:1013A0008F5FD39430E1E31637E2F30630E00307B2
:1013B00030E0130768F744E0C41639F4DD2009F47F
:1013C00080E20E94620F80E310C0DD2009F480E219
:1013D0000E94430FF8CF28E13CEF4FEF5FEFE20EA2
:1013E000F31E041F151F8F5FD39438EEE31633E00E
:1013F000F30630E0030730E0130768F745E0C41652
:1014000031F4DD2009F480E20E94620F05C0DD2086
:1014100009F480E20E94430F80E309C02CE93FEF0A
:101420004FEF5FEFE20EF31E041F151F8F5F34E6D0
:10143000E316F1040105110588F746E0C41619F416
:101440000E94620F02C00E94430F90E309C026EF82
:101450003FEF4FEF5FEFE20EF31E041F151F9F5F7C
:101460003AE0E316F1040105110588F78EE299834D
:101470000E94430F998147E0C41621F4892F0E94EE
:10148000620F0BC0892F0E94430F58E0C51629F444
:101490008E2D805D0E94620F04C08E2D805D0E94A3
:1014A000430F0F90CF91DF911F910F91FF90EF901D
:1014B000DF90CF9008950F931F93CF93DF93EC01AC
:1014C000062F10E003C0C051D7421F5F812F805DFF
:1014D00027E2C031D207B8F7013039F4112309F4FB
:1014E00080E20E94620F80E30AC0112309F480E2C7
:1014F0000E94430FF8CFC85ED3408F5F1F5F33E079
:10150000C83ED307C0F7023039F4112309F480E252
:101510000E94620F80E30AC0112309F480E20E9456
:10152000430FF8CFC456D0408F5F1F5FC436D1053C
:10153000C8F7033039F4112309F480E20E94620FE6
:1015400080E309C0112309F480E20E94430FF8CF21
:101550002A978F5F1F5FCA30D105D0F7043031F46E
:10156000112309F480E20E94620F05C0112309F4DF
:1015700080E20E94430F8EE20E94430F9E01205D95
:10158000822F053019F40E94620F02C00E94430F9F
:10159000DF91CF911F910F910895DF92EF92FF920B
:1015A0000F931F937B018C01DD2409C020E639E7EE
:1015B0004EEF5FEFE20EF31E041F151FD3948D2D27
:1015C000805D30EAE31636E8F30631E0030730E0E9
:1015D000130760F7DD2009F480E20E94430F80E3E7
:1015E0000AC020EF38ED4FEF5FEFE20EF31E041F4D
:1015F000151F8F5FD39430E1E31637E2F30630E036
:10160000030730E0130768F7DD2009F480E20E9449
:10161000430F80E30AC028E13CEF4FEF5FEFE20E9B
:10162000F31E041F151F8F5FD39438EEE31633E0CB
:10163000F30630E0030730E0130768F7DD2009F414
:1016400080E20E94430F80E30AC02CE93FEF4FEF96
:101650005FEFE20EF31E041F151F8F5FD39434E675
:10166000E316F1040105110580F7DD2009F480E29D
:101670000E94430F80E30AC026EF3FEF4FEF5FEF7A
:10168000E20EF31E041F151F8F5FD3943AE0E3169A
:10169000F1040105110580F7DD2009F480E20E94C4
:1016A000430F8E2D805D0E94430F1F910F91FF907D
:1016B000EF90DF900895EF92FF920F931F937B01BD
:1016C0008C0197FF0AC010950095F094E094E11CFE
:1016D000F11C011D111D8DE201C080E20E94430F2B
:1016E000C801B7010E94CD0A1F910F91FF90EF90A2
:1016F00008951F93CF93DF93EC0110E003C0C05116
:10170000D7421F5F812F805D27E2C031D207B8F733
:10171000112309F480E20E94430F80E304C0C85EF5
:10172000D3408F5F1F5F33E0C83ED307C0F711235C
:1017300009F480E20E94430F80E304C0C456D04005
:101740008F5F1F5FC436D105C8F7112309F480E20B
:101750000E94430F80E303C02A978F5F1F5FCA3048
:10176000D105D0F7112309F480E20E94430F9E01B6
:10177000205D822F0E94430FDF91CF911F9108952A
:10178000CF93DF93EC0197FF05C0D095C195DF4F54
:101790008DE201C080E20E94430FCE010E94790BCE
:1017A000DF91CF9108950F93DF93CF9300D0CDB702
:1017B000DEB789839A83062F8DEC92E00E94820F18
:1017C00089819A810E94C00B053018F487EC92E061
:1017D00007C00A3018F481EC92E002C08BEB92E073
:1017E0000E94820F0F900F90CF91DF910F9108957B
:1017F0001F93CF93DF93EC0197FF08C0D095C1955D
:10180000DF4F8DE20E94430F10E005C080E2FACF67
:10181000C456D0401F5F812F805DC436D105C4F708
:10182000112309F480E20E94430F80E303C02A974A
:101830008F5F1F5FCA30D105D4F7112309F480E20E
:101840000E94430F9E01205D822F0E94430FDF9173
:10185000CF911F910895FF920F931F938C01F62E45
:1018600085EE92E00E94820FC8010E94F80B81EE83
:1018700092E00E94820F8F2D992787FD90950E94FC
:10188000F80B80E20E94430F1F910F91FF90089583
:101890000F931F93082F10E002C004561F5F812F83
:1018A000805D0436D0F7112309F480E20E94430FD3
:1018B00080E303C00A508F5F1F5F0A30D8F71123FF
:1018C00009F480E20E94430F802F805D0E94430F45
:1018D0001F910F9108951F93182F87FF04C0119532
:1018E0008DE20E94430F812F0E94480C1F910895A2
:1018F000DF92EF92FF920F931F937B018C01D42E06
:1019000088EB92E00E94820FC801B7010E94CD0AC5
:1019100082EB92E00E94820F8D2D0E946B0C8EEA6A
:1019200092E00E94820F1F910F91FF90EF90DF9045
:101930000895EF92FF920F931F93CF93DF93182F89
:101940007B018DED92E00E94820FC12FD0E08E01CD
:1019500000761070FE01E370F0700115110531F48E
:10196000E759FD4F84910E94620F10C0E759FD4F67
:1019700084910E94430F0032110541F4C2FF02C05E
:101980008FE201C08CE50E94620F14C0C2FD02C04C
:101990008CE501C08FE20E94430F0034110551F421
:1019A000C3FD03C087ED92E002C08AED92E00E9481
:1019B000930F09C0C3FD03C081ED92E002C084ED26
:1019C00092E00E94820FC7010E943909DF91CF91F6
:1019D0001F910F91FF90EF9008952F923F924F9299
:1019E0005F926F927F928F929F92AF92BF92CF92AF
:1019F000DF92EF92FF920F931F93DF93CF93CDB7B8
:101A0000DEB76897CDBFDEBF4C015B01442E502E80
:101A1000EF82C8862095E22EFF24C7018770907060
:101A200061E070E06B0102C0CC0CDD1C8A95E2F72E
:101A3000CE822F5F022F10E0C80187709070AB013B
:101A400002C0440F551F8A95E2F74D83225030E0C3
:101A5000C90187709070FB0102C0EE0FFF1F8A95CD
:101A6000E2F7EC83452D4095A42FB0E0CD018770BF
:101A700090706B0102C0CC0CDD1C8A95E2F7CB8222
:101A80004F5F242E3324C10187709070FB0102C088
:101A9000EE0FFF1F8A95E2F7EA83425050E0CA0139
:101AA0008770907002C0660F771F8A95E2F769838E
:101AB000ECE0CE2ED12C71E0672E712C842D90E0BD
:101AC000BC016F5F7F4F69877A87FC013197EB8795
:101AD000FC87B701687F70706D877E87C801887F3B
:101AE00090708F87988BF901E87FF070E98BFA8B03
:101AF0009D01287F30702B8B3C8BB101687F70700B
:101B00006D8B7E8B68EF262E312C242235220C2DF6
:101B10006C2D6C5080E00E941B0FC60143E0880FC3
:101B2000991F4A95E1F78F8B988F12E031E0E32EF1
:101B3000F12CEC20FD20F40151914F015095608172
:101B40006095252F30E0C901887F9070EF89F88D6E
:101B50008E179F0711F040E009C027703070C30155
:101B600002C0880F991F2A95E2F7482F561758F59B
:101B7000252F30E0C901887F9070EF89F88D8E178E
:101B80009F0749F427703070C30102C0880F991F66
:101B90002A95E2F7482B5F5F561750F316C0262FA1
:101BA00030E0C901887F9070EF89F88D8E179F070C
:101BB00049F427703070C30102C0880F991F2A951D
:101BC000E2F7482B6F5F651750F3FFEF5F1609F4DC
:101BD00048C0F50151915F01509560816095252FB6
:101BE00030E0C901887F9070EF89F88D8E179F07CC
:101BF00049F427703070C30102C0880F991F2A95DD
:101C0000E2F7482B561758F5252F30E0C901887F99
:101C10009070EF89F88D8E179F0749F42770307008
:101C2000C30102C0880F991F2A95E2F7482B5F5F16
:101C3000561750F316C0262F30E0C901887F9070E8
:101C4000EF89F88D8E179F0749F427703070C30114
:101C500002C0880F991F2A95E2F7482B6F5F65171E
:101C600050F3212F30E0C9018F709070892B21F43F
:101C7000E114F10409F04068C90183709070892B68
:101C800019F40F3009F44068103409F44868141549
:101C900019F40C3009F44F6069857A8526173707E7
:101CA00029F08B859C852817390719F40C3009F425
:101CB00044609F81191709F44868E8851E1709F4E4
:101CC0004868842F0E94D10E1F5F103809F033CF6F
:101CD00080E00E94D10E10E02D853E854F89588D01
:101CE0002417350711F48E8101C080E0113091F482
:101CF0006F857889EF89F88D6E177F0711F4FD8164
:101D00008F2B29893A894F89588D2417350711F46B
:101D10005C81852B6FEF5616D1F0EB89FC892F89FA
:101D2000388DE217F30709F48B81113081F44D8966
:101D30005E896F89788D4617570711F47A81872B52
:101D4000EF89F88D2E163F0611F4F9818F2B0E9432
:101D5000D10E1F5F143009F0BFCF0894C11CD11CF5
:101D600023E1C216D10439F042E85FEF840E951EDC
:101D7000A40EB51ECCCE6896CDBFDEBFCF91DF914D
:101D80001F910F91FF90EF90DF90CF90BF90AF9099
:101D90009F908F907F906F905F904F903F902F908B
:101DA0000895E0E4F6E09FEF918300000000848353
:101DB000A0E0B6E092E016969C931697E0E8F6E075
:101DC00081E086830000000015969C9385830000C7
:101DD00000000895E0E4F6E09FEF9183000000002A
:101DE0008483A0E0B6E096E016969C931697E0E810
:101DF000F6E081E086830000000015969C938583C1
:101E00000000000008958EEA0E94EA0EE0E4F6E089
:101E10001482E0E0FAE011821082A0E0B6E08FE0E8
:101E200016968C93169783E0E0E8F6E0868380E1CF
:101E300016968C9308950F931F93182F062F829553
:101E40008F7080610E94EA0E812F8F700E94EA0ECF
:101E5000802F806B0E94EA0E1F910F9108950F93BF
:101E60001F9300E080E0602F0E941B0F10E080E0D5
:101E70000E94D10E1F5F1438D1F70F5F083091F721
:101E80001F910F9108950F931F93CF93DF9395E0C8
:101E9000899F80011124075A1D4FC0E0D0E0F8014E
:101EA000EC0FFD1FE4918E2F0E94D10E2196C530BC
:101EB000D105A9F780E00E94D10EDF91CF911F914B
:101EC0000F9108950F931F93CF93DF9395E0899F10
:101ED00080011124075A1D4FC0E0D0E0F801EC0F3B
:101EE000FD1FE4918E2F80950E94D10E2196C53062
:101EF000D105A1F78FEF0E94D10EDF91CF911F91F5
:101F00000F910895CF93DF93EC0105C02196F9015D
:101F100084910E94430F9E01FE0184918823B1F7B2
:101F2000DF91CF910895CF93DF93EC0105C0219607
:101F3000F90184910E94620F9E01FE018491882321
:101F4000B1F7DF91CF9108951F93182F80E090E0B3
:101F50000E94E23B180F1F3110F01EE103C01A303F
:101F600008F41AE081E80E94EA0E812F0E94EA0E2E
:101F700080E090E0612F0E94F23B812F1F91089535
:101F80001F93182F81E090E00E94E23B180F153656
:101F900008F014E6812F90E0E0E0FAE082A793A732
:101FA00081E090E0612F0E94F23B812F1F91089504
:101FB0000F931F93DF93CF9300D0CDB7DEB7A0E090
:101FC000B6E08FE015968C93159711968C93119728
:101FD000E0E8F6E083E0858381838FEFE0E4F6E0DC
:101FE000848380E111968C93119715968C931982B6
:101FF0001A8205C089819A81019689839A83898191
:102000009A8188589341B0F388E0E0E0F6E0868357
:1020100019821A8205C089819A81019689839A83DF
:1020200089819A81845F9140B0F388E0E0E0F6E036
:10203000858300E01AE086E08093000A84E690E061
:10204000F80186A397A380E00E94C00F83E2F80105
:1020500081830F900F90CF91DF911F910F91089581
:102060000E94D80F8FEF9FEF0197F1F781EA0E944E
:10207000EA0E80EC0E94EA0E82EA0E94EA0E8FE2EB
:102080000E94EA0E8FEF8A95F1F780E00E94A40F7C
:1020900084EA0E94EA0E8FEA0E94EA0E86EA0E9413
:1020A000EA0E80EB0E94EA0E80E10E94EA0E80E0D8
:1020B0000E94EA0E80E40E94EA0E08951F93182FF2
:1020C0008150883028F020E030E040E050E012C03D
:1020D00021E030E040E050E00AC0CA01B9012AE046
:1020E00030E040E050E00E94533B9B01AC011F5F99
:1020F000193098F3B901CA011F9108952F923F92A8
:102100004F925F926F927F928F929F92AF92BF9207
:10211000CF92DF92EF92FF920F931F93DF93CF93B3
:10212000CDB7DEB76D97CDBFDEBF6C8F7D8F4D8392
:102130005E830F831887E9860197E0E0F9E086A3C4
:1021400097A38091322D9091332D4C8D5D8D841706
:102150009507B9F0E0E0F1E0809110018F77808B76
:10216000CA01880F991F848B958B80E098E2808F3D
:10217000918F88E3848F83E0858F80911001806840
:10218000808B8C8D9D8D8093322D9093332DDC012F
:102190002A9FC0012B9F900D3A9F900D11247C0126
:1021A00000E010E0C801B70124E630E040E050E074
:1021B0000E94C73B1901E0E0F8E2EB83FC83222791
:1021C00033272219330929833A834424552466246A
:1021D00077244301AA24BB246501C101A0E0B0E03B
:1021E0008A879B87AC87BD878C8D9D8D82199309CB
:1021F0009C0140E050E02E873F87488B598BAC8D87
:10220000BD8DCD01A0E0B0E08A8B9B8BAC8BBD8BEC
:102210004D815E819A0140E050E02E8B3F8B488FCC
:10222000598F8F8198858050984F8A8F9B8FBEC021
:1022300099859923B9F4C401B3012A893B894C8952
:102240005D890E94A53BF901E058FF4FEE0FFF1F8B
:10225000E15DFA4F859194917C010027F7FC009590
:10226000102F5BC0A985A13061F44214530408F417
:102270004EC0E12C50E8F52E5FEF052F5FEF152FD4
:102280004CC0B985B230A1F524143504D8F4E981E5
:10229000FA81BF0180E090E0CB01772766272E8589
:1022A0003F85488959890E94C73BC901DA013FEF40
:1022B000E32E3FE7F32E012D112DE81AF90A0A0B40
:1022C0001B0B2BC0C601B5012A853B854C855D855E
:1022D0000E94C73BC901DA01E12C20E8F22E2FEF62
:1022E000022F2FEF122FE80EF91E0A1F1B1F15C019
:1022F000F985F33009F460C0F43009F45DC0F530BD
:1023000009F45AC0F63049F40E94BE0755C08FEF59
:10231000E82E8FE7F82E012D112DC801B7012E8967
:102320003F89488D598D0E94533B7B018C0120E4ED
:102330003DE043E050E00E94C73B8A8D9B8D820FB9
:10234000931FAB81BC818D939C93BDE781309B072C
:1023500028F0EB81FC811082118209C080509041ED
:1023600030F0EFEFFFE0AB81BC81ED93FC9308947C
:10237000411C511C2B813C812E5F3F4F2B833C83A2
:1023800080E092E0A0E0B0E0680E791E8A1E9B1EFD
:1023900020E030E041E050E0A20EB31EC41ED51E86
:1023A00049815A814F5F5F4F49835A838C8D9D8D40
:1023B0004816590608F43CCF6D96CDBFDEBFCF91CD
:1023C000DF911F910F91FF90EF90DF90CF90BF9022
:1023D000AF909F908F907F906F905F904F903F90C5
:1023E0002F900895CF92DF92EF92FF920F931F9359
:1023F000CF93DF937B01EC01C12CE3E0DE2EC80E0E
:10240000D91ECE01F70160810E94F23B8E010E5F62
:102410001F4FF70163816295607F81818F70682B08
:10242000CE0101960E94F23B2396C801F70162811A
:102430000E94F23B84E090E0E80EF91ECC15DD0529
:1024400001F7DF91CF911F910F91FF90EF90DF90F7
:10245000CF900895AF92BF92CF92DF92EF92FF920A
:102460001F93CF93DF936C01EB01A12CA3E0BA2E55
:10247000A60EB71ECE010E94E23BF6018083F2E079
:10248000EF2EF12CEC0EFD1ECE0101960E94E23BD8
:10249000182FF60181832396C7010E94E23BF601C3
:1024A0008283812F82958F7083831F70118384E0D4
:1024B00090E0C80ED91ECA15DB05E1F6DF91CF9179
:1024C0001F91FF90EF90DF90CF90BF90AF90089555
:1024D0002F923F924F925F926F927F928F929F9234
:1024E000AF92BF92CF92DF92EF92FF920F931F9322
:1024F000DF93CF93CDB7DEB72C97CDBFDEBF8091F2
:1025000010018068E0E0F1E0808B1C861B861A8653
:10251000188619868AE090E08E839F8392E09D83DF
:10252000A3E0B0E0AB83BC831A821982E5C56D2DB0
:1025300070E080E090E0A30192010E94533B672F7E
:10254000782F892F992786169706A806B90620F4B2
:102550006E197F09800B910BAD2DB0E0A050B44DEA
:10256000FB01EE0FFF1FE050F84D20813181C901C2
:10257000880F991F820F931F892F88598C93D394AA
:10258000B0E8DB16A1F680E09CE260E070E040E09D
:102590002C850FEFEB8411E8C12E0E94ED0C0E94F8
:1025A0000208782EE0E48E1711F41A862CC0F0E6AB
:1025B0008F1719F421E02A8726C080E8781609F4DD
:1025C000B7C590EA791619F4A3E0AA871CC0B4E451
:1025D0007B1641F480E098E262E070E00E942A12EB
:1025E000772411C0E4E67E1671F480E067E00E9473
:1025F0001B0F81E79AE00E94820F82E090E060E08A
:1026000078E20E94F21180912F2D833009F0A9C049
:10261000F981FF2309F407C18FEFE0E4F6E0868338
:102620006091042D7091052DE0E0F8E220E034E0A7
:1026300040E054E00FC036952795019620FFFBCF70
:1026400080839A012F5F3F4F88E02030380729F0C0
:102650003196A90180E090E0F1CFCB010F921F925B
:102660002F923F929F92AF92CF92DF92EF92FF9282
:102670000F932F933F934F935F936F937F93AF93FA
:10268000BF93CF93DF93EF93FF936FEF77E0681BD8
:10269000790B880F991F880F991F880F991F880F32
:1026A000991F880F991FEE2422240BE0E0E0FCE242
:1026B000E1920A95E9F7D1E0CD2ED0E0DD2EED2EA6
:1026C000D0EDFD2E21E030E040E050E09924AA2436
:1026D000E0E0F8E2DCE23190FC3209F4F8E2C32DEC
:1026E000088020FF08C0569547953795279500919B
:1026F0002806056F08C056954795379527952C25D0
:102700003D254E255F2558839018A208950EA21CE2
:10271000BB27A89EA12D999EA10DBB1FA99EA00D10
:10272000B11DA60FB71FA0933803B09339030F3F15
:1027300091F2FF91EF91DF91CF91BF91AF917F9196
:102740006F915F914F913F912F910F91FF90EF907B
:10275000DF90CF90AF909F903F902F901F900F9061
:1027600062C0843009F05FC09981992309F45BC08D
:102770008FEFE0E4F6E086838091042D9091052DA3
:102780000F921F92CF92DF92EF92FF920F932F93AF
:102790003F934F935F936F937F93CF93DF936FEF4D
:1027A00077E0681B790B880F991FD1E0CD2ED0E020
:1027B000DD2EED2ED0EDFD2E21E030E040E050E0AA
:1027C000E89420FF08C056954795379527950091C6
:1027D0002806056F08C056954795379527952C25EF
:1027E0003D254E255F25DD27589FC12D499FC10DF1
:1027F000DD1F599FC00DD11DC60FD71FC0933803D1
:10280000D09339030F3FE9F2DF91CF917F916F9120
:102810005F914F913F912F910F91FF90EF90DF903B
:10282000CF901F900F9080E067E00E941B0FAA8559
:10283000AA2309F094C18EE69AE00E94820F1B81C0
:102840006091002D7091012D8091022D9091032DAA
:10285000412F0E944E098AE69AE00E94820F18508A
:102860008091042D9091052D612F0E945B0A87E6CF
:102870009AE00E94820F772009F43EC4872D6B8175
:102880007C8140E050E02DE030E002E0EE24E39473
:10289000A2E0CA2E0E94E8074C018B839C83872DFF
:1028A00060E070E046EF5FEF2AE030E004E0F0E146
:1028B000EF2EE8E0CE2E0E94E807A82EBB24A7FC4E
:1028C000B094CB2CDB2CEB81FC81399798F00091F4
:1028D000042D1091052D8B8185500E945E10A6015C
:1028E00095010E94533B060F171F0093042D109370
:1028F000052D1BC0E090002DF090012D0091022DC0
:102900001091032D8B810E945E10A60195010E94FB
:10291000533BE60EF71E081F191FE092002DF092A0
:10292000012D0093022D1093032D8091042D909181
:10293000052DF3EC81359F0728F01092042D10929D
:10294000052D09C081549C4930F080E49CE98093B6
:10295000042D9093052D8091002D9091012DA09133
:10296000022DB091032DC297A109B1098F5C964841
:10297000A349B34060F082E390E0A0E0B0E0809330
:10298000002D9093012DA093022DB093032D8091E3
:10299000002D9091012DA091022DB091032D815811
:1029A000904FAA4FB24060F080E890EFAAEFB2E0FB
:1029B0008093002D9093012DA093022DB093032DB1
:1029C00029E08216910408F0B2C0A090002DB090CA
:1029D000012DC090022DD090032D60E870EF8AEF9A
:1029E00092E0A60195010E94A53B220F331F441FD0
:1029F000551F20930B2D30930C2D40930D2D50938C
:102A00000E2D205032404040504060F080E092E077
:102A1000A0E0B0E080930B2D90930C2DA0930D2D92
:102A2000B0930E2DE0900B2DF0900C2D00910D2DFC
:102A300010910E2D60E070E28CEB9EEBA8019701E7
:102A40000E94A53BCA01B901A60195010E94A53BC0
:102A50002093072D3093082D4093092D50930A2D74
:102A600060E070E28CEB9EEB0E94A53BCA01B901CD
:102A7000A80197010E94A53BC901DA017C018D01E3
:102A800091E8E91690EFF9069AEF090792E0190725
:102A900000F180E290E0A0E0B0E08093072D9093F9
:102AA000082DA093092DB0930A2D82E090E0A0E0BC
:102AB000B0E080930B2D90930C2DA0930D2DB0932F
:102AC0000E2D30E8E32E30EFF32E3AEF032F32E0F5
:102AD000132F8091072D9091082DA091092DB09171
:102AE0000A2D8030E0E09E07E1E0AE07E0E0BE079F
:102AF00070F0B695A795979587958093072D90933D
:102B0000082DA093092DB0930A2D82E001C081E029
:102B10008093000980E066E00E941B0F84E69AE043
:102B20000E94820FC801B701482D0E944E09609192
:102B30000B2D70910C2D4091042D5091052D20915D
:102B4000062D0091302D1091312D8091072D9091FF
:102B5000082D30E0E0902F2D0E947E10CAC2FA8529
:102B6000F13009F0C3C080912F2D853009F06CC081
:102B70008AE59AE00E94820F888599850E94F80B69
:102B800086E59AE00E94820F8E819F818050984056
:102B90000E94C00B20910B2D30910C2D872D688544
:102BA000798540E050E001E0EE24E394B2E0CB2EE2
:102BB0000E94E8075C018887998772FC09C0FC01C4
:102BC000EE0FFF1FE050F84D808191818E839F832F
:102BD000872D6E817F8140E050E020E030E108E207
:102BE000F0E1EF2EE8E0CE2E0E94E8078E839F836F
:102BF000F501EE0FFF1FE050F84D80839183B50182
:102C000080E090E0982F872F762F6627AD814A2F9E
:102C100050E020910B2D30910C2DF9014E9F900129
:102C20004F9F300D5E9F300D112440E050E00E9418
:102C3000A53B2E5F2B878E819F8106E0959587951A
:102C40000A95E1F78C8755C280E59AE00E94820FD1
:102C50008091062D0E94480C87E49AE00E94820F22
:102C60008091302D9091312D0E94C00B772009F476
:102C700062C26091062D872D70E041E050E023E6AE
:102C800030E003E0EE24E39412E0C12E0E94E80756
:102C90008093062D6091302D7091312D872D40E36A
:102CA00058EF20ED37E004E1B0E1EB2EA8E0CA2EAA
:102CB0000E94E8078C018093302D9093312D609114
:102CC0000B2D70910C2D4091042D5091052D2091CC
:102CD000062D8091072D9091082D30E0E0902F2D4A
:102CE0000E947E10F0E8FC871B8603C22A852230F2
:102CF00009F09BC183E0AA81A89FC00111248752DB
:102D00009B4F0E94820F80E49AE00E94820F809184
:102D10000F2D24E6829FC0011124880F892F881F60
:102D2000990B91950E94480C8AE39AE00E94820FC9
:102D30008091042D9091052D60E00E945B0A51C1A5
:102D40000E940208782EBA81BB2309F092C08090BD
:102D5000072D9090082DA090092DB0900A2DB40158
:102D600080910F2D90E09695879596958795809602
:102D7000A0E0B0E088159905AA05BB0508F470C06D
:102D8000C0900B2DD0900C2DE0900D2DF0900E2DBD
:102D9000E4E0CE16D104E104F10408F461C0880C2B
:102DA000991CAA1CBB1CF694E794D794C794409135
:102DB000042D5091052D2091062D0091302D10915C
:102DC000312DC401B60130E0E0902F2D0E947E101D
:102DD0008091072D9091082DA091092DB0910A2D79
:102DE000880F991FAA1FBB1FBC013AC00E94222D49
:102DF0007C0120910F2D30E040E050E0C601B5018C
:102E00000E94533B0027F7FC0095102FA801970163
:102E10000E94533B42E195958795779567954A9532
:102E2000D1F76A0D7B1D8C1D9D1D6030F0E07F0782
:102E3000F1E08F07F0E09F072CF06FEF7FEF80E06D
:102E400090E009C0603271058105910524F460E2CB
:102E500070E080E090E0609326097093270903C03A
:102E60005B01CC24DD240E940208882309F4BECF34
:102E7000B8C02A81213009F05FC058C0E090042D0D
:102E8000F090052D00E010E00E94222DAA2797FD6A
:102E9000A095BA2FBC01CD01A80197010E94533B18
:102EA00033E095958795779567953A95D1F7209179
:102EB0000F2D30E040E050E00E94533B2FE095950D
:102EC0008795779567952A95D1F76E0D7F1D801FA1
:102ED000911F97FF04C060E070E080E090E04091B7
:102EE000072D5091082DE0910B2DF0910C2D6B01C9
:102EF0007C0181E4C8168CE9D80680E0E80680E011
:102F0000F80634F0B0E4CB2EBCE9DB2EE12CF12C3A
:102F10002091062D0091302D1091312DCA01BF0155
:102F2000A60130E0E0902F2D0E947E100E94020842
:102F3000882309F4A3CF55C09A81923009F051C07B
:102F400060910F2D70E080E090E02091072D30918E
:102F5000082D4091092D50910A2D0E94533B7B0171
:102F60008C013AC0992717FD9A95812F702F6F2DEC
:102F700060957095809590956E0D7F1D801F911FB7
:102F80002091072D3091082D4091092D50910A2D47
:102F9000621773078407950738F460910F2D70E06E
:102FA00080E090E00E94533B7B018C016030A0E008
:102FB0007A07A1E08A07A0E09A0734F0FFEFEF2E2E
:102FC000FFEFFF2E012D112DE0922609F092270927
:102FD0008FEF9FE00197F1F70E940208882309F420
:102FE000C1CF772009F4ACCE60910F2D872D70E012
:102FF00041E050E02FEF30E003E0E0E1EE2E98E01A
:10300000C92E0E94E80780930F2D872D6A8170E0FA
:1030100040E050E022E030E001E0EE24E39412E0F2
:10302000C12E0E94E8078A8364C083E39AE00E946D
:10303000820F80912F2D2BE0829FC00111248E5191
:103040009B4F0E94820F8FE29AE00E94820F8D8137
:103050000E94480C172D73FE11C080912F2D8150B6
:1030600080932F2D8F5F19F486E080932F2D809110
:103070002F2D853011F40E948D07198214FF0DC089
:1030800080912F2D8F5F80932F2D8150863020F0DF
:1030900010922F2D0E948D07198212FF19C0609186
:1030A0000B2D70910C2D4091042D5091052D2091E8
:1030B000062D0091302D1091312D8091072D90918A
:1030C000082D30E0E0902F2D0E947E10B1E0B983F2
:1030D000872D6D8170E041E050E024E030E001E0B8
:1030E000EE24E394B2E0CB2E0E94E8078D83E3E068
:1030F000EA87F0E27F1619F1E0900B2DF0900C2D8D
:1031000000910D2D10910E2D2D81622F70E080E029
:1031100090E0A80197010E94533B2B013C0147011D
:103120005801089481089108A108B108DD24FFC95D
:1031300082E08A8768CA90E89C871B86DDCF2C9640
:10314000CDBFDEBFCF91DF911F910F91FF90EF9028
:10315000DF90CF90BF90AF909F908F907F906F90B7
:103160005F904F903F902F900895611571058105F4
:10317000910511F480E0089520E005C096958795AB
:10318000779567952C5F6830710581059105B0F7DB
:10319000862F8370820F0895009711F480E00895C0
:1031A00020E003C0969587952C5F88309105D0F775
:1031B0008370820F08952F923F924F925F926F9289
:1031C0007F928F929F92AF92BF92CF92DF92EF92B7
:1031D000FF920F931F93DF93CF93CDB7DEB7EA979C
:1031E000CDBFDEBF1C015B018C0100501C4F09A745
:1031F0001AA78B8B9C8B8C0144245524ADEBCA2ED3
:10320000A9EEDA2EA7E0EA2EF12CD8012D913C91FF
:10321000442737FD4095542FF201EE7FE15DF94FD1
:1032200065917491660F771FCB01E3E0880F991FBA
:10323000EA95E1F7861B970BAA2797FDA095BA2F71
:1032400036014701681A790A8A0A9B0AC401B30148
:103250000E94533BBC01992777FD9095892FD80197
:103260006D937D938D010894411C511CB0E04B1669
:10327000B4E05B0651F6A10160E070E0A0E8EA2E40
:10328000A7E0FA2EE20CF31C4DC02501420E531E9E
:10329000F60180819181F201808391838D919C91CF
:1032A0001197F801819391938F01F4E06F2E712CA7
:1032B000C60CD71C2E5F3F4F14962038310529F7D6
:1032C000DA01A050BF4F40585F4F9B01FA0106C082
:1032D0008D919D91819391932F5F3F4F03E0203813
:1032E0003007B0F3D70120E030E0F501E20FF31F23
:1032F000808191818D939D932E5F3F4F20383105C2
:10330000A1F7605C7F4F12E06030710759F480E0F4
:1033100091E01D8A1E8A21E030E02FA338A78DA3FB
:103320009EA34DC1E2E0CE2ED12CC40ED51EDA01F3
:103330008A0120E030E0A9CFE9ADFAADEE0FFF1F22
:10334000E15DFA4F85919491880F892F881F990B21
:10335000AC01662757FD6095762F4FA758AB69AB38
:103360007AABE9ADFAADEE0FFF1FE15DF94F859144
:103370009491880F892F881F990B3C01882477FC32
:103380008094982C6BA67CA68DA69EA620E030E0AB
:1033900040E0C901880F991F29AD3AAD2170307006
:1033A000282B392B89AC9AAC9694879489AE9AAE27
:1033B0004F5F483071F72F5F3F4F19AE1AAE40E0B4
:1033C00089AD9AAD880F991F890101701070082B83
:1033D000192B09AF1AAF369527954F5F483081F703
:1033E00029813A8120503C4F2B8F3C8F4F8D58A123
:1033F0004D835E836D8D7E8D6F83788789819A8101
:103400008D879E871BAA1CAA92C0AD81BE816D903C
:103410007C90882477FC8094982CEF81F885A0809C
:10342000B180CC24B7FCC094DC2CAD85BE854D901A
:103430005C906BA57CA58DA59EA5A40193010E941F
:10344000533BE72EF82E092F112707FD1A956FA57C
:1034500078A989A99AA9A60195010E94533B672FD3
:10346000782F892F992787FD9A95E60EF71E081F5A
:10347000191FC201AA2797FDA095BA2FE80EF91EC1
:103480000A1F1B1F15950795F794E7944E185F08C0
:10349000ED81FE8141925192ED83FE83AD85BE8523
:1034A000ED92FD92AD87BE87EB8DFC8D4080518003
:1034B0006BA57CA58DA59EA50E94533BE72EF82EFB
:1034C000092F112707FD1A95C201AA2797FDA0957C
:1034D000BA2FE80EF91E0A1F1B1F6FA578A989A92C
:1034E0009AA9A40193010E94533B672F782F892F3B
:1034F000992787FD9A95E61AF70A080B190B159577
:103500000795F794E7944E185F08AF81B8854D9200
:103510005D92AF83B887EB8DFC8DE192F192EB8FDA
:10352000FC8F0BA91CA90F5F1F4F0BAB1CAB2BA96A
:103530003CA94DA15EA12417350708F466CF6F8919
:10354000788D6F5F7F4F6F8B788F89819A81A98D7E
:10355000BA8D8A0F9B1F89839A83ED8DFE8DEA0FAA
:10356000FB1FED8FFE8F6F8C78A06A0E7B1E6F8E17
:1035700078A28F88988CEFA0F8A48E149F0408F48A
:10358000DBCE0D891E890F5F1F4F0D8B1E8B0930FF
:10359000110541F409A51AA5610140E050E0EE24AF
:1035A000FF24B7C02FA138A5220F331F2FA338A7A0
:1035B0004DA15EA1569547954DA35EA3CA016DA18D
:1035C0007EA1660F771F660F771F698F7A8FDC01E8
:1035D000A050BE4FAA0FBB1FA20DB31DAD8FBE8F53
:1035E000FC01EE0FFF1FE20DF31DEF8FF8A3298200
:1035F0003A821F8A188E19AE1AAEBBCFC901880F46
:10360000991F9A0121703070282B392B56954795B8
:103610006F5F693099F72E153F0508F46CC097016C
:10362000E0E0F0E040E0CF01880F991FF901E17080
:10363000F070E82BF92B369527954F5F493099F7B5
:10364000EE0FFF1FE20DF31D608171819701E0E035
:10365000F0E040E0CF01880F991FF901E170F070B0
:10366000E82BF92B369527954F5F493099F7EE0FE8
:10367000FF1FE20DF31DD6018D919C911197808360
:1036800091836D937C939701E0E0F0E040E0CF01FF
:10369000880F991FF901E170F070E82BF92B36952E
:1036A00027954F5F493099F7EE0FFF1F69A47AA461
:1036B000E60DF71D608171819701E0E0F0E040E0E8
:1036C000CF01880F991FF901E170F070E82BF92BF9
:1036D000369527954F5F493099F7EE0FFF1F89A464
:1036E0009AA4E80DF91DD8018D919C9111978083C2
:1036F00091836D937C93A7014F5F5F4F0E5F1F4FC8
:10370000E2E0F0E0CE0EDF1EF2E040305F0729F08D
:103710007A0120E030E060E071CFD1018D919C9181
:103720001197E9A5FAA520813181820F931F8D930E
:103730009C931197108211822D913C91442737FD63
:103740004095542FCA01B9010E94533BE6E095957C
:10375000879577956795EA95D1F70E94B518D101BD
:103760008C9311961C92F101E250FC4FE9AFFAAF35
:1037700081010E5F1B4F0BA31CA391012250384FF8
:1037800029A33AA341E050E04B835C83AB89BC8919
:1037900012962D913C911397E9ADFAADA081B181BC
:1037A000C9018A1B9B0B3C01882477FC8094982CD0
:1037B0006F86788A898A9A8AEBA1FCA160817181DF
:1037C000E9A1FAA180819181AC01460F571F3A010E
:1037D000882477FC8094982C69867A868B869C86D0
:1037E0004B01881A990A8FAA98AE8B819C81969575
:1037F0008795880F991FFC01E15DFA4FA590B49061
:10380000AA0CAB2CAA1CBB08CC24B7FCC094DC2CA3
:10381000FC01E15DF94F65907490660C672C661CA5
:103820007708882477FC8094982C7D01E20EF31EA3
:10383000EDAAFEAAC401B30129853A854B855C85B2
:103840000E94533B272E382E492E552447FC5A946C
:10385000C601B5012F85388949895A890E94533B91
:10386000E72EF82E092F112707FD1A958DA99EA97D
:10387000820D931D8E199F09AB89BC8912968D9379
:103880009C931397C601B50129853A854B855C85C4
:103890000E94533BA72EB82EC92EDD24C7FCDA9414
:1038A000C401B3012F85388949895A890E94533B45
:1038B000672F782F892F992787FD9A952FA938ADE3
:1038C0002A193B09261B370BEBA1FCA1208331836E
:1038D0006DA87EA8E60CF71CE218F308A9ADBAADF6
:1038E000ED92FC928FA998AD909581959F4F8A1982
:1038F0009B09861B970BE9A1FAA180839183ABA159
:10390000BCA1AD90BD90ABA3BCA3CC24B7FCC0942C
:10391000DC2CEB89FC8922813381442737FD4095DB
:10392000542FCA01B9010E94533B7B018C01C6018F
:10393000B501A60195010E94533BE60EF71E081F34
:10394000191FEF2CF02E012F112707FD1A95C80122
:10395000B7010E94B518AB89BC8912968C93129757
:1039600013961C92E9A1FAA1A080B180CC24B7FCE7
:10397000C094DC2CA9ADBAAD2D913C91442737FD04
:103980004095542FCA01B9010E94533B7B018C0121
:10399000C601B501A60195010E94533BE60EF71E34
:1039A000081F191FEF2CF02E012F112707FD1A9564
:1039B000C801B7010E94B518E9ADFAAD8083118244
:1039C0000B811C810F5F1F4F0B831C832B893C894C
:1039D0002E5F3F4F2B8B3C8B3297E9AFFAAF49A15B
:1039E0005AA14250504049A35AA30150114009F036
:1039F000CDCEEA96CDBFDEBFCF91DF911F910F9163
:103A0000FF90EF90DF90CF90BF90AF909F908F90FE
:103A10007F906F905F904F903F902F9008952F92DE
:103A20003F924F925F926F927F928F929F92AF924E
:103A3000BF92CF92DF92EF92FF920F931F93DF938B
:103A4000CF93CDB7DEB7EA97CDBFDEBF1C018C01A7
:103A500000501E4F0FA318A78D8B9E8B8C016624E0
:103A60007724BDEBCB2EB9EEDB2EB7E0EB2EF12C9D
:103A7000D8012D913C91442737FD4095542FF301F7
:103A8000EE7FE15DF94F65917491660F771FCB0171
:103A9000F3E0880F991FFA95E1F7861B970BAA2789
:103AA00097FDA095BA2F46015701881A990AAA0ACC
:103AB000BB0AC501B4010E94533BBC01992777FDA5
:103AC0009095892FD8016D937D938D010894611C89
:103AD000711CB0E06B16B1E07B0651F6D101F1012B
:103AE00020E030E08D919C91119780839183E0508C
:103AF000FE4F12968D919C911397808391832F5F37
:103B00003F4F1496EE5FF1402038310559F780E4BD
:103B100090E01B8A1C8AE1E0F0E0EDA3FEA38BA3FA
:103B20009CA345C189AD9AAD969587959695879545
:103B3000880F991FFC01E15DFA4F25913491220F06
:103B4000232F221F330B4901AA2497FCA094BA2CDF
:103B50008DA69EA6AFA6B8AAFC01E15DF94F85919E
:103B60009491880F892F881F990B7C010027F7FCFF
:103B70000095102FE9A6FAA60BA71CA720E030E0BD
:103B800040E0C901880F991F29AD3AAD217030700E
:103B9000282B392B09AD1AAD1695079509AF1AAF29
:103BA0004F5F463071F72F5F3F4F19AE1AAE40E0BE
:103BB00089AD9AAD880F991FB90161707070682B3B
:103BC000792B69AF7AAF369527954F5F463081F7ED
:103BD00089899A8980509E4F898F9A8FAD8DBE8D2D
:103BE000AD83BE83EB8DFC8DEB83FC8389889A8843
:103BF0008B869C8619AA1AAA92C0AD81BE816D904F
:103C00007C90882477FC8094982CEB81FC81A080A8
:103C1000B180CC24B7FCC094DC2CAB85BC854D9026
:103C20005C9069A57AA58BA59CA5A40193010E942F
:103C3000533BE72EF82E092F112707FD1A956DA586
:103C40007EA58FA598A9A60195010E94533B672FD9
:103C5000782F892F992787FD9A95E60EF71E081F62
:103C6000191FC201AA2797FDA095BA2FE80EF91EC9
:103C70000A1F1B1F15950795F794E7944E185F08C8
:103C8000ED81FE8141925192ED83FE83AB85BC852F
:103C9000ED92FD92AB87BC87E98DFA8D4080518013
:103CA00069A57AA58BA59CA50E94533BE72EF82E0B
:103CB000092F112707FD1A95C201AA2797FDA09584
:103CC000BA2FE80EF91E0A1F1B1F6DA57EA58FA532
:103CD00098A9A40193010E94533B672F782F892F45
:103CE000992787FD9A95E61AF70A080B190B15957F
:103CF0000795F794E7944E185F08AB81BC814D920D
:103D00005D92AB83BC83E98DFA8DE192F192E98FEC
:103D1000FA8F09A91AA90F5F1F4F09AB1AAB29A97E
:103D20003AA94BA15CA12417350708F466CF6BA90B
:103D30007CA96F5F7F4F6BAB7CAB89899A89AF8918
:103D4000B88D8A0F9B1F898B9A8BEB8DFC8DEA0FA8
:103D5000FB1FEB8FFC8F8D8C9E8C8A0E9B1E8D8E95
:103D60009E8EABA8BCA8EDA0FEA0AE14BF0408F4C4
:103D7000D9CE0B891C890F5F1F4F0B8B1C8B073013
:103D8000110541F40FA118A5610140E050E0EE24B7
:103D9000FF24B6C02DA13EA1220F331F2DA33EA3A9
:103DA0004BA15CA1569547954BA35CA3CA016BA19F
:103DB0007CA1660F771F660F771F6F8B788FDC01F2
:103DC000A050BF4FAA0FBB1FA20DB31DAB8FBC8F5E
:103DD000FC01EE0FFF1FE20DF31DED8FFE8F298A10
:103DE0003A8A1BAA1CAA19AE1AAEBBCFC901880F0A
:103DF000991F9A0121703070282B392B56954795C1
:103E00006F5F673099F72E153F0508F46CC0970176
:103E1000E0E0F0E040E0CF01880F991FF901E17088
:103E2000F070E82BF92B369527954F5F473099F7BF
:103E3000EE0FFF1FE20DF31D608171819701E0E03D
:103E4000F0E040E0CF01880F991FF901E170F070B8
:103E5000E82BF92B369527954F5F473099F7EE0FF2
:103E6000FF1FE20DF31DD6018D919C911197808368
:103E700091836D937C939701E0E0F0E040E0CF0107
:103E8000880F991FF901E170F070E82BF92B369536
:103E900027954F5F473099F7EE0FFF1F8FA098A42B
:103EA000E80DF91D608171819701E0E0F0E040E0EC
:103EB000CF01880F991FF901E170F070E82BF92B01
:103EC000369527954F5F473099F7EE0FFF1FAFA04C
:103ED000B8A4EA0DFB1DD8018D919C9111978083A8
:103EE00091836D937C93A7014F5F5F4F0E5F1F4FD0
:103EF000E2E0F0E0CE0EDF1E4038510529F07A01F5
:103F000020E030E060E072CFD1018D919C9111975B
:103F1000EFA1F8A520813181820F931F8D939C938F
:103F20001197108211822D913C91442737FD4095C5
:103F3000542FCA01B9010E94533B06E0959587951D
:103F4000779567950A95D1F70E94B518D1018C93A2
:103F500011961C92F101E250FF4FE9AFFAAF8101D7
:103F60000E5F1D4F09A31AA3910122503D4F2F8FC1
:103F700038A341E050E049835A83AD89BE89129647
:103F80002D913C911397E9ADFAADA081B181C901A2
:103F90008A1B9B0B4C01AA2497FCA094BA2C8D86FB
:103FA0009E86AF86B88AE9A1FAA160817181EF8D02
:103FB000F8A180819181AC01460F571F4A01AA24C4
:103FC00097FCA094BA2C8F829886A986BA865B014A
:103FD000A81AB90AAFAAB8AE89819A8113E096955A
:103FE00087951A95E1F7880F991FFC01E15DFA4F5B
:103FF000A590B490AA0CAB2CAA1CBB08CC24B7FC8F
:10400000C094DC2CFC01E15DF94F65907490660C66
:10401000672C661C7708882477FC8094982C7D0197
:10402000E20EF31EEDAAFEAAC401B3012F8138856A
:1040300049855A850E94533B272E382E492E5524F8
:1040400047FC5A94C601B5012D853E854F85588998
:104050000E94533BE72EF82E092F112707FD1A95D2
:104060008DA99EA9820D931D8E199F09AD89BE89C8
:1040700012968D939C931397C601B5012F813885B5
:1040800049855A850E94533BA72EB82EC92EDD24A0
:10409000C7FCDA94C401B3012D853E854F8558894C
:1040A0000E94533B672F782F892F992787FD9A9578
:1040B0002FA938AD2A193B09261B370BE9A1FAA114
:1040C000208331838DA89EA8E80CF91CE218F30820
:1040D000A9ADBAADED92FC928FA998AD909581955E
:1040E0009F4F8A199B09861B970BEF8DF8A1808340
:1040F0009183A9A1BAA1AD90BD90A9A3BAA3CC24E4
:10410000B7FCC094DC2CED89FE89228133814427E1
:1041100037FD4095542FCA01B9010E94533B7B01E2
:104120008C01C601B501A60195010E94533BE60E24
:10413000F71E081F191FEF2CF02E012F112707FD66
:104140001A95C801B7010E94B518AD89BE891296AB
:104150008C93129713961C92EF8DF8A1A080B180DA
:10416000CC24B7FCC094DC2CA9ADBAAD2D913C9108
:10417000442737FD4095542FCA01B9010E94533B93
:104180007B018C01C601B501A60195010E94533B3C
:10419000E60EF71E081F191FEF2CF02E012F112716
:1041A00007FD1A95C801B7010E94B518E9ADFAAD2F
:1041B0008083118209811A810F5F1F4F09831A833F
:1041C0002D893E892E5F3F4F2D8B3E8B3297E9AF75
:1041D000FAAF4F8D58A1425050404F8F58A3013431
:1041E000110509F0CACEEA96CDBFDEBFCF91DF91AF
:1041F0001F910F91FF90EF90DF90CF90BF90AF9005
:104200009F908F907F906F905F904F903F902F90F6
:1042100008952F923F924F925F926F927F928F926A
:104220009F92AF92BF92CF92DF92EF92FF920F9345
:104230001F93CF93DF9380E098E0E0E0F1E084A368
:1042400095A3BB24AA2499248824212CA1E03A2EEA
:10425000F6E46F2E712CE0E44E2EE9E05E2EC0E015
:10426000D2E0BB2021F08091132D8730B0F488205C
:10427000A1F4809120018068F10180A37894F1E09D
:10428000F0934800889580E090E260E04091372DFF
:1042900020E00E94792D992493948091200187FD3C
:1042A0002FC0992031F080E090E260E07CE20E9433
:1042B000DB184091342D5091352D8091362D39E603
:1042C000381B20E0DA01A20FB11DFD01EE0FFF1F28
:1042D000E050F04E808191818734910514F0608226
:1042E0007182E22FF0E0E050F44DAA0FBB1FA05006
:1042F000B04E8C91830F80832F5F203819F799245B
:104300000E940208B82E4091342D4195E090112D65
:10431000E39480E09CE260E070E02091362D0FEFA6
:1043200031E8C32E0E94ED0C80E067E00E941B0F75
:1043300040E4B41681F050E6B51619F4AA24A3940B
:1043400053C080EAB81609F4D4C0AA2009F049C0C5
:10435000BB2009F43EC06091132D8B2D70E042E02C
:1043600050E02EE030E001E092E0E92ECC24C3944E
:104370000E94E8078093132D6091372D8B2D70E0FC
:1043800040E050E026E030E018E0E12EB0E1CB2E36
:104390000E94E807382F8093372D2091132DE22FAC
:1043A000F0E0EE0FFF1FE35EF44F85919491F20170
:1043B00086A397A3283010F087E006C0253018F0B8
:1043C000F4E0FC8302C082E08C83330F330F336050
:1043D00038A38091132D6091372D0E949F08AA2445
:1043E0007DC041E0A41669F56091342D7091352DA2
:1043F0008B2D40E050E020E831E005E0E2E0EE2ED9
:10440000CC24C3940E94E8078093342D9093352DDB
:104410006091362D8B2D70E040E050E028E230E0D6
:1044200004E098E0E92E10E1C12E0E94E807682F11
:104430008093362D8091342D9091352D0E942B0C38
:104440004DC06091112D7091122D8B2D40E050E0E8
:1044500020E830E005E0EE24E394B2E0CB2E0E94A9
:10446000E8076C018093112D9093122D8091132DEC
:10447000E82FF0E0EE0FFF1FE35EF44FE590F490BD
:104480006091342D7091352D6C0D7D1D80E090E094
:1044900024E83EE140E050E00E94533B00E010E0A1
:1044A000A80197010E94A53BCA01B9012091362DB0
:1044B00030E020583040E0E0FCE2CE0EDF1EF60196
:1044C0004081240F311DA901440F551F420F531F76
:1044D00055954795559547950E94780CF0E8BF167D
:1044E00019F441E08426BFCE50E2B51609F0B9CEEA
:1044F00003C012E0A12EA5CFDF91CF911F910F91A4
:10450000FF90EF90DF90CF90BF90AF909F908F90F3
:104510007F906F905F904F903F902F9008951895E7
:104520007F928F929F92AF92BF92CF92DF92EF9243
:10453000FF920F931F93CF93DF93782E892E962EA1
:10454000EE24FF2481E0A82EB12C80E06E2D0E9485
:104550001B0F8E2D8F5C0E94430F86E00E94D10EB0
:1045600065010E2C02C0CC0CDD1C0A94E2F7872DED
:10457000982D8C01C1E0D0E0F80181918F0190E08D
:104580008C219D21892B11F428E001C021E0F80144
:10459000808190E08C219D21892B21F023FF04C094
:1045A000276002C020FD2E60CE018F709070892B95
:1045B00009F420669C1609F42269822F0E94D10E0C
:1045C0002196CE37D105C1F60894E11CF11CF8E024
:1045D000EF16F10409F0B9CFDF91CF911F910F9140
:1045E000FF90EF90DF90CF90BF90AF909F908F9013
:1045F0007F9008952F923F924F925F926F927F9299
:104600008F929F92AF92BF92CF92DF92EF92FF92E2
:104610000F931F93CF93DF9380E090E0FC01E05075
:10462000F04E8083019627E08F3F9207B9F7BB24B5
:10463000C0E0D0E09924AA24A39410E08824DD24CB
:1046400066246A94762C3324339495E0292E80E4F2
:10465000482E86E0582E0E940208F82E2A2D30E0BF
:10466000DE01A050B04EE0E0FCE28C918193A20FFD
:10467000B31F8CE2EE37F807C1F7C3010197F1F7DA
:1046800080E09CE2692D0E949022FF2019F088248E
:104690008A9402C08820F9F280E067E00E941B0F34
:1046A000E0E4FE1609F0AFC080E09BE00E94820FBC
:1046B0000E9402088823E1F7C3010197F1F784E221
:1046C00067E00E941B0F0E940208F82EB29CC001F6
:1046D00011248658954F0E94820F8AEF9AE00E941B
:1046E000820FF1E0FF1621F4BB2049F0BA9407C015
:1046F00022E0F21621F48DE08B1508F0B394C3018B
:104700000197F1F7E0E4FE16D1F681EF9AE00E94FE
:10471000820F0E9402088823E1F72FEFF20126831F
:10472000C3010197F1F7EB2DF0E0EE0FFF1FE0540E
:10473000F54F459154912091382D2093B000E0E63B
:10474000F6E082E1808B9091392D9093B00081E169
:10475000808B809169068C7F82608187922B928703
:104760008091A2008260E0EAF0E0828330913A2DED
:1047700020913B2D992369F03092480088958091D3
:10478000280681FF12C08091680683238217B1F743
:104790000CC03092480004C08091280681FF05C0FB
:1047A0008091680683238217B9F74115510581F47A
:1047B00080E098E00F93EF93FF93E0E0F0E2009148
:1047C000680601930197D9F7FF91EF910F9129C0E6
:1047D000A0E0B8E09A010F938F939F93EF93FF931C
:1047E000E0E0F0E2009168060193000000000000A4
:1047F000C9010197F1F71197A9F7FF91EF919F91E7
:104800008F910F910EC080E6F81611F410E00BC0E6
:10481000E0EAFE1611F411E037C0F0E8FF1609F4E3
:1048200055C0112379F58EEE9AE00E94820F80E048
:1048300098E06A2D70E00E94923B9B012D5730401A
:104840008F2DBE0140E050E004E1B2E0EB2ECC241D
:10485000C3940E94E807EC010E94790B8BEE9AE06A
:104860000E94820F8F2D6A2D70E041E050E020E120
:1048700030E002E0A8E0EA2EF0E1CF2E0E94E80747
:10488000A82E21C0113011F586EE9AE00E94820F09
:104890008F2D692D70E040E050E020E830E004E02A
:1048A000EE24E394E2E0CE2E0E94E807982E90E0FA
:1048B0000E94790B82EE9AE00E94820FE92DF0E0CF
:1048C000E050F44D80810E94480C82C08CED9AE04B
:1048D0000E94820F11E0EE2480913A2D812351F441
:1048E0008091382D812371F48091392D812351F4E9
:1048F00000E00FC080913B2D812311F401E009C03D
:1049000002E007C08091392D812311F404E001C039
:1049100003E0E02FF0E0ED1469F4EC5EF24D8081ED
:104920000E94620F28E0F21651F40F5F053039F44F
:1049300000E005C0EC5EF24D80810E94430F812FA4
:10494000809590913A2D982390933A2D40913B2D4C
:10495000482340933B2D3091392D38233093392D06
:104960002091382D28232093382D013021F4912BCC
:1049700090933A2D14C0023039F4912B90933A2D34
:10498000412B40933B2D0BC0033021F4312B30934E
:10499000392D05C0043019F4212B2093382DE394D0
:1049A00088E0E81611F0110F97CFE2E0FE1629F427
:1049B000D394F7E0FD1588F011C021E0F21639F428
:1049C000DD2019F497E0D92E09C0DA9407C012E06F
:1049D00080E2F81629F08A943ECEDD2412E0FBCF67
:1049E000DF91CF911F910F91FF90EF90DF90CF90CB
:1049F000BF90AF909F908F907F906F905F904F90FF
:104A00003F902F9008951F920F920FB60F9208B605
:104A10000F92112418BE8F93EF93FF93E0E0F1E023
:104A200081A1806281A3FF91EF918F910F9008BEC9
:104A30000F900FBE0F901F9018951F920F920FB6F8
:104A40000F9208B60F92112418BE8F93EF93FF9325
:104A5000E0E0F1E081A9806281ABFF91EF918F915D
:104A60000F9008BE0F900FBE0F901F9018952F92B9
:104A70003F924F925F926F927F928F929F92AF92EE
:104A8000BF92CF92DF92EF92FF920F931F93DF932B
:104A9000CF93CDB7DEB7C954D040CDBFDEBF809134
:104AA0003C2DE82FF0E0E95FF44F9491E0913D2D2B
:104AB000F0E0E95FF44FE49119821A821B821C82B4
:104AC00081E0A0E0B6E011968C9399A7E8A71FA219
:104AD0001E8A1EA21DA21CA21BA22FA1222321F00E
:104AE00080911C2D8730F0F43BA13323D9F44E89FB
:104AF000442329F0809130018068809330018091B7
:104B00002001806880932001789451E05093480000
:104B1000889580E090E26E8940913C2D20913D2D5A
:104B20000E94792D0E9402088FA390911D2D292F9C
:104B300030E0237030702330310541F4803831F09B
:104B40006EA1662319F071E07EA358C480913E2DBA
:104B5000082F112707FD109584E0000F111F8A957B
:104B6000E1F796959695937099A3E0911E2DF0919B
:104B70001F2DF7FF03C0AA24BB240CC05F010894BB
:104B8000A11CB11CE038F1052CF08BEF91E08F8F68
:104B900098A305C0DF01A558BE4FAF8FB8A3BE894B
:104BA000BB2331F44F8D58A140505E4F4F8F58A317
:104BB0002115310529F41DA21E8E51E05EA31AC0F5
:104BC00022303105A9F460911C2D88EC90E070E052
:104BD0000E94923B6D507040ADA18A2F90E08617E5
:104BE00097071CF0B1E0BE8F04C02DA12F5F2DA34D
:104BF0001E8E1EA2AC8EBD8E30911C2D3D8B2227A9
:104C000033272E1B3F0BA901559547955595479581
:104C10004B8B5C8B40505E4F498B5A8B79A5672F2D
:104C200070E080E090E06AAB7BAB8CAB9DAB809199
:104C3000202D9091212DAC01662757FD6095762F90
:104C40004EA75FA768AB79AB6AA97BA98CA99DA980
:104C5000A2E0660F771F881F991FAA95D1F76D876D
:104C60007E878F87988B8AA99BA9ACA9BDA956E09E
:104C7000880F991FAA1FBB1F5A95D1F789879A875A
:104C8000AB87BC87D901B595A795AF83B887A050EE
:104C9000BE4FAD83BE838091222D9091232D9C0128
:104CA000442737FD4095542F2AA73BA74CA75DA763
:104CB000C5018E1B9F0B880F991FAC0140505C4DA6
:104CC000498F5A8FBC016050704E6F8B788FAA0C41
:104CD000BB1C8EEF9FE1A80EB91E1AA238A5232F88
:104CE00030E040E050E022962CAF3DAF4EAF5FAFDA
:104CF0002297A8014A50504024964EAF5FAF2497A8
:104D0000B801665F7F4F26966EAF7FAF2697C801CA
:104D1000059628968EAF9FAF2897D80115972A96AB
:104D2000AEAFBFAF2A9762C3BEA1BB2309F0C1C01B
:104D3000E9A1EE2309F042C0D5011696ED91FC9150
:104D4000179712968D919C9113972D913C911197E5
:104D5000820F931F14962D913C911597820F931FEC
:104D60008E0F9F1F64E070E00E94923B28962EAD4C
:104D70003FAD2897261737070CF09BC0D501189632
:104D80008D919C911997E80FF91F1A968D919C911E
:104D90001B97E80FF91F1C968D919C911D978E0F04
:104DA0009F1F64E070E00E94923B2A96EEADFFAD3B
:104DB0002A976E177F070CF484C07BC0F9A1F230EC
:104DC000D1F4D50114968D919C9115972696EEAD50
:104DD000FFAD2697E817F9070CF06BC016968D917A
:104DE0009C91179724962EAD3FAD24978217930779
:104DF0000CF467C05EC039A1313009F040C0D50164
:104E00001696ED91FC91179712968D919C911397A0
:104E10002D913C911197820F931F14962D913C91E7
:104E20001597820F931F8E0F9F1F64E070E00E9402
:104E3000923B24962EAD3FAD249762177307CCF5B5
:104E4000D50118968D919C911997E80FF91F1A9624
:104E50008D919C911B97E80FF91F1C968D919C9149
:104E60001D978E0F9F1F64E070E00E94923B269674
:104E7000EEADFFAD2697E617F7071CF11AC0F9A1B2
:104E8000F330B9F4D50114968D919C911597249621
:104E9000EEADFFAD24978E179F075CF416968D91AB
:104EA0009C91179726962EAD3FAD26972817390768
:104EB00044F03AA13F3708F085C24EA1442339F0AF
:104EC00004C051E05EA31DA21AA21B8E69C26E8DA2
:104ED0006623D9F777C27D89772309F049C18B8D85
:104EE000882319F4AB89BC8902C0A989BA89EC8DE1
:104EF000FD8DAE0FBF1FFD01EE0FFF1FEE5FFF4DDB
:104F0000808191819C01442737FD4095542F2AAF21
:104F10003BAF4CAF5DAFFD01EE0FFF1FEC5FFF4DF0
:104F2000808191813C01882477FC8094982CAA0F81
:104F3000BB1FFD01EA5FFF4D80819181AC016627B7
:104F400057FD6095762F4EAB5FAB68AF79AFA85F2A
:104F5000BF4D8D919C911C01442437FC4094542CEE
:104F6000C401B30128E330E040E050E00E94533B2D
:104F70007B018C016AAD7BAD8CAD9DAD2BEF3FEF1E
:104F80004FEF5FEF0E94533BE60EF71E081F191FFD
:104F90006EA97FA988AD99AD2EE030E040E050E0E9
:104FA0000E94533BE60EF71E081F191FE218F30874
:104FB00004091509C801B7012AA93BA94CA95DA993
:104FC0000E94533BFEE09595879577956795FA95F6
:104FD000D1F72EA53FA548A959A9620F731F841FB9
:104FE000951F6F3F71058105910531F02CF06FEF32
:104FF00070E080E090E006C097FF04C060E070E0E1
:1050000080E090E03AA1E32FF0E0E050F44D6083BF
:10501000132F1F5F2EA93FA948AD59AD260D371D8F
:10502000481D591DCA01B901E3E0660F771F881FAB
:10503000991FEA95D1F7620F731F841F951F2AAD40
:105040003BAD4CAD5DAD621B730B840B950B6219D0
:105050007309840995092D853E854F8558890E94DD
:10506000533B3EE095958795779567953A95D1F7AF
:105070002EA53FA548A959A9620F731F841F951F2C
:105080006F3F71058105910531F02CF06FEF70E0F5
:1050900080E090E006C097FF04C060E070E080E030
:1050A00090E0E12FF0E0E050F44D6083C12EC39416
:1050B000C401B3012EE030E040E050E00E94533BD9
:1050C0007B018C014AAD5BAD6CAD7DADE41AF50A98
:1050D000060B170B6EA97FA988AD99AD28E330E0C8
:1050E00040E050E00E94533BE60EF71E081F191FD8
:1050F000C201B1012BEF3FEF4FEF5FEF0E94533B37
:10510000E60EF71E081F191FC801B7012AA93BA9FF
:105110004CA95DA90E94533B2EE095958795779504
:1051200067952A95D1F72EA53FA548A959A9620FE1
:10513000731F841F951F6F3F71058105910531F025
:105140002CF06FEF70E080E090E006C097FF04C0A5
:1051500060E070E080E090E0EC2DF0E0E050F44D95
:105160006083C394CAA26EA97FA988AD99ADAFC070
:105170003D89313009F0B9C04B8D442319F48F813A
:10518000988502C08D819E81CC8CDD8CC80ED91E85
:10519000F601EE0FFF1FEA5FFF4D808191813C0118
:1051A000882477FC8094982CF601EE0FFF1FE65FB1
:1051B000FF4DE080F1800027F7FC0095102FF601ED
:1051C000EE0FFF1FE050F04E80819181AA2797FDDE
:1051D000A095BA2FE80EF91E0A1F1B1FF601EE0F4D
:1051E000FF1FEC5FFF4D60817181882777FD8095FF
:1051F000982F26E230E040E050E00E94533BE60E5C
:10520000F71E081F191FCC0CDD1CF601EE5FFF4DC9
:1052100060817181882777FD8095982F2AEF3FEF75
:105220004FEF5FEF0E94533BE60EF71E081F191F5A
:1052300068E070E2C60ED71ED6016D917C9188277A
:1052400077FD8095982F0E94533BE60EF71E081FAE
:10525000191FC401B30126E230E040E050E00E9493
:10526000533BE60EF71E081F191FC801B7012AA9F4
:105270003BA94CA95DA90E94533B3EE095958795BB
:10528000779567953A95D1F72EA53FA548A959A9D5
:10529000620F731F841F951F6F3F71058105910574
:1052A00031F02CF06FEF70E080E090E006C097FFE7
:1052B00004C060E070E080E090E03AA1E32FF0E00D
:1052C000E050F44D60833F5F3AA3C401B3012985E8
:1052D0003A854B855C850E94533B2EE095958795DA
:1052E000779567952A95D1F718C0AF89B88D8D91BC
:1052F0009C91BB8DBB23B1F49C01442737FD4095A5
:10530000542F6AA97BA98CA99DA90E94533B672FA2
:10531000782F892F992787FD9A952EA53FA548A913
:1053200059A91AC0A98DBA8D2D913C91442737FDFA
:105330004095542F22966CAD7DAD8EAD9FAD2297DA
:105340000E94533B672F782F892F992787FD9A95C5
:105350002AA53BA54CA55DA5620F731F841F951F51
:105360006F3F71058105910531F02CF06FEF70E012
:1053700080E090E006C097FF04C060E070E080E04D
:1053800090E03AA1E32FF0E04B8D442319F0E05870
:10539000F34D02C0E050F44D60835B8D5F5F5B8F27
:1053A0006E89662319F421E030E002C022E030E08B
:1053B0007B8D872F90E0821793070CF48CCD8AA108
:1053C0008F5F8AA3AC8DBD8D1196AC8FBD8FE98D9B
:1053D000FA8D3296E98FFA8F2F89388D2E5F3F4FE5
:1053E0002F8B388F42E050E0A40EB51E6C8D7D8D62
:1053F0008F8D98A16817790708F496CC40911E2DDF
:105400002091202D9E89992311F40FEF02C0009165
:10541000222D4E5F80E09CE260E87CE2E980CA8059
:105420000E94ED0C80E067E00E941B0FAFA1A03846
:1054300081F480913F2D823009F04CC280911D2D66
:105440008370833009F446C2BBA1E1E0BE27BBA351
:1054500041C2FFA1F03419F410923F2D4EC02FA18C
:10546000203621F431E030933F2D47C04FA1403A20
:1054700011F483E030C25FA1543461F56E8967FD99
:105480003CC0662361F081E4E0E0F2E0838380E0E9
:1054900098E0809324019093250160E018C085E492
:1054A000E0E0F2E0838380E094E080932401909335
:1054B000250180911E2D90911F2D8C53914034F029
:1054C0008BE391E080931E2D90931F2D63E0606825
:1054D0006E8B13C08FA1843651F49E89992369F095
:1054E00097FD0BC0A1E09A2790689E8B06C0BFA1D4
:1054F000BB2319F4EE89EF77EE8B80913F2D882343
:1055000009F06DC020911C2DFE898F2F90E0B1E035
:10551000AB2EB12CA822B922F0FF03C060913D2D23
:1055200002C060913C2D822F0E94C1082FA122232E
:1055300009F4B4C160911C2D822F70E040E050E06E
:105540002EE030E001E0A2E0EA2ECC24C3940E94D9
:10555000E80780931C2D3E89332329F0843018F40A
:1055600084E080931C2D80911C2D0E944B2DAB2834
:1055700091F060913D2D8FA170E040E050E026E079
:1055800030E001E0F8E0EF2EE0E1CE2E0E94E807E7
:1055900080933D2D11C060913C2D8FA170E040E0C3
:1055A00050E026E030E001E098E0E92E10E1C12E65
:1055B0000E94E80780933C2D60913D2DE62FF0E09E
:1055C000E95FF44F049180913C2DE82FF0E0E95F12
:1055D000F44F14910E946E2D19A708A75FC1813066
:1055E00009F05EC020911E2D30911F2D4E89842F11
:1055F00090E0B1E0AB2EB12CA822B92240FF03C04D
:105600006091222D02C06091202D6058C901CE9773
:105610000E942B0C60911E2D70911F2D5E895523C9
:1056200019F42BE333E002C02BE331E08FA145EC0A
:105630005EEF05E0EE24E394A2E0CA2E0E94E807A4
:1056400080931E2D90931F2DAB28A9F06091222DE1
:105650007091232D8FA140E050E02FEF30E004E067
:10566000F0E1EF2EE8E0CE2E0E94E8078093222D95
:105670009093232D13C16091202D7091212D8FA126
:1056800040E050E02FEF30E004E090E1E92E18E038
:10569000C12E0E94E8078093202D9093212DFEC0FB
:1056A000823009F07EC010913C2DE12FF0E0E95FDF
:1056B000F44F049160913E2D772767FD7095872FF9
:1056C000972F28E833E140E050E00E94533B202F21
:1056D00030E040E050E00E94C73B04C0559547953C
:1056E000379527951A95D2F7203060E8360760E0A5
:1056F000460760E056072CF02FEF3FE740E050E010
:105700000CC0283273EA37077FEF47077FEF570750
:1057100024F420E030E84FEF5FEF80911D2DB901B8
:105720000E94990C2FA121FF07C080911D2D80346C
:1057300018F4805E80931D2D20FF07C080911D2DE1
:10574000803218F0805280931D2D8FA18430A9F4EF
:1057500090911D2D96FF03C088E0982704C095FF07
:1057600005C0AFA19A2790931D2D07C0892F8F5F89
:1057700083709C7F892B80931D2D24FF07C080910F
:105780003E2D82381CF0815080933E2D23FF86C031
:1057900080913E2D8F3709F481C08F5F80933E2D1D
:1057A0007DC0833009F07AC0BCA18B2E9924B1E072
:1057B000AB2EB12CAC0EBD1EA80CB91CF50160813E
:1057C0008FA170E040E050E020E830E004E0EE24FB
:1057D000E394A2E0CA2E0E94E807D5018C938FA122
:1057E000B40140E050E021E030E001E0F0E1EF2ED4
:1057F000E8E0CE2E0E94E807882E10911C2DE12FA4
:10580000F0E0EE0FFF1FE35EF44F6591749180E0CE
:1058100090E02981332727FD3095EA81FF27E7FDB6
:10582000F0952E1B3F0B442737FD4095542F0E94C7
:10583000533B153088F42AE030E040E050E00E940D
:10584000533B28E030E040E050E00E94C73BC901F4
:10585000DA01112389F018C01A3028F428E030E06A
:1058600040E050E004C020E530E040E050E00E941D
:10587000C73BC901DA0108C032E0B595A7959795F5
:1058800087953A95D1F706C0113021F4B595A795C3
:10589000979587958CA2612F0E94D30BBE89B0FD8E
:1058A00003C081E19BE002C087E19BE00E94820F80
:1058B000EBA1EE2311F083E506C0FEA1FF2311F456
:1058C00082E501C087E40E94430F2FA1203209F036
:1058D00004C904C082E080933F2D0FCEC75BDF4F29
:1058E000CDBFDEBFCF91DF911F910F91FF90EF9061
:1058F000DF90CF90BF90AF909F908F907F906F90F0
:105900005F904F903F902F900895AAECB1E092E005
:105910009C93E82FF0E0E4911C928E2F0895CF9392
:10592000DF938AEC91E032E0DC013C93E0E2F0E0CE
:10593000E4911C92A0E0B2E01C96EC931C97EC0161
:105940003883E1E2F0E0E49118821D96EC931D9714
:1059500088ED80938001E0E4F9E023E0208380E497
:1059600090E086A397A381E08C9340E111964C933D
:10597000119711968C91119711968C9311971296FD
:105980003C93129781E413968C93139714963C934F
:10599000149790962C9390978BE291968C93919775
:1059A00098962C93989783E399968C939997D09691
:1059B0001C92D097D1964C93A0EAB0E012968C91AD
:1059C0001297826012968C931297E0E0F1E080E8E3
:1059D000808355E050A331A312968C911297826078
:1059E00012968C9325E922A343A380E098E084A338
:1059F00095A340A731A712A680E090E284A795A7BF
:105A000016A650AB31AB22AB81E183AB80E094E0D2
:105A100084AB95AB82E180AF31AF12AE80E094E20F
:105A200084AF90933D0110923E01DF91CF91089594
:105A3000E0E0F2E010821092000181E080934009E2
:105A400012820895E0E0F2E0808184608083208902
:105A50003189C9010895E0E0F2E0808188608083A7
:105A600022893389C9010895809100028061809361
:105A70000002809133028823E1F38FE08A95F1F7E9
:105A80002091140230E040911502942F80E0282BE1
:105A9000392BC9010895282FE82FF0E0EE0FFF1FE2
:105AA000E35EF44F859194910197E0E4F9E086A3D9
:105AB00097A3293010F087E00DC0283011F486E05C
:105AC00009C0273011F484E005C0253010F083E0D0
:105AD00001C082E0E0E0F2E084830895660F660F83
