:100000000C9451060C946E060C946E060C946E06BD
:100010000C946E060C946E060C946E060C9496244A
:100020000C94AB240C946E060C946E060C946E0625
:100030000C946E060C946E060C946E060C946E0670
:100040000C946E060C946E060C946E060C946E0660
:100050000C946E060C946E060C946E060C946E0650
:100060000C946E060C946E060C946E060C946E0640
:100070000C946E060C946E060C946E060C946E0630
:100080000C946E060C946E060C9468080C946E0624
:100090000C946E060C946E060C946E060C946E0610
:1000A0000C946E060C946E060C946E060C946E0600
:1000B0000C946E060C946E060C946E060C946E06F0
:1000C0000C946E060C946E060C946E060C946E06E0
:1000D0000C946E060C946E060C946E060C946E06D0
:1000E0000C946E060C946E060C94F5360C946E0609
:1000F0000C946E060C946E060C946E060C946E06B0
:100100000C947B220C946E060C946E060C946E0676
:100110000C946E060C946E060C946E060C946E068F
:100120000C946E060C946E060C946E060C946E067F
:100130000C946E060C946E060C946E060C946E066F
:100140000C946E060C946E060C946E060C946E065F
:100150000C946E060C946E060C946E060C946E064F
:100160000C946E060C946E060C946E060C946E063F
:100170000C946E060C946E064F7363796C6F736B00
:100180006F700047656E657261746F722000416E1A
:10019000616C697A61746F7200416E2E73742E6C9B
:1001A0006F672E00576F62756C6F736B6F70004DC9
:1001B000756C74696D657472200052533233322D40
:1001C0003E50432000557374617769656E69610024
:1001D00056312E3300506F6D6961726F7779004B25
:1001E0006F6D62616A6E004D696E69002020203576
:1001F00000202020320020202031003530306D00DA
:100200003230306D003130306D002035306D0020DF
:1002100032306D002031306D002020356D002020FF
:1002200032750020203575002020387500203130CF
:100230007500203230750020353075003130307552
:1002400000323030750035303075002020316D00BF
:100250002020326D002020356D002031306D0020CF
:1002600032306D002035306D002D4E415333316BEF
:1002700032002032356B0031326B35002020356B77
:100280000020326B3500316B3235002035303000C4
:10029000203235300020313235002020353000202A
:1002A0002032350031322E350020202035006442C6
:1002B0002000487A20413D00463D003075732020E3
:1002C0000075732020200030306E73200064743D70
:1002D000004C46004846004C4600484600543A2030
:1002E0000020593D00583D0064425700487A2F6471
:1002F00000562F6400732F6400000000000000000F
:100300005F00000007000700147F147F14242A7F79
:100310002A1223130864623649552250000503004F
:1003200000001C2241000041221C00082A1C2A084F
:1003300008083E08080050300000080808080800B7
:100340006060000020100804023E5149453E004212
:100350007F400042615149462141454B31181412FA
:100360007F1027454545393C4A4949300171090507
:10037000033649494936064949291E0036360000E8
:1003800000563600000008142241141414141441BD
:10039000221408000201510906324979413E7E11BA
:1003A00011117E7F494949363E414141227F4141F9
:1003B000221C7F494949417F090901013E414151C0
:1003C000327F0808087F00417F41002040413F0103
:1003D0007F081422417F404040407F0204027F7F1B
:1003E0000408107F3E4141413E7F090909063E4114
:1003F00051215E7F09192946464949493101017F4A
:1004000001013F4040403F1F2040201F7F20182017
:100410007F6314081463030478040361514945435E
:1004200000007F4141020408102041417F00000488
:1004300002010204404040404000010204002054F8
:100440005454787F48444438384444442038444421
:10045000487F3854545418087E0901020814545433
:100460003C7F0804047800447D40002040443D0067
:10047000007F10284400417F40007C041804787CF1
:100480000804047838444444387C141414080814CC
:1004900014187C7C080404084854545420043F4435
:1004A00040203C4040207C1C2040201C3C403040F0
:1004B0003C44281028440C5050503C4464544C4454
:1004C000000836410000007F0000004136080008A7
:1004D000082A1C08081C2A0808464D00414D0053F4
:1004E000570073696E6520202020202000737175ED
:1004F0006172652020202000747269616E676C65EE
:1005000020200070696E6B206E6F697365007768DC
:10051000697465206E6F69730061726269747261DB
:10052000727920006E6F6E6520286F666629000064
:100530000091012303B5044706D8076909F90A8A1F
:100540000C190EA90F3711C5125214DF156A17F5D1
:10055000187F1A071C8F1D161F9B201F22A2232302
:1005600025A32621289E29192B932C0B2E812FF5AC
:10057000306832D8334735B3361D388539EB3A4FBA
:100580003CB03D0F3F6C40C6411D437244C545140D
:10059000476148AB49F24A374C784DB74EF24F2A83
:1005A0005160529253C154EC55145739585B5979E4
:1005B0005A935BAA5CBE5DCE5EDA5FE260E761E8FB
:1005C00062E563DF64D465C666B3679D688369646A
:1005D0006A416B1B6CF06CC16D8D6E566F1A70DAD0
:1005E0007095714C72FF72AD735774FD749D753ABE
:1005F00076D1766577F3777D7802798379FF79769E
:100600007AE97A577BC07B247C847CDE7C347D85D0
:100610007DD27D197E5C7E997ED27E067F357F5F9E
:100620007F857FA57FC07FD77FE87FF57FFD7FFF38
:100630007FFD7FF67FEA7FD97FC37FA97F897F64B3
:100640007F3B7F0D7FD97EA17E647E227EDB7D9005
:100650007D3F7DEA7C907C317CCD7B657BF77A8623
:100660007A0F7A937913798F7805787777E5764ED4
:1006700076B27512756D74C47316736472AD71F2CF
:10068000703370706FA86EDC6D0B6D376C5E6B81B4
:100690006AA069BB68D267E566F465FF6406640911
:1006A0006309620461FC5FF15EE15DCE5CB85B9E54
:1006B0005A80595F583B571356E854B953885253E0
:1006C000511B50E04EA24D614C1D4BD6498C484009
:1006D00047F0459E444A43F34199403D3FDE3D7D0E
:1006E0003C1A3BB4394C38E236763508349832251A
:1006F00031B12F3C2EC42C4A2BCF295328D5265557
:1007000025D4235122CD20481FC21D3A1CB21A28DD
:10071000199E1712168614F9126B11DC0F4D0EBEBE
:100720000C2D0B9D090C087B06E9045703C6013408
:1007300000A3FE11FD7FFBEEF95CF8CBF63BF5AABA
:10074000F31AF28BF0FDEE6EEDE1EB55EAC9E83EEF
:10075000E7B4E52CE4A4E21DE198DF13DE91DC0FA1
:10076000DB8FD910D893D618D59ED326D2B0D03BE4
:10077000CFC8CD58CCE9CA7CC912C8A9C643C5DFC9
:10078000C37DC21EC1C1BF67BE0FBDBABB67BA176A
:10079000B9CAB77FB638B5F3B3B1B272B137B0FEEC
:1007A000AEC8AD96AC67AB3BAA12A9EDA7CBA6AC81
:1007B000A591A47AA366A255A149A0409F3A9E396B
:1007C0009D3B9C419B4B9A59996B9881979B96B9FD
:1007D00095DB9401942C935A928D91C490FF8F3F96
:1007E0008F838ECB8D188D698CBF8B198B778ADAAE
:1007F000894289AE881F8895870F878D86118699D3
:10080000852685B7844E84E98388832D83D78285A6
:10081000823882F081AD816E8135810081D180A6E0
:100820008080805F8043802C801A800C800480014F
:1008300080028009801480248039805480738097DE
:1008400080BF80ED80208157819481D5811B826695
:1008500082B6820B836483C38326848E84FA846B7E
:1008600085E1855C86DC866087E987768808899ED5
:10087000893A8AD98A7D8B268CD38C858D3B8EF5DF
:100880008EB48F77903E910A92DA92AE93869462FC
:1008900095439627971098FC98ED99E19AD99BD6A5
:1008A0009CD69DDA9EE19FECA0FBA10EA324A43E62
:1008B000A55BA67BA79FA8C7A9F1AA1FAC51AD85D0
:1008C000AEBCAFF7B035B275B3B9B4FFB549B795A3
:1008D000B8E4B936BB8ABCE1BD3ABF96C0F4C15595
:1008E000C3B8C41DC685C7EFC85BCAC9CB38CDAA7B
:1008F000CE1ED094D10BD384D4FFD57CD7FAD8792F
:10090000DAFADB7DDD00DF85E00BE293E31BE5A592
:10091000E62FE8BAE947EBD4EC61EEF0EF7FF10E99
:10092000F39FF42FF6C0F751F9E3FA74FC06FE9832
:10093000FF2901BB024D04DE0570070109910A225F
:100940000CB20D410FD0105E12EB13781504178F07
:1009500018191AA21B291DB01E3620BA213D23BF2B
:10096000243F26BE273B29B72A312CA92D202F95BD
:100970003008327933E8345536BF3728398F3AF3A7
:100980003B553DB43E12406C41C4421A446D45BDD6
:10099000460B4856499E4AE34B254D644EA14FDA1B
:1009A000501052435372549F55C856ED5710592F4B
:1009B0005A4A5B625C775D875E955F9E60A461A624
:1009C00062A4639E64956587667667616847692A55
:1009D0006A086BE36BB96C8B6D596E226FE76FA879
:1009E0007065711D72D17281732C74D2747475121A
:1009F00076AA763F77CF775A78E0786279DF7958B0
:100A00007ACC7A3B7BA57B0B7C6B7CC77C1E7D7193
:100A10007DBE7D077E4B7E8A7EC47EF97E297F5512
:100A20007F7B7F9D7FBA7FD17FE47FF27FFB7F203A
:100A30005A3D00576176653A2000252020473D0049
:100A400020446565703D00202020202044433D0067
:100A5000447574793D0020563D004172626974729C
:100A600020583D00463D006D560020473D00463D64
:100A70000057726974652E2E2E00344D000000322E
:100A80004D000000314D0000003530306B00323039
:100A9000306B003130306B0035306B000032306B22
:100AA000000031306B0000356B000000326B00003D
:100AB00000316B0000003530300000323030000073
:100AC0000000010004000C0024004C009C008C017C
:100AD0001C033C069C0F3C1F7C3E3C9C5472696787
:100AE0003D0020563D004375723D00205A00583DA0
:100AF0000052656164792E2E2E00532F7320200042
:100B0000426173653A2000101414141932643F7D59
:100B1000FA204348312000204348322000040005D9
:100B200000040005000A00190032006400FA00F415
:100B300001E803C40988131027A861484F4C4400FA
:100B4000574F524B00487A006B487A0046726571E5
:100B50003D005670703D00204D696E3D004D61783E
:100B60003D004176673D00524D533D004E530044D9
:100B700052002078200030487A005220005357203D
:100B80000020202020202020524D533D004B616C3E
:100B900069627261636A61005253323332202D20E0
:100BA000504300577973776965746C61630031391C
:100BB00032303020200033383430302020003537B8
:100BC00036303020200031313532303020003233A1
:100BD0003034303020003436303830302000393274
:100BE000313630302000313135323030300031355F
:100BF00030303030300032353030303030004B6FF4
:100C00006E74726173743A20004A61736E6F73631D
:100C10003A200020575953574945544C41435A00F4
:100C200053706565643A2000205253323332202DD0
:100C300020504300206F6B006B616C00312E303010
:100C4000002F312E3600414443206F666673657471
:100C50003A2000444143206F66667365743A200071
:100C600044414320777A6D6F636E3A2000204B41F8
:100C70004C49425241434A4100205553544157493F
:100C8000454E4941200067332210F66B2518351375
:100C90004D4B503C2D2D52532D3233322D2D3E5085
:100CA000430011241FBECFEFDFE2DEBFCDBF1DE248
:100CB000A0E0B0E2EAE6F9E702C005900D92AC329E
:100CC000B107D9F71DE2ACE2BDE201C01D92A53427
:100CD000B107E1F70E94F1060C94B33C0C940000BC
:100CE000EF92FF920F931F93CF93DF93E82E8FE045
:100CF00062E00E946F1087EE91E00E94DA1086E0B9
:100D000063E00E946F108FED91E00E94DA1080E0A6
:100D100064E00E946F1085ED91E00E94DA108FE090
:100D200065E00E946F1080ED91E00E94DA100BE008
:100D30008E2D809F8001112408581E4FC8E7D1E0F6
:100D4000FF2480E46F2D0E946F10FE1421F4C8016F
:100D50000E94EB1003C0CE010E94DA10F3942B9690
:100D60008F2D883071F7DF91CF911F910F91FF90F8
:100D7000EF90089583E4E0E5F0E0828388E08093DB
:100D800050008091510083FFFCCF84ECE0E5F0E05F
:100D90008583809150008061809350008091510044
:100DA00084FFFCCF80E490E064E00E94BA070895DD
:100DB000809150008460809350008091510082FFA8
:100DC000FCCF80E490E062E00E94BA07809150007E
:100DD0008F7E8093500080915000877F80935000D9
:100DE0000895AF92BF92CF92DF92EF92FF920F934E
:100DF0001F93CF93DF930E94BA060E94112C0E948A
:100E0000CF070E944D080E9421370E9441100E9486
:100E10008A1080E00E9470067894EE24FF24C0E4DB
:100E2000D6E0DD24DA94CC24C39404E010E096E00C
:100E3000A92EB12C0E948408803139F4F3942F2D0F
:100E4000283008F443C0FF2441C0883039F4FF2023
:100E500011F0FA943BC087E0F82E38C08430D1F509
:100E60000E948A100E9484088823E1F7FF2019F469
:100E70000E94C02429C08F2D813019F40E940013D4
:100E800023C02F2D223019F40E948E201DC08F2DDB
:100E9000833019F40E947C2217C02F2D243019F4BE
:100EA0000E94313411C08F2D853019F40E94692EB3
:100EB0000BC02F2D263019F40E94773905C08F2DD5
:100EC000873011F40E94B8360E948A108F2D0E943C
:100ED000700629C0803239F50E949D0F0E940008DB
:100EE0000E94782C0E94D8060E9484088823E1F78B
:100EF0001C828D2D8A95F1F7C092480088950E943A
:100F0000BA060E94112C0E94CF070E9441100E9435
:100F10008A108F2D0E9470060E9484088823E1F7B2
:100F20008D2D8A95F1F70E94942CEE2DF0E0E05083
:100F3000F44DB8010E94303C6083E3942E2D263797
:100F4000A8F080E067E00E946F10E0E0FCE280E043
:100F500090E02191820F911D2CE2E637F207C9F74C
:100F6000B5010E941C3CCB010E94030C8D2D8A957B
:100F7000F1F760CF0F93DF93CF930F92CDB7DEB72A
:100F80002FB72983F8941BBEFC0108ED04BF6083D2
:100F900089818FBF0F90CF91DF910F91089580EDE0
:100FA000E0E8F1E08183E0E0F9E021E020838DE7F3
:100FB00090E086A397A3E0E2F3E085E080832183BD
:100FC00088E18283238380E5848384E68187808728
:100FD000E0E0F1E080E8808385E2808B99E5928B08
:100FE000838B80E094E0848B958B80E098E2808F07
:100FF000918F128E88E3848F83E0858F168E0895FB
:1010000010922003E0E0F1E0108A109200090895A8
:10101000E0E2F3E0808F918F08950F931F93082FE4
:1010200080E090E00E94803C182F202F332727FD7E
:101030003095280F311D2F3F310509F010F437FF8F
:10104000100F80E090E0612F0E94903CE0E2F3E01E
:101050001187812F1F910F9108950F931F93082FD0
:1010600081E090E00E94803C182F202F332727FD3D
:101070003095280F311D2F3F310509F010F437FF4F
:10108000100F81E090E0612F0E94903CE0E2F3E0DD
:101090001087812F1F910F9108959AE09093B000CF
:1010A000E0E2F6E08AE1808B81858C7F8260818737
:1010B0009287E0EAF0E08281826082837894E0E4C3
:1010C000F8E087E0808380E593EC86A397A30895FA
:1010D00068941895CF92EF920F9382FF01E0E82277
:1010E00011F0601B71098C2111F0600F711D261722
:1010F00037070CF4B901641775070CF4BA01CB017A
:101100000F91EF90CF9008958FEF8093400687EF77
:10111000E0E4F6E084838FE08A95F1F79091280669
:1011200081E091FD80E09091280693FF02C020E0CD
:1011300001C024E0282B8FEEE0E4F6E084834FE04A
:101140004A95F1F78091280681FF02C080E001C036
:1011500082E0822B9091280693FF02C020E001C01C
:1011600020E6282B8FEDE0E4F6E084834FE04A95FB
:10117000F1F78091280681FF02C090E001C090EA5B
:10118000922B8091280683FF02C080E001C080E19D
:10119000892B9FEBE0E4F6E094834FE04A95F1F76A
:1011A0009091280691FF02C030E001C030E8832B07
:1011B0009091280693FF02C020E001C020E4822B1A
:1011C0009FE7E0E4F6E094832FE02A95F1F7909111
:1011D000280691FF02C090E001C090E2892B909117
:1011E000280693FF02C090E001C098E0892B09F126
:1011F000209160083091610895E02D3D390700F19C
:1012000090912C2D943118F49F5F90932C2DE0E455
:10121000F8E010A211A290912C2D913091F0953010
:1012200081F0983071F09A3061F09C3050F480EE8B
:10123000089510922C2DE0E4F8E010A211A2089578
:1012400080EE08950F931F93182F80E302C0145669
:101250008F5F082F00531436D0F7002309F480E283
:101260000E949D1080E303C01A508F5F0F5F1A30F9
:10127000D8F7002309F480E20E949D10812F805D41
:101280000E949D101F910F9108951F93182F87FFA3
:1012900004C011958DE20E949D10812F0E942209A9
:1012A0001F9108951F93CF93DF93EC0197FF05C023
:1012B000D095C195DF4F8DE201C080E20E949D1064
:1012C00080E303C0C456D0408F5F182F1053C4363C
:1012D000D105C4F7112309F480E20E949D1080E338
:1012E00003C02A978F5F1F5FCA30D105D4F711233F
:1012F00009F480E20E949D109E01205D822F0E94D1
:101300009D10DF91CF911F9108951F93CF93DF938D
:10131000EC0180E303C0C051D7428F5F182F1053F8
:1013200027E2C031D207B8F7112309F480E20E9406
:101330009D1080E304C0C85ED3408F5F1F5F33E021
:10134000C83ED307C0F7112309F480E20E949D1024
:1013500080E304C0C456D0408F5F1F5FC436D10500
:10136000C8F7112309F480E20E949D1080E303C0B6
:101370002A978F5F1F5FCA30D105D0F7112309F478
:1013800080E20E949D109E01205D822F0E949D1090
:10139000DF91CF911F910895CF93DF93EC0197FFD9
:1013A00005C0D095C195DF4F8DE201C080E20E945B
:1013B0009D10CE010E948509DF91CF910895DF92A3
:1013C000EF92FF920F931F937B018C0180E309C082
:1013D00020E639E74EEF5FEFE20EF31E041F151F04
:1013E0008F5F90EDD92ED80E30EAE31636E8F3067B
:1013F00031E0030730E0130758F7DD2009F480E2FD
:101400000E949D1080E30AC020EF38ED4FEF5FEFA0
:10141000E20EF31E041F151F8F5FD39430E1E31615
:1014200037E2F30630E0030730E0130768F7DD200A
:1014300009F480E20E949D1080E30AC028E13CEF9D
:101440004FEF5FEFE20EF31E041F151F8F5FD39463
:1014500038EEE31633E0F30630E0030730E013071D
:1014600068F7DD2009F480E20E949D1080E30AC045
:101470002CE93FEF4FEF5FEFE20EF31E041F151F45
:101480008F5FD39434E6E316F1040105110580F76C
:10149000DD2009F480E20E949D1080E30AC026EF5F
:1014A0003FEF4FEF5FEFE20EF31E041F151F8F5F3C
:1014B000D3943AE0E316F1040105110580F7DD202D
:1014C00009F480E20E949D108E2D805D0E949D1087
:1014D0001F910F91FF90EF90DF900895EF92FF9290
:1014E0000F931F937B018C0197FF0AC01095009505
:1014F000F094E094E11CF11C011D111D8DE201C06E
:1015000080E20E949D10C801B7010E94DF091F916F
:101510000F91FF90EF9008950F931F93CF93DF9358
:10152000EC01062F80E303C0C051D7428F5F182F14
:10153000105327E2C031D207B8F7013031F411233C
:1015400009F480E20E94BB1005C0112309F480E277
:101550000E949D1080E304C0C85ED3408F5F1F5F70
:1015600033E0C83ED307C0F7023031F4112309F449
:1015700080E20E94BB1005C0112309F480E20E94A2
:101580009D1080E304C0C456D0408F5F1F5FC436F7
:10159000D105C8F7033031F4112309F480E20E9429
:1015A000BB1005C0112309F480E20E949D1080E366
:1015B00003C02A978F5F1F5FCA30D105D0F7043070
:1015C00031F4112309F480E20E94BB1005C01123FD
:1015D00009F480E20E949D108EE20E949D109E01FF
:1015E000205D822F053019F40E94BB1002C00E94BA
:1015F0009D10DF91CF911F910F910895CF92DF92AF
:10160000EF92FF920F931F937B018C01C42E80E316
:1016100009C020E839E647E65FEFE20EF31E041F3B
:10162000151F8F5F30EDD32ED80E30E8E31636E964
:10163000F30638E9030730E0130758F74C2D413023
:1016400031F4DD2009F480E20E94BB1005C0DD20EA
:1016500009F480E20E949D1080E30AC020EC3DEB7B
:1016600040EF5FEFE20EF31E041F151F8F5FD39450
:1016700030E4E31632E4F3063FE0030730E01307FB
:1016800068F74C2D423031F4DD2009F480E20E94ED
:10169000BB1005C0DD2009F480E20E949D1080E3AC
:1016A0000AC020E639E74EEF5FEFE20EF31E041F9B
:1016B000151F8F5FD39430EAE31636E8F30631E066
:1016C000030730E0130768F74C2D433031F4DD2079
:1016D00009F480E20E94BB1005C0DD2009F480E21D
:1016E0000E949D1080E30AC020EF38ED4FEF5FEFBE
:1016F000E20EF31E041F151F8F5FD39430E1E31633
:1017000037E2F30630E0030730E0130768F74C2DAB
:10171000443031F4DD2009F480E20E94BB1005C0A2
:10172000DD2009F480E20E949D1080E30AC028E1D8
:101730003CEF4FEF5FEFE20EF31E041F151F8F5FAC
:10174000D39438EEE31633E0F30630E0030730E0DD
:10175000130768F74C2D453031F4DD2009F480E2A1
:101760000E94BB1005C0DD2009F480E20E949D109C
:1017700080E309C02CE93FEF4FEF5FEFE20EF31E6D
:10178000041F151F8F5F34E6E316F10401051105F0
:1017900088F74C2D463019F40E94BB1002C00E94FD
:1017A0009D1020E3D22E09C086EF9FEFAFEFBFEF71
:1017B000E80EF91E0A1F1B1FD3949AE0E916F104E4
:1017C0000105110588F78EE20E949D10AC2DA7300F
:1017D00021F48D2D0E94BB100BC08D2D0E949D10F9
:1017E000BC2DB83029F48E2D805D0E94BB1004C042
:1017F0008E2D805D0E949D101F910F91FF90EF90A4
:10180000DF90CF9008950F931F93CF93DF93EC0158
:101810002FE0803A920738F06AE070E00E941C3CAA
:10182000EB0101E001C000E080E303C0C85ED340EB
:101830008F5F182F105333E0C83ED307B8F711233A
:1018400009F480E20E949D1080E304C0C456D04099
:101850008F5F1F5FC436D105C8F7112311F4002331
:1018600029F00E949D10002331F002C080E201C0E7
:101870008EE20E949D1080E303C02A978F5F1F5F56
:10188000CA30D105D0F7112309F480E20E949D10DF
:101890009E01205D822F0E949D10002319F48DE689
:1018A0000E949D1086E50E949D10DF91CF911F91AF
:1018B0000F910895CF93DF93EC0197FF07C08DE25E
:1018C0000E949D10D095C195DF4F03C080E20E9419
:1018D0009D10CE010E94030CDF91CF9108952F92AD
:1018E0003F924F925F926F927F928F929F92AF92B0
:1018F000BF92CF92DF92EF92FF920F931F93DF93ED
:10190000CF93CDB7DEB76C97CDBFDEBF4C016887F4
:10191000798749835E2C4C2C2095422F50E0CA01D8
:101920008770907061E070E07B0102C0EE0CFF1CDC
:101930008A95E2F7EA82822F8F5F90E0FC01E770E0
:10194000F070DB0102C0AA0FBB1FEA95E2F7AB8380
:10195000215030E0F901E770F0707B0102C0EE0C1D
:10196000FF1CEA95E2F7EC82C02EC0942C2C3324A5
:10197000D101A770B070FB0102C0EE0FFF1FAA9546
:10198000E2F7ED83AC2CA394BB24D501A770B07013
:10199000FB0102C0EE0FFF1FAA95E2F7EE83CA9487
:1019A000DD24D601A770B07002C0660F771FAA951C
:1019B000E2F76F83662477241CE061E0E62EF12CC9
:1019C000A9816A2F70E0FB013196EA87FB87DB0172
:1019D0001197AC87BD87FA01E87FF070EE87FF872B
:1019E000AC01487F5070488B598BB901687F70708B
:1019F0006A8B7B8BC101887F90708C8B9D8BD5010E
:101A0000A87FB070AE8BBF8B58EF252E312C2C20C9
:101A10003D20C12EE885F985E98FFA8FA02E80E060
:101A2000662D0E946F10C3010C968C0143E0000FDD
:101A3000111F4A95E1F742E09C0121703070288720
:101A40003987D4015D914D015095EC91E095852F3A
:101A500090E09C01287F30702017310751F4877087
:101A60009070970102C0220F331F8A95E2F7C901D7
:101A700001C080E05E1750F5A98DBA8D652F70E02A
:101A80009B01287F30702017310749F46770707010
:101A9000970102C0220F331F6A95E2F7822B5F5F26
:101AA0005E1760F317C06E2F70E09B01287F3070C7
:101AB0002017310749F467707070970102C0220F38
:101AC000331F6A95E2F7822BEF5F02C0A98DBA8DB2
:101AD000E51748F3A98FBA8F3A2D3F3F09F44BC061
:101AE000A98DBA8D9D91A98FBA8F90955C915095D3
:101AF000292F30E0B901687F70706017710749F4D1
:101B000027703070F70102C0EE0FFF1F2A95E2F731
:101B10008E2B951750F5E98DFA8D692F70E09B019A
:101B2000287F30702017310749F467707070970173
:101B300002C0220F331F6A95E2F7822B9F5F951731
:101B400060F317C0652F70E09B01287F307020176D
:101B5000310749F467707070D70102C0AA0FBB1F2C
:101B60006A95E2F78A2B5F5F02C0E98DFA8D5917FB
:101B700048F3E98FFA8F942F9F7029F4E885F9854F
:101B8000309709F08068942F937021F4FC2DFF307A
:101B900009F48068403409F488682981421721F4E7
:101BA0003C2D3C3009F48F60242F30E06A857B8522
:101BB0002617370729F0AC85BD852A173B0721F486
:101BC000BC2DBC3009F48460451509F488684415BF
:101BD00009F488684C8F0E94690F4C8D4F5F403824
:101BE00009F02FCF80E00E94690F90E0498D5A8D57
:101BF000EE85FF85E017F10711F080E001C08A81D2
:101C0000913071F4288939892017310711F43B810B
:101C1000832B6A897B896017710711F47C81872B7C
:101C2000AA2DAF3FA1F0EC89FD89E017F10709F477
:101C30008D81913061F42E893F892017310711F48D
:101C40003E81832B2016310611F46F81862B4C8F39
:101C50005B8F988F0E94690F988D9F5F4C8D5B8D75
:101C6000943031F6498F5A8FC3940894611C711CCB
:101C70007C2D733149F082E89FEF880E991E4E57F4
:101C80005040498F5A8FCBCE6C96CDBFDEBFCF91DF
:101C9000DF911F910F91FF90EF90DF90CF90BF9059
:101CA000AF909F908F907F906F905F904F903F90FC
:101CB0002F9008951F93DF93CF930F92CDB7DEB788
:101CC00015E0819FC0011124825E9D4F69830E94AF
:101CD000DA1085EF92E00E94DA106981619FC001FD
:101CE000112484519E4F0E94DA1081EF92E00E94ED
:101CF000DA100F90CF91DF911F9108951F93DF931A
:101D0000CF930F92CDB7DEB7825015E0819FC0010F
:101D1000112483599D4F69830E94DA108CEE92E062
:101D20000E94DA106981619FC001112484519E4F85
:101D30000E94DA1088EE92E00E94DA100F90CF91A4
:101D4000DF911F9108950F931F93DF93CF930F920D
:101D5000CDB7DEB78C0185EE92E069830E94DA1080
:101D6000C8010E94520981EE92E00E94DA10698156
:101D7000862F992787FD90950E94520980E20E9444
:101D80009D100F90CF91DF911F910F910895EF92C9
:101D9000FF920F931F93CF93DF93082F7B018DED5D
:101DA00092E00E94DA10C02FD0E08E010076107011
:101DB000FE01E370F0700115110531F4E759FD4F94
:101DC00084910E94BB1011C0E759FD4F84910E947D
:101DD0009D100032110549F4CE0182FD02C08CE550
:101DE00001C08FE20E94BB1014C0C2FF02C08FE28C
:101DF00001C08CE50E949D100034110551F4C3FF11
:101E000003C08AED92E002C087ED92E00E94EB10E1
:101E100009C0C3FF03C084ED92E002C081ED92E0EF
:101E20000E94DA10C7010E945A0CDF91CF911F91D6
:101E30000F91FF90EF9008950F931F93DF93CF932F
:101E40000F92CDB7DEB78C018DEC92E069830E94D2
:101E5000DA10C8010E94CC096981653018F487EC5A
:101E600092E007C06A3018F481EC92E002C08BEB7C
:101E700092E00E94DA100F90CF91DF911F910F91A5
:101E80000895EF92FF920F931F93DF93CF930F92DA
:101E9000CDB7DEB77B018C0188EB92E049830E94CD
:101EA000DA10C801B7010E94DF0982EB92E00E94BC
:101EB000DA104981842F0E9445098EEA92E00E943F
:101EC000DA100F90CF91DF911F910F91FF90EF905B
:101ED0000895E0E4F6E09FEF918300000000848322
:101EE000A0E0B6E092E016969C931697E0E8F6E044
:101EF00081E086830000000015969C9315978583EA
:101F0000000000000895E0E4F6E09FEF91830000F8
:101F100000008483A0E0B6E096E016969C931697A6
:101F2000E0E8F6E081E086830000000015969C93CF
:101F3000159785830000000008958EEA0E94830FA4
:101F4000E0E4F6E01482E0E0FAE011821082E0E0E2
:101F5000F6E08FE0868383E0A0E8B6E016968C93E7
:101F6000169780E1868308951F93182F83E090E0F1
:101F70000E94803C180F153608F014E6212F30E03F
:101F8000E0E0FAE022A733A783E090E0612F0E940F
:101F9000903C812F1F9108950F931F93DF93CF9350
:101FA00000D0CDB7DEB7E0E0F6E08FE08583818337
:101FB000A0E8B6E083E015968C93159711968C9364
:101FC0008FEFA0E4B6E014968C93149780E18183A0
:101FD000858319821A8205C089819A810196898335
:101FE0009A8389819A8123E188389207A8F388E04F
:101FF000E0E0F6E0868319821A8205C089819A8121
:10200000019689839A8389819A81E1E0843F9E07C2
:10201000A8F388E0E0E0F6E0858300E01AE086E0DF
:102020008093000A84E690E0F80186A397A380E0FD
:102030000E94B40F83E2F80181830F900F90CF913B
:10204000DF911F910F9108951F93182F82E090E068
:102050000E94803C180F1F3118F41A3018F003C08A
:102060001EE101C01AE081E80E94830F812F0E94C7
:10207000830F82E090E0612F0E94903C812F1F919E
:1020800008950E94CC0F8FEF9FEF0197F1F781EA3F
:102090000E94830F80EC0E94830F82EA0E94830FCC
:1020A0008FE20E94830F8FEF8A95F1F780E00E9404
:1020B000241084EA0E94830F8FEA0E94830F86EA2D
:1020C0000E94830F80EB0E94830F80E10E94830FA8
:1020D00080E00E94830F80E40E94830F08951F9385
:1020E000DF93CF930F92CDB7DEB7182F82958F7005
:1020F000806169830E94830F812F8F700E94830FFC
:102100006981862F806B0E94830F0F90CF91DF91A2
:102110001F9108950F931F9310E080E0612F0E949C
:102120006F1004E880E00E94690F0150D9F71F5F2B
:10213000183099F71F910F9108950F931F93CF9324
:10214000DF9305E0809F80011124075A1D4FC0E0F6
:10215000D0E0F801EC0FFD1F84910E94690F2196D9
:10216000C530D105B1F780E00E94690FDF91CF91B2
:102170001F910F9108950F931F93CF93DF9305E065
:10218000809F80011124075A1D4FC0E0D0E0F80164
:10219000EC0FFD1F849180950E94690F2196C53038
:1021A000D105A9F78FEF0E94690FDF91CF911F91A1
:1021B0000F910895CF93DF93EC0105C02196FC01A8
:1021C00084910E949D10CE01FE0124912223B1F73B
:1021D000DF91CF910895CF93DF93EC0105C0219655
:1021E000FC0184910E94BB10CE01FE0124912223A8
:1021F000B1F7DF91CF910895BF92CF92DF92EF9226
:10220000FF920F931F93CF93DF93EB01082F192FAA
:10221000C12C83E0D82EC60ED71E7E01CE010E94AF
:10222000803CF8018083CE0101960E94803CB82E4C
:10223000F80181832396C70102960E94803CF80131
:1022400082838B2D82958F7083838B2D8F708183FA
:102250000C5F1F4FCC15DD0501F7DF91CF911F916A
:102260000F91FF90EF90DF90CF90BF900895CF92A5
:10227000DF92EF92FF920F931F93CF93DF93EC01C6
:10228000062F172FC12C93E0D92ECC0EDD1E7E0118
:10229000CE01F80160810E94903CF8016381629553
:1022A000607F81818F70682BCE0101960E94903CE7
:1022B0002396C7010296F80162810E94903C0C5F50
:1022C0001F4FCC15DD0519F7DF91CF911F910F91AD
:1022D000FF90EF90DF90CF9008952F923F924F9212
:1022E0005F926F927F928F929F92AF92BF92DF9296
:1022F000EF92FF920F931F93DF93CF93CDB7DEB78B
:102300006A97CDBFDEBF698F7A8F49875A870F835F
:102310001887DE2C0197E0E0F9E086A397A380916F
:10232000302D9091312D498D5A8D84179507B9F034
:10233000E0E0F1E0809110018F77808BCA01880F77
:10234000991F848B958B80E098E2808F918F88E332
:10235000848F83E0858F809110018068808B898DC8
:102360009A8D8093302D9093312D289F7001299F55
:10237000F00C389FF00C112400E010E0C801B70108
:1023800024E630E040E050E00E94653C3901B0E0D6
:10239000AB2EB8E2BB2EAA27BB27A21BB30BAD8383
:1023A000BE8322243324210119821A821B821C82BB
:1023B0008824992440E050E02D873E874F87588B32
:1023C000898D9A8D861997099C0140E050E0298BF0
:1023D0003A8B4B8B5C8BA98DBA8DCD01A0E0B0E020
:1023E0008D8B9E8BAF8BB88F49855A859A0140E0C3
:1023F00050E029873A874B875C878F81988580508A
:10240000984F8F839887898D9A8DA98EBA8E5C019B
:10241000BFC0DD20C1F469817A818B819C812D89C7
:102420003E894F89588D0E94433CF901E058FF4F87
:10243000EE0FFF1FE15DFA4FE590F4900027F7FCE7
:102440000095102F56C09D2D913061F4861497048D
:1024500008F449C0E12CF0E8FF2EFFEF0F2FFFEF4B
:102460001F2F47C0AD2DA23079F568147904C8F448
:10247000ED81FE81BF0180E090E0CB0177276627E8
:1024800029893A894B895C890E94653C6FEFE62E69
:102490006FE7F62E012D112DE21AF30A040B150B2E
:1024A00028C0C201B1012D853E854F8558890E9403
:1024B000653C79018A0120E030E84FEF5FEFE20EE2
:1024C000F31E041F151F15C03D2D333009F464C0E1
:1024D000343009F461C0353009F45EC0363049F457
:1024E0000E94000859C02FEFE22E2FE7F22E012D97
:1024F000112DC801B70129853A854B855C850E945D
:10250000F13B7B018C0120E43DE043E050E00E9480
:10251000653C8F819885820F931FA98DBA8D8D930D
:102520009C931197BDE781309B0728F0E98DFA8DC8
:10253000108211820AC0F0E180309F0730F0EFEF87
:10254000FFE0A98DBA8DED93FC930894811C911C3A
:10255000298D3A8D2E5F3F4F298F3A8F89819A813D
:10256000AB81BC8180509E4FAF4FBF4F89839A8310
:10257000AB83BC8320E030E041E050E0220E331E0C
:10258000441E551E4D815E814F5F5F4F4D835E83BC
:102590008A149B0408F43DCF6A96CDBFDEBFCF916D
:1025A000DF911F910F91FF90EF90DF90BF90AF9060
:1025B0009F908F907F906F905F904F903F902F9063
:1025C00008951F93182F8150883098F421E030E04F
:1025D00040E050E00AC0CA01B9012AE030E040E022
:1025E00050E00E94F13B9B01AC011F5F193099F74D
:1025F00003C020E030E0A901B901CA011F9108958C
:102600002F923F924F925F926F927F928F929F9202
:10261000AF92BF92CF92DF92EF92FF920F931F93F0
:10262000DF93CF93CDB7DEB72E97CDBFDEBF8091BE
:1026300010018068E0E0F1E0808B1A821D8223E0C7
:1026400030E02B833C8332E03A878AE090E08E834F
:102650009F831886198619821E861D86E2C5602F03
:1026600070E080E090E0A50194010E94F13B672FAB
:10267000782F892F9927261637064806590620F401
:102680006C197D098E099F09E02FF0E0E050F44DB0
:10269000660F771F6050784DDB012D913C911197AB
:1026A000C901880F991F820F931F892F8859808332
:1026B0000F5F0038A1F680E09CE260E070E040E04F
:1026C0002D850FEFEE8411E8C12E0E946F0C0E9441
:1026D0008408B82E803421F1803609F4BEC58038D4
:1026E00009F4BEC5803A09F4BEC5843441F480E0E3
:1026F00098E264E070E00E94FC10BB2412C08436B3
:1027000081F480E067E00E946F1081E79AE00E9408
:10271000DA1084E090E060E078E20E94371101C0B6
:10272000198280912D2D833009F0A5C0EA81EE2316
:1027300009F403C18FEFE0E4F6E086838091042D75
:102740009091052DE0E0F8E220E034E00DC07695B0
:1027500067954F5F5F4F60FFFACF41932F5F3F4F09
:1027600048E02030340721F0B90140E050E0F3CFD9
:102770000F921F922F923F929F92AF92CF92DF9231
:10278000EF92FF920F932F933F934F935F936F932B
:102790007F93AF93BF93CF93DF93EF93FF936FEF4D
:1027A00077E0681B790B880F991F880F991F880F96
:1027B000991F880F991F880F991FEE2422240BE080
:1027C000E0E0FCE2E1920A95E9F7D1E0CD2ED0E01D
:1027D000DD2EED2ED0EDFD2E21E030E040E050E08A
:1027E0009924AA24E0E0F8E2DCE23190FC3209F41A
:1027F000F8E2C32D088020FF08C05695479537950D
:10280000279500912806056F08C05695479537957E
:1028100027952C253D254E255F2558839018A20825
:10282000950EA21CBB27A89EA12D999EA10DBB1F92
:10283000A99EA00DB11DA60FB71FA0933803B0939A
:1028400039030F3F91F2FF91EF91DF91CF91BF914B
:10285000AF917F916F915F914F913F912F910F9128
:10286000FF90EF90DF90CF90AF909F903F902F9090
:102870001F900F9062C0843009F05FC08A81882366
:1028800009F45BC08FEFE0E4F6E086838091042DCD
:102890009091052D0F921F92CF92DF92EF92FF92AF
:1028A0000F932F933F934F935F936F937F93CF93A8
:1028B000DF936FEF77E0681B790B880F991FD1E0EA
:1028C000CD2ED0E0DD2EED2ED0EDFD2E21E030E03E
:1028D00040E050E0E89420FF08C0569547953795B2
:1028E000279500912806056F08C05695479537959E
:1028F00027952C253D254E255F25DD27589FC12D89
:10290000499FC10DDD1F599FC00DD11DC60FD71F97
:10291000C0933803D09339030F3FE9F2DF91CF9191
:102920007F916F915F914F913F912F910F91FF9008
:10293000EF90DF90CF901F900F9080E067E00E94B3
:102940006F109981992309F0A8C18EE69AE00E9440
:10295000DA100B816091002D7091012D8091022D74
:102960009091032D402F0E94FE0A8AE69AE00E9471
:10297000DA10602F68508091042D9091052D0E94EF
:102980008C0A87E69AE00E94DA10BB2009F449C459
:102990008B2D6B817C8140E050E02DE030E002E047
:1029A000EE24E394A2E0CA2E0E946A088B879C87DB
:1029B000AB85BC85AB83BC838B2D60E070E046EFBC
:1029C0005FEF2AE030E004E0F0E1EF2EE8E0CE2E09
:1029D0000E946A08E82EFF24E7FCF0940F2D1F2DBB
:1029E000EB81FC81E930F105B0F08B8185500E94CC
:1029F000E1126E9D90016F9D300D7E9D300D112472
:102A00008091042D9091052D820F931F8093042DAA
:102A10009093052D1DC08B810E94E112A8019701A2
:102A20000E94F13B9B01AC018091002D9091012D02
:102A3000A091022DB091032D820F931FA41FB51FEB
:102A40008093002D9093012DA093022DB093032D20
:102A50008091042D9091052DF3EC81359F0728F08E
:102A60001092042D1092052D0AC02CE98134920792
:102A700030F080E49CE98093042D9093052D8091A3
:102A8000002D9091012DA091022DB091032DC297A0
:102A9000A109B1098F3C36E8930733E9A30733E076
:102AA000B30760F082E390E0A0E0B0E08093002DF7
:102AB0009093012DA093022DB093032D8091002DB2
:102AC0009091012DA091022DB091032D813840EFFE
:102AD00094074AEFA40742E0B40760F080E890EF63
:102AE000AAEFB2E08093002D9093012DA093022DC8
:102AF000B093032D8B859C858930910508F0B5C076
:102B0000E090002DF090012D0091022D1091032DE9
:102B100060E870EF8AEF92E0A80197010E94433CC1
:102B2000220F331F441F551F20930B2D30930C2D64
:102B300040930D2D50930E2D203092E0390790E0F8
:102B4000490790E0590760F080E092E0A0E0B0E033
:102B500080930B2D90930C2DA0930D2DB0930E2DE3
:102B600020900B2D30900C2D40900D2D50900E2D5F
:102B7000612C40E2742E4CEB842E4EEB942EC4015B
:102B8000B301A20191010E94433CCA01B901A8010D
:102B900097010E94433C2093072D3093082D4093CA
:102BA000092D50930A2DC401B3010E94433CCA0170
:102BB000B901A20191010E94433C79018A012138A7
:102BC000A0EF3A07AAEF4A07A2E05A0700F180E215
:102BD00090E0A0E0B0E08093072D9093082DA093A3
:102BE000092DB0930A2D82E090E0A0E0B0E0809340
:102BF0000B2D90930C2DA0930D2DB0930E2D30E83E
:102C0000E32E30EFF32E3AEF032F32E0132F8091B3
:102C1000072D9091082DA091092DB0910A2D80309B
:102C2000E0E09E07E1E0AE07E0E0BE0770F0B69599
:102C3000A795979587958093072D9093082DA0933E
:102C4000092DB0930A2D82E001C081E08093000934
:102C500080E066E00E946F1084E69AE00E94DA103D
:102C6000C801B7014B850E94FE0A60910B2D70913F
:102C70000C2D4091042D5091052D2091062D009191
:102C80002E2D10912F2D8091072D9091082D30E041
:102C9000E0902D2D0E946D11C1C2F981F13009F033
:102CA000C2C080912D2D853009F06BC08AE59AE075
:102CB0000E94DA10888599850E94520986E59AE07B
:102CC0000E94DA108E819F81805098400E94CC092A
:102CD00020910B2D30910C2D8B2D6885798540E04E
:102CE00050E001E0EE24E394B2E0CB2E0E946A08AB
:102CF0004C0188879987B2FC09C0FC01EE0FFF1FC9
:102D0000E050F84D208131812E833F838B2D6E81E1
:102D10007F8140E050E020E030E108E2E0E1EE2E8B
:102D200098E0C92E0E946A088E839F83F401EE0FFB
:102D3000FF1FE050F84D80839183B40180E090E064
:102D4000982F872F762F66273A85E32FF0E0409162
:102D50000B2D50910C2DE49F9001E59F300DF49FB9
:102D6000300D112440E050E00E94433C2E5F2E873E
:102D70008E819F81B6E095958795BA95E1F78D870D
:102D80004DC280E59AE00E94DA108091062D0E94E3
:102D9000220987E49AE00E94DA1080912E2D90910A
:102DA0002F2D0E94CC09BB2009F460C26091062D32
:102DB0008B2D70E041E050E023E630E003E0EE24AC
:102DC000E394A2E0CA2E0E946A088093062D6091C7
:102DD0002E2D70912F2D8B2D40E358EF20ED37E0F5
:102DE00004E1F0E1EF2EE8E0CE2E0E946A088C01AB
:102DF00080932E2D90932F2D60910B2D70910C2D83
:102E00004091042D5091052D2091062D8091072D84
:102E10009091082D30E0E0902D2D0E946D111E86BE
:102E200040E84D87FBC18981823009F090C183E081
:102E3000AD81A89FC001112487529B4F0E94DA10D8
:102E400080E49AE00E94DA1090910F2D84E6989F1A
:102E5000C0011124880F892F881F990B91950E941A
:102E600022098AE39AE00E94DA108091042D909161
:102E7000052D60E00E948C0A46C10E948408B82E8D
:102E8000BD81BB2309F089C08091072D9091082D49
:102E9000A091092DB0910A2D9C0140910F2D50E079
:102EA0005695479556954795405E5F4F60E070E0B8
:102EB000481759076A077B0708F466C0C0900B2DB6
:102EC000D0900C2DE0900D2DF0900E2DE4E0CE165C
:102ED000D104E104F10408F457C0880F991FF69457
:102EE000E794D794C7944091042D5091052D2091DB
:102EF000062D00912E2D10912F2DB60130E0E0907F
:102F00002D2D0E946D112091072D3091082D220F3B
:102F1000331F3AC00E94822C6C0120910F2D30E0AB
:102F200040E050E0C801B7010E94F13B9601442700
:102F300037FD4095542F0E94F13BF2E1959587951E
:102F400077956795FA95D1F76E0D7F1D801F911FBC
:102F50006030F0E07F07F1E08F07F0E09F0734F486
:102F6000603271058105910534F009C06FEF7FEF84
:102F700080E090E004C060E270E080E090E0609368
:102F800026097093270903C0790100E010E00E9430
:102F90008408882309F4BECFB6C02D81213009F002
:102FA0005DC056C0E090042DF090052D00E010E0CB
:102FB0000E94822CDC01BD01882777FD8095982F27
:102FC000A80197010E94F13BE3E0959587957795DD
:102FD0006795EA95D1F720910F2D30E040E050E061
:102FE0000E94F13B9B01AC016FE0559547953795E9
:102FF00027956A95D1F72E0D3F1D401F511F57FF92
:1030000003C020E030E0A9018091072D9091082DA8
:1030100060910B2D70910C2D69017A012134BCE96E
:103020003B07B0E04B07B0E05B0734F020E4C22E72
:103030002CE9D22EE12CF12C2091062D00912E2D81
:1030400010912F2DA60130E0E0902D2D0E946D11E2
:103050000E948408882309F4A5CF55C0ED81E23091
:1030600009F051C060910F2D70E080E090E0209158
:10307000072D3091082D4091092D50910A2D0E9465
:10308000F13B7B018C013AC0992717FD9A95812F5E
:10309000702F6F2D60957095809590956E0D7F1DAA
:1030A000801F911F2091072D3091082D4091092DEF
:1030B00050910A2D621773078407950738F46091C1
:1030C0000F2D70E080E090E00E94F13B7B018C01CD
:1030D0006030F0E07F07F1E08F07F0E09F0734F009
:1030E000BFEFEB2EBFEFFB2E012D112DE092260935
:1030F000F09227098FEF9FE00197F1F70E94840873
:10310000882309F4C1CFBB2009F4B7CE60910F2DFD
:103110008B2D70E041E050E02FEF30E003E0A0E1C4
:10312000EA2EF8E0CF2E0E946A0880930F2D8B2D97
:103130006D8170E040E050E022E030E001E0EE24FC
:10314000E394E2E0CE2E0E946A088D8367C0298155
:10315000233009F063C083E39AE00E94DA10909173
:103160002D2D8BE0989FC00111248E519B4F0E9402
:10317000DA108FE29AE00E94DA108A850E94220912
:103180000B2DB3FE12C080912D2D982F915090934E
:103190002D2D882319F486E080932D2D80912D2DDF
:1031A000853011F40E94CF071A8204FF0DC0809170
:1031B0002D2D982F9F5F90932D2D863020F010920B
:1031C0002D2D0E94CF071A8202FF19C060910B2D8E
:1031D00070910C2D4091042D5091052D2091062DBC
:1031E00000912E2D10912F2D8091072D9091082D5B
:1031F00030E0E0902D2D0E946D1131E03A838B2D4F
:103200006A8570E041E050E024E030E001E0EE2427
:10321000E39492E0C92E0E946A088A874B2D4032BF
:1032200049F1C0900B2DD0900C2DE0900D2DF09019
:103230000E2DAA856A2F70E080E090E0A70196012C
:103240000E94F13B4B015C01160127010894210803
:1032500031084108510800E002CAB1E0B98361CAEF
:10326000E2E0E9835ECAF3E0F9835BCA1E8620E8E8
:103270002D87D7CF2E96CDBFDEBFCF91DF911F9187
:103280000F91FF90EF90DF90CF90BF90AF909F9005
:103290008F907F906F905F904F903F902F90089508
:1032A00020E030E070E00BC0A901440F551F9C01E5
:1032B00021703070242B352B969587957F5F76177C
:1032C00098F3C9010895611571058105910581F093
:1032D00020E005C096958795779567952C5F6830B7
:1032E000710581059105B0F7862F8370820F0895CF
:1032F00080E00895009759F020E003C096958795E7
:103300002C5F88309105D0F78370820F089580E09C
:1033100008952F923F924F925F926F927F928F9279
:103320009F92AF92BF92CF92DF92EF92FF920F9354
:103330001F93DF93CF93CDB7DEB7AC97CDBFDEBF82
:10334000862EC72E9C0120503C4F2D833E838F83B9
:1033500098877C0100E010E0EDEB4E2EE9EE5E2E4A
:10336000E7E06E2E712C5C01D5018D919C919C0142
:10337000442737FD4095542F29833A834B835C8340
:10338000F801EE7FE15DF94F859194919C01220F48
:10339000331FC90163E0880F991F6A95E1F7821B0B
:1033A000930BAA2797FDA095BA2FA3019201281B82
:1033B000390B4A0B5B0BCA01B90129813A814B8158
:1033C0005C810E94F13BD5018D939D935D010F5F60
:1033D0001F4FB4E000301B0739F6C70120E030E092
:1033E00050E8A52E57E0B52EAE0CBF1C870143C098
:1033F000E280F380DB01ED92FD92BD01E080F1807F
:10340000D201ED92FD922D0141505040349641156C
:10341000510571F7DC01A050BF4F80589F4FFC0150
:10342000A90106C06D917D91619371934F5F5F4FCC
:1034300063E040385607B0F3F50140E450E0D301B3
:103440006D917D913D016193719341505040B9F769
:10345000205C3F4FB2E020303B0769F4E9E0F0E048
:10346000ED87FE8721E030E02B8B3C8B812C41E007
:10347000942E58011FC1A82DBC2D3D012C01B30174
:10348000FC0140E450E0B4CFF601EE0FFF1FE15D18
:10349000FA4F85919491880F892F881F990B9C0171
:1034A000442737FD4095542F2B8F3C8F4D8F5E8FD7
:1034B000F601EE0FFF1FE15DF94F85919491880FA2
:1034C000892F881F990B9C01442737FD4095542F65
:1034D0002F8F38A349A35AA3C60168E00E94501950
:1034E000019668E00E9450196C01A80140505C4FA1
:1034F0004D8B5E8BC10180509C4F898F9A8F2F8A94
:10350000388E0F87188B19861A860FA318A7C9A69D
:10351000DAA69FC0AF85B8896D907C90882477FC2F
:103520008094982CED89FE89A080B180CC24B7FCD2
:10353000C094DC2CAF89B88D0D90BC91A02DABA7A9
:10354000BCA76F8D78A189A19AA1A40193010E94C3
:10355000F13BE72EF82E092F112707FD1A956B8DE9
:103560007C8D8D8D9E8DA60195010E94F13B672F6C
:10357000782F892F992787FD9A95E60EF71E081F49
:10358000191FEBA5FCA5CF01AA2797FDA095BA2F7F
:10359000E80EF91E0A1F1B1F15950795F794E7946F
:1035A000CF018E199F09AF85B8898D939D93AF8701
:1035B000B88BEF89F88DE192F192EF8BF88FA98D9E
:1035C000BA8D0D90BC91A02DABA7BCA76F8D78A133
:1035D00089A19AA10E94F13BE72EF82E092F11270D
:1035E00007FD1A95EBA5FCA5CF01AA2797FDA0958D
:1035F000BA2FE80EF91E0A1F1B1F6B8D7C8D8D8D57
:103600009E8DA40193010E94F13B672F782F892F93
:10361000992787FD9A95E61AF70A080B190B159555
:103620000795F794E7948BA59CA58E199F09AD8902
:10363000BE898D939D93AD8BBE8BE98DFA8DE19202
:10364000F192E98FFA8F29853A852F5F3F4F2987BD
:103650003A8749855A854415550508F45BCF0FA173
:1036600018A5C9A4DAA489819A81019689839A83CD
:10367000ABA1BCA10A0F1B1F2A0E3B1EE981FA81D8
:10368000AB88BC88EA15FB0508F4FECE4201ADA06C
:10369000BEA02D853E85215030402D873E872115C7
:1036A0003105E9F04B895C89440F551F4B8B5C8BCE
:1036B00096948794C401880F991F880F991F8BA334
:1036C0009CA38401000F111F0A0D1B1D1501CC24A2
:1036D000DD2419821A822401ADA2BEA2CFCF15012A
:1036E000ED80FE80650100E010E057017101C80126
:1036F00069E00E94501980179107F0F0880F991F18
:10370000F701E80FF91F40815181D6012D913C91BD
:103710001197208331834D935C93ED81FE81E80FF7
:10372000F91F80819181D5012D913C9111972083C2
:1037300031838D939C9311970F5F1F4FE2E0F0E070
:10374000CE0EDF1EAE0EBF1EF2E000301F0779F670
:103750001701D7018D919C911197ED81FE812081F8
:103760003181820F931F8D939C9311971082118248
:103770002D913C91442737FD4095542FCA01B90142
:103780000E94F13B26E095958795779567952A9558
:10379000D1F70E946319D7018C9311961C9287016F
:1037A00002501C4FF701EE5FFB4FED83FE838EEF5F
:1037B000A82E87E0B82E2A0C3B1C21E030E029839C
:1037C0003A830D8B1E8B8101AF81B88512962D91A6
:1037D0003C911397ED89FE8940815181C901841B79
:1037E000950B5C01CC24B7FCC094DC2CA986BA866E
:1037F000CB86DC86AD81BE81ED90FC90F801019016
:10380000F081E02DED87FE87CF018E0D9F1D5C01BD
:10381000CC24B7FCC094DC2CAF86B88AC98ADA8A7B
:1038200089819A8196958795FC01EE0FFF1FE15DD6
:10383000FA4FA590B490AA0CAB2CAA1CBB08CC24C0
:10384000B7FCC094DC2CFC01EE0FFF1FE15DF94FCB
:1038500085919491880F892F881F990B2C016624DC
:1038600057FC6094762CCA01820F931F8B8B9C8B24
:10387000C301B2012F85388949895A890E94F13BD9
:10388000672F782F892F992787FD9A951B01C601ED
:10389000B50129853A854B855C850E94F13B272F30
:1038A000382F492F552747FD5A9549018B899C8907
:1038B000820D931D821B930BAF81B88512968D9359
:1038C0009C931397ED85FE85EE1AFF0AC601B5019C
:1038D0002F85388949895A890E94F13B672F782FB3
:1038E000892F992787FD9A956B01C301B20129851C
:1038F0003A854B855C850E94F13B672F782F892F95
:10390000992787FD9A95C7018C199D09861B970BEE
:10391000AD81BE818D939C93EB89FC898E0E9F1E99
:1039200082189308AD89BE898D929C92F094E1949F
:10393000F108F394EC18FD08E61AF70AF801E082A2
:10394000F182AD81BE818D909D90AD83BE83AA240E
:1039500097FCA094BA2CEF81F8852281338144270B
:1039600037FD4095542FCA01B9010E94F13B6B010C
:103970007C01C501B401A50194010E94F13BC60E72
:10398000D71EE81EF91E9927F7FC9A958F2D7E2DDC
:103990006D2D0E946319AF81B88512968C93129792
:1039A00013961C92F80180809180AA2497FCA09421
:1039B000BA2CAD89BE892D913C91442737FD4095A5
:1039C000542FCA01B9010E94F13B6B017C01C50172
:1039D000B401A50194010E94F13BC60ED71EE81E5A
:1039E000F91E9927F7FC9A958F2D7E2D6D2D0E943B
:1039F0006319ED89FE898083118229813A812F5FC5
:103A00003F4F29833A834F8158854E5F5F4F4F83E5
:103A100058873297ED8BFE8B0250104051E02130D9
:103A2000350709F0D1CEAC96CDBFDEBFCF91DF9187
:103A30001F910F91FF90EF90DF90CF90BF90AF90CC
:103A40009F908F907F906F905F904F903F902F90BE
:103A500008952F923F924F925F926F927F928F9232
:103A60009F92AF92BF92CF92DF92EF92FF920F930D
:103A70001F93DF93CF93CDB7DEB7AC97CDBFDEBF3B
:103A80009C0120503E4F29833A838D839E837C0185
:103A900000E010E07DEBA72E79EEB72E77E0C72E81
:103AA000D12C2C01D2016D907C90882477FC8094DD
:103AB000982CF801EE7FE15DF94F859194919C017E
:103AC000220F331FC90153E0880F991F5A95E1F760
:103AD000821B930BAA2797FDA095BA2FA6019501EB
:103AE000281B390B4A0B5B0BCA01B901A4019301D6
:103AF0000E94F13BD2018D939D932D010F5F1F4FCB
:103B0000B1E000301B0771F61701E981FA81EFA3DC
:103B1000F8A79F01F70180E090E0B7014081518153
:103B2000DB014D935D93BD0142815381D9014D93DA
:103B30005D939D01019634968038910579F7E1E017
:103B4000F0E0ED8BFE8B1B8A1C8A40E4842E912CC6
:103B5000610115C1C5019695879596958795FC01DC
:103B6000EE0FFF1FE15DFA4F25913491220F232FB5
:103B7000221F330B6901EE24D7FCE094FE2CC98E82
:103B8000DA8EEB8EFC8EFC01EE0FFF1FE15DF94F2C
:103B900085919491880F892F881F990B9C01442748
:103BA00037FD4095542F2D8F3E8F4F8F58A3C50161
:103BB00066E00E945019019666E00E945019212C7F
:103BC000A2E03A2E260C371C4B815C8140505E4FA0
:103BD000498B5A8B6B817C816D877E876F8A788E4B
:103BE0001B861C862BA63CA61C019AC0AF89B88DEB
:103BF0008D919C915C01CC24B7FCC094DC2CA9A2D3
:103C0000BAA2CBA2DCA2ABA5BCA5AD90BC90CC2443
:103C1000B7FCC094DC2CED85FE85408051806D8D15
:103C20007E8D8F8D98A129A13AA14BA15CA10E9404
:103C3000F13BE72EF82E092F112707FD1A95698D04
:103C40007A8D8B8D9C8DA60195010E94F13B672F8B
:103C5000782F892F992787FD9A95E60EF71E081F62
:103C6000191FC201AA2797FDA095BA2FE80EF91EC9
:103C70000A1F1B1F15950795F794E7944E185F08C8
:103C8000AF89B88D4D925D92AF8BB88FED85FE8573
:103C9000E192F192ED87FE87A989BA894D905C90F7
:103CA0006D8D7E8D8F8D98A10E94F13BE72EF82EB1
:103CB000092F112707FD1A95C201AA2797FDA09584
:103CC000BA2FE80EF91E0A1F1B1F698D7A8D8B8D86
:103CD0009C8D29A13AA14BA15CA10E94F13B672FC9
:103CE000782F892F992787FD9A95E61AF70A080BEE
:103CF000190B15950795F794E7944E185F08EBA5F7
:103D0000FCA541925192EBA7FCA7A989BA89ED9233
:103D1000FD92A98BBA8BEB85FC853196EB87FC87EE
:103D2000AB84BC84A814B90408F460CF51012F817E
:103D300038852F5F3F4F2F8338874DA15EA1640EDA
:103D4000751E6B817C81640F751F6B837C838F81F3
:103D50009885AD89BE898A179B0708F4FBCEC9A454
:103D6000DAA4EB89FC893196EB8BFC8BE730F1050B
:103D7000D9F0AA0FBB1FAD8BBE8B969487945401CC
:103D8000AA0CBB1CAA0CBB1CADA2BEA23401660CC3
:103D9000771C6C0C7D1CCB82DC82AA24BB241F8286
:103DA0001886C9A6DAA6D3CF1601760100E010E086
:103DB000CFA0D8A45101C80167E00E945019801714
:103DC0009107F0F0880F991FF701E80FF91F208184
:103DD0003181D5014D915C911197408351832D9391
:103DE0003C93E981FA81E80FF91F80819181D60126
:103DF0002D913C911197208331838D939C93119742
:103E00000F5F1F4FE2E0F0E0AE0EBF1ECE0EDF1ED2
:103E10000038110581F61701D7018D919C911197FA
:103E2000E981FA8120813181820F931F8D939C93C8
:103E30001197108211822D913C91442737FD4095B6
:103E4000542FCA01B9010E94F13B26E09595879550
:103E5000779567952A95D1F70E946319D7018C93BE
:103E600011961C92870102501F4FF701EE5FFD4F24
:103E7000E983FA838EEFA82E82E0B82E2A0C3B1C31
:103E800021E030E02B833C830B8B1C8B8101AD81C7
:103E9000BE8112962D913C911397EB89FC8940814C
:103EA0005181C901841B950B5C01CC24B7FCC094E3
:103EB000DC2CAF82B886C986DA86A981BA81ED90FA
:103EC000FC90F8010190F081E02DEB87FC87CF0199
:103ED0008E0D9F1D5C01CC24B7FCC094DC2CAD86FC
:103EE000BE86CF86D88A8B819C81B3E096958795D4
:103EF000BA95E1F7FC01EE0FFF1FE15DFA4FA590C7
:103F0000B490AA0CAB2CAA1CBB08CC24B7FCC09460
:103F1000DC2CFC01EE0FFF1FE15DF94F85919491C0
:103F2000880F892F881F990B2C01662457FC6094F9
:103F3000762CBA01620F731F698B7A8BC301B201B1
:103F40002D853E854F8558890E94F13B672F782F3C
:103F5000892F992787FD9A951B01C601B5012F81ED
:103F6000388549855A850E94F13B272F382F492FE4
:103F7000552747FD5A95490189899A89820D931DD4
:103F8000821B930BAD81BE8112968D939C931397E8
:103F9000EB85FC85EE1AFF0AC601B5012D853E852D
:103FA0004F8558890E94F13B672F782F892F9927D9
:103FB00087FD9A956B01C301B2012F813885498530
:103FC0005A850E94F13B672F782F892F992787FD0B
:103FD0009A95C7018C199D09861B970BA981BA81F7
:103FE0008D939C93E989FA898E0E9F1E82189308FF
:103FF000AB89BC898D929C92F094E194F108F39482
:10400000EC18FD08E61AF70AF801E082F182A981AE
:10401000BA818D909D90A983BA83AA2497FCA0941D
:10402000BA2CED81FE8122813381442737FD4095F2
:10403000542FCA01B9010E94F13B6B017C01C501FB
:10404000B401A50194010E94F13BC60ED71EE81EE3
:10405000F91E9927F7FC9A958F2D7E2D6D2D0E94C4
:104060006319AD81BE8112968C93129713961C92A0
:10407000F80180809180AA2497FCA094BA2CAB8987
:10408000BC892D913C91442737FD4095542FCA019E
:10409000B9010E94F13B6B017C01C501B401A5018E
:1040A00094010E94F13BC60ED71EE81EF91E992707
:1040B000F7FC9A958F2D7E2D6D2D0E946319EB894B
:1040C000FC89808311822B813C812F5F3F4F2B83A2
:1040D0003C834D815E814E5F5F4F4D835E8332979F
:1040E000EB8BFC8B025010402134310509F0CFCE10
:1040F000AC96CDBFDEBFCF91DF911F910F91FF90A6
:10410000EF90DF90CF90BF90AF909F908F907F9077
:104110006F905F904F903F902F9008952F923F9215
:104120004F925F926F927F928F929F92AF92BF92C7
:10413000CF92DF92EF92FF920F931F93CF93DF9373
:1041400080E098E0E0E0F1E084A395A3DD249924E9
:10415000FF2410E0412C41E0542E8824839439E65A
:10416000732E26E4222E312CA12C92E0B92E84E06D
:10417000682E112321F08091132D8730A8F4DD20C3
:1041800099F4809120018068F20180A37894809254
:104190004800889580E090E260E04091352D20E075
:1041A0000E945A2D992493948091200187FD30C05C
:1041B000992031F080E090E260E07CE20E94891971
:1041C0002091322D3091332D8091342D772D781B15
:1041D00060E0C901860F911DFC01EE0FFF1FE0504A
:1041E000F04E408151814734510514F020823182D4
:1041F000E62FF0E0E050F44DDC01AA0FBB1FA05009
:10420000B04E8C91870F80836F5F603811F79924CF
:104210000E948408182F4091322D4195E090112D75
:10422000E39480E09CE260E070E02091342D0FEF99
:10423000A1E8CA2E0E946F0C80E067E00E946F1018
:10424000103461F0103609F4D8C0103A09F47EC079
:10425000FF2009F04BC0112309F440C06091132DD9
:10426000812F70E042E050E02EE030E001E0F2E02B
:10427000EF2ECC24C3940E946A088093132D609182
:10428000352D812F70E040E050E026E030E0E8E09E
:10429000EE2E90E1C92E0E946A088093352D9091F0
:1042A000132DE92FF0E0EE0FFF1FE35EF44F259191
:1042B00034912093660930936709983010F097E0A5
:1042C00006C0953018F0F501648203C092E0F50154
:1042D0009483880F880F8360F50180A38091132D4C
:1042E0006091352D0E947E0EFF247FC0FF2DF1309E
:1042F00069F56091322D7091332D812F40E050E0AF
:1043000020E831E005E0A2E0EA2ECC24C3940E942C
:104310006A088093322D9093332D6091342D812F34
:1043200070E040E050E028E230E004E0F8E0EF2EFA
:10433000E0E1CE2E0E946A08682F8093342D809190
:10434000322D9091332D0E94A30E4FC06091112DFC
:104350007091122D812F40E050E020E830E005E020
:10436000EE24E39492E0C92E0E946A08E82EE70149
:104370007E01F92EE701E092112DF092122DE091CD
:10438000132DF0E0EE0FFF1FE35EF44FE590F49085
:104390006091322D7091332D6C0F7D1F80E090E085
:1043A00024E83EE140E050E00E94F13B970140E00C
:1043B00050E00E94433C8091342D90E08058904022
:1043C000C050D44D6881860F911DFC01EE0FFF1F78
:1043D000E80FF91FF595E795F595E795CA01B9013D
:1043E0004E2F0E94410FE2E0FE2E103811F4D82427
:1043F000C2CE103209F0BDCE03C0FF24F39479CFB2
:10440000DF91CF911F910F91FF90EF90DF90CF90B0
:10441000BF90AF909F908F907F906F905F904F90E4
:104420003F902F9008957F928F929F92AF92BF926C
:10443000CF92DF92EF92FF920F931F93CF93DF9370
:10444000982E792E862EC0E0D0E081E0A82EB12CE7
:1044500080E06C2F0E946F108C2F8F5C0E949D104B
:1044600086E00E94690F65010C2E02C0CC0CDD1C99
:104470000A94E2F7E92CF72C00E010E00F5F1F4FE1
:10448000F70181917F0190E08C219D21009711F02F
:1044900081E001C088E0F701208130E02C213D213E
:1044A0002115310521F083FF04C0876002C080FD23
:1044B0008E6098012F7030702115310509F48066E7
:1044C000801609F482690E94690F0D371105B1F653
:1044D0002196C830D10509F0BBCFDF91CF911F9154
:1044E0000F91FF90EF90DF90CF90BF90AF909F9093
:1044F0008F907F90089518952F923F924F925F92E0
:104500006F927F928F929F92AF92BF92CF92DF92E3
:10451000EF92FF920F931F93DF93CF9300D0CDB70D
:10452000DEB7E0E0F0E280E090E08193019627E0E2
:104530008F3F9207D1F7DD2480E090E0AA24442445
:104540004394BB245524FF2488248A94982C20E685
:10455000622E26E0722E1C010E948408182F842DE2
:1045600090E0D101A050B04E40E05CE29C01298374
:104570003A83FA012C912193A80FB91F2CE2EE3750
:10458000F207C1F7C4010197F1F780E09CE26A2DC0
:104590000E941322112319F45520F1F202C0552470
:1045A0005A945A9480E067E00E946F10103409F02A
:1045B000ADC080E09BE00E94DA100E94840888234E
:1045C000E1F7C4010197F1F70D2D84E267E00E9445
:1045D0006F100E948408182FE5E00E9FC00111247F
:1045E0008658954F0E94DA108AEF9AE00E94DA10FE
:1045F000113021F4002339F0015005C0123019F4B4
:104600000E3008F40F5FF4013197F1F71034E9F63A
:10461000D02E81EF9AE00E94DA100E94840888234D
:10462000E1F7FFEFF0934606C4010197F1F7ED2D96
:10463000F0E0EE0FFF1FE054F54F2591349190917B
:10464000362D9093B00082E1F301808B5091372D8D
:104650005093B00081E1808B809169068C7F8260ED
:104660008187592B52878091A20082608093A2009B
:104670009091382D4091392D552371F081E0809330
:10468000480088958091280681FF13C080916806B4
:1046900089238417B1F70DC081E08093480004C0DE
:1046A0008091280681FF05C08091680689238417C0
:1046B000B9F72115310581F480E098E00F93EF936D
:1046C000FF93E0E0F0E20091680601930197D9F7CB
:1046D000FF91EF910F9122C0A0E0B8E00F938F936C
:1046E0009F93EF93FF93E0E0F0E20091680601935F
:1046F000000000000000C9010197F1F71197A9F728
:10470000FF91EF919F918F910F9108C0103641F06A
:10471000103A09F4F0C0103809F4F0C0BB20A9F534
:104720008EEE9AE00E94DA1080E098E069817A814A
:104730000E94303C9B012D573040812FB10140E059
:1047400050E004E1B2E0EB2ECC24C3940E946A084E
:10475000482F592F1A01C1010E9485098BEE9AE05A
:104760000E94DA10812F69817A8141E050E020E1D6
:1047700030E002E0A8E0EA2EF0E1CF2E0E946A08C5
:10478000482E0E942209BB24B2C09B2D913011F506
:1047900086EE9AE00E94DA10812F6A2D70E040E0E8
:1047A00050E020E830E004E0EE24E394E2E0CE2E96
:1047B0000E946A08A82E90E00E94850982EE9AE085
:1047C0000E94DA10EA2DF0E0E050F44D80810E9462
:1047D00022098DC0EB2DE23009F089C08CED9AE002
:1047E0000E94DA10EE2401E0CD2CD12E8091382DDC
:1047F000802349F48091362D802359F48091372D00
:10480000802369F006C08091392D802351F012E099
:104810000BC08091372D802331F013E005C010E0EC
:1048200003C011E001C014E0812F90E0EF1469F49F
:104830008C5E924DFC0180810E94BB10FD2DF830F2
:1048400061F41F5F153041F008C08C5E924DFC0191
:1048500080810E949D1001C010E0402F4095809102
:10486000382D84238093382D3091392D3423309383
:10487000392D2091372D24232093372D9091362DDB
:1048800094239093362D113021F4802B8093382D72
:1048900014C0123039F4802B8093382D302B309394
:1048A000392D0BC0133021F4202B2093372D05C058
:1048B000143019F4902B9093362DE394FE2DF8309C
:1048C00011F0000F93CF1D2DDC2C123029F4F3943E
:1048D0002F2D283038F440CE113049F4FF2021F03C
:1048E000FA943ACEFF2438CE27E0F22E35CE10329D
:1048F00009F032CE06C0BB24B3944ACF92E0B92E61
:104900006DCF0F900F90CF91DF911F910F91FF907E
:10491000EF90DF90CF90BF90AF909F908F907F905F
:104920006F905F904F903F902F9008951F920F923D
:104930000FB60F9211248F93EF93FF93E0E0F1E015
:1049400081A1806281A3FF91EF918F910F900FBEA3
:104950000F901F9018951F920F920FB60F9211246F
:104960008F93EF93FF93E0E0F1E081A9806281AB48
:10497000FF91EF918F910F900FBE0F901F901895A0
:104980002F923F924F925F926F927F928F929F925F
:10499000AF92BF92CF92DF92EF92FF920F931F934D
:1049A000DF93CF93CDB7DEB7C754D040CDBFDEBFC6
:1049B000E0913A2DF0E0E95FF44FE490E0913B2D77
:1049C000F0E0E95FF44F049119821A821B821C8285
:1049D00081E0A0E0B6E011968C93119709A7E8A6B4
:1049E0001F8A1AA6222488249924FF24FF2021F05C
:1049F00080911C2D873020F5AF88AA2009F59920D9
:104A000029F08091300180688093300180912001ED
:104A10008068809320017894BB24B394B0924800BE
:104A2000889540913A2D453008F044E020913B2D87
:104A3000253008F024E080E090E2692D0E945A2D94
:104A40000E948408F82E20911D2D822F90E0837003
:104A500090708330910531F43F2D303819F0882063
:104A600009F052C4E0913C2DFF27E7FDF09514E0DA
:104A7000EE0FFF1F1A95E1F72695269523702B87D9
:104A800020911E2D30911F2D37FD07C089010F5F2A
:104A90001F4F203831054CF402C000E010E0A9019E
:104AA00045585E4F4C8B5D8B04C06BEF71E06C8B97
:104AB0007D8B992031F4AC89BD89A050BE4FAC8B61
:104AC000BD8B009799F082309105A9F460911C2D5F
:104AD00088EC90E070E00E94303C6D507040822D78
:104AE00090E08617970754F4239405C08824839494
:104AF0001E8A222406C088241E8A03C08824B1E0AE
:104B0000BE8B0D831E83A0901C2DABA688279927F2
:104B1000821B930B6C01D594C794D594C794CCA6F3
:104B2000DDA6A60140505E4F4CAB5DABB8A4AB2CEC
:104B3000BB24CC24DD24AC86BD86CE86DF864091A6
:104B4000202D5091212D5A01CC24B7FCC094DC2C8F
:104B5000AF82B886C986DA864C855D856E857F858D
:104B6000A2E0440F551F661F771FAA95D1F74EABE1
:104B70005FAB68AF79AFAC84BD84CE84DF8456E090
:104B8000AA0CBB1CCC1CDD1C5A95D1F7AEA6BFA647
:104B9000C8AAD9AA6C01D594C794CAAADBAAA6014F
:104BA00040505E4F4AAF5BAF8091222D9091232DF4
:104BB0005C01CC24B7FCC094DC2CACAEBDAECEAE58
:104BC000DFAEC801821B930B880F991F9C012050F8
:104BD0003C4D28A339A3AC014050504E4AA35BA3DF
:104BE000000F111F0250104EEE2479A5672F70E0C0
:104BF00080E090E024966CAF7DAF8EAF9FAF24979E
:104C0000CF010A978CA39DA3DF011A96AEA3BFA381
:104C10009F012B5F3F4F26962EAF3FAF2697AF01E8
:104C20004550504028964EAF5FAF28973F2C62C347
:104C3000882009F0B5C05B85552309F042C0D80132
:104C400016962D913C91179712968D919C911397E2
:104C50004D915C911197840F951F14964D915C9125
:104C60001597840F951F820F931F64E070E00E94D8
:104C7000303C2696EEADFFAD2697E617F7070CF011
:104C800091C0D80118968D919C911997820F931F0E
:104C90001A962D913C911B97820F931F1C962D9174
:104CA0003C911D97820F931F64E070E00E94303C9E
:104CB0002896EEADFFAD28976E177F070CF479C0EC
:104CC00071C0FB85F230B1F4D80114968D919C919E
:104CD0001597EEA1FFA1E817F9070CF063C016962F
:104CE0008D919C911797ACA0BDA08A159B050CF4E3
:104CF00060C058C02B852130E1F5D80116962D9162
:104D00003C91179712968D919C9113974D915C91C0
:104D10001197840F951F14964D915C911597840FF0
:104D2000951F820F931F64E070E00E94303CECA15D
:104D3000FDA16E177F07B4F5D80118968D919C914F
:104D40001997820F931F1A962D913C911B97820FF2
:104D5000931F1C962D913C911D97820F931F64E029
:104D600070E00E94303CEEA1FFA1E617F7070CF1BE
:104D700019C0FB85F330B1F4D80114968D919C9144
:104D80001597ECA1FDA18E179F0764F416968D91DF
:104D90009C911797AEA0BFA0A816B90654F002C008
:104DA000882483942E2D2F3708F090C2882071F02C
:104DB00004C0222488248394EE24FF24B22CAE2C39
:104DC000C82C892C9F2CD32C18016CC23E8933230C
:104DD000A1F77CC24BA5442309F052C1992019F4D4
:104DE0008CA59DA502C08CA99DA96D817E81860F91
:104DF000971FFC01EE0FFF1FEE5FFF4D20813181F9
:104E0000A901662757FD6095762F488B598B6A8BD1
:104E10007B8BFC01EE0FFF1FEC5FFF4D208131818A
:104E2000A901662757FD6095762F488F598F6A8FA5
:104E30007B8FFC01EE0FFF1FEA5FFF4D408051802A
:104E4000662457FC6094762CFC01EE0FFF1FE85F90
:104E5000FF4D808191819C01442737FD4095542F5F
:104E60002C8F3D8F4E8F5F8F688D798D8A8D9B8DB6
:104E700028E330E040E050E00E94F13B7B018C01F0
:104E8000688979898A899B892BEF3FEF4FEF5FEF24
:104E90000E94F13BE60EF71E081F191FC301B20165
:104EA0002EE030E040E050E00E94F13BE60EF71EBD
:104EB000081F191F4C8D5D8D6E8D7F8DE41AF50ACC
:104EC000060B170BC801B7012C853D854E855F8504
:104ED0000E94F13BFEE09595879577956795FA9549
:104EE000D1F72F81388549855A85620F731F841F3A
:104EF000951F6F3F71058105910509F01CF497FD21
:104F000006C008C06FEF70E080E090E003C060E092
:104F100070E0CB01EA2DF0E0E050F44D6083A39403
:104F2000288D398D4A8D5B8D240D351D461D571DED
:104F3000CA01B901E3E0660F771F881F991FEA9540
:104F4000D1F7620F731F841F951F288939894A89F9
:104F50005B89621B730B840B950B2C8D3D8D4E8DE5
:104F60005F8D621B730B840B950B2EA93FA948AD77
:104F700059AD0E94F13B3EE09595879577956795F1
:104F80003A95D1F72F81388549855A85620F731F6D
:104F9000841F951F6F3F71058105910509F01CF471
:104FA00097FD06C008C06FEF70E080E090E003C09E
:104FB00060E070E0CB01EA2DF0E0E050F44D60835A
:104FC000A394688D798D8A8D9B8D2EE030E040E032
:104FD00050E00E94F13B7B018C01488959896A8924
:104FE0007B89E41AF50A060B170BC301B20128E30B
:104FF00030E040E050E00E94F13BE60EF71E081F53
:10500000191F6C8D7D8D8E8D9F8D2BEF3FEF4FEF98
:105010005FEF0E94F13BE60EF71E081F191FC80143
:10502000B7012C853D854E855F850E94F13B2EE0C2
:1050300095958795779567952A95D1F72F8138852E
:1050400049855A85620F731F841F951F6F3F710535
:105050008105910509F01CF497FD06C008C06FEFAB
:1050600070E080E090E003C060E070E0CB01EA2DEA
:10507000F0E0E050F44D6083A394C301B201AAC0F4
:105080003BA5313009F0B4C0992019F42AA93BA9F5
:1050900002C02AAD3BAD4D815E81240F351FF90161
:1050A000EE0FFF1FEA5FFF4D80819181AC01662703
:1050B00057FD6095762F488B598B6A8B7B8BF90156
:1050C000EE0FFF1FEC5FFF4D40805180662457FCC0
:1050D0006094762C440E551E661E771EF901EE0F65
:1050E000FF1FE85FFF4D60817181882777FD809504
:1050F000982FF901EE0FFF1FEE5FFF4DE080F1806A
:105100000027F7FC0095102F6E0D7F1D801F911F4B
:10511000F901EE0FFF1FE65FFF4DE080F1800027F1
:10512000F7FC0095102FF901EE0FFF1FE050F04E35
:1051300020813181442737FD4095542FE20EF31E24
:10514000041F151F2AEF3FEF4FEF5FEF0E94F13B67
:10515000E60EF71E081F191FC301B20126E230E058
:1051600040E050E00E94F13BE60EF71E081F191FB9
:10517000C801B7012C853D854E855F850E94F13BB6
:105180005EE095958795779567955A95D1F72F812C
:10519000388549855A85620F731F841F951F6F3F9D
:1051A00071058105910509F01CF497FD06C008C042
:1051B0006FEF70E080E090E003C060E070E0CB0152
:1051C000EA2DF0E0E050F44D6083A394688979897A
:1051D0008A899B892EA53FA548A959A90E94F13B20
:1051E0004EE095958795779567954A95D1F717C0C5
:1051F000AAA1BBA12D913C9111979920A9F4442714
:1052000037FD4095542F6C857D858E859F850E9446
:10521000F13B672F782F892F992787FD9A952F814A
:10522000388549855A851BC0A8A1B9A12D913C910B
:105230001197442737FD4095542F24966CAD7DADD2
:105240008EAD9FAD24970E94F13B672F782F892F59
:10525000992787FD9A952CAD3DAD4EAD5FAD620FA0
:10526000731F841F951F6F3F71058105910509F01C
:105270001CF497FD06C008C06FEF70E080E090E07E
:1052800003C060E070E0CB012A2D30E0992029F0C6
:105290002058334DD9016C9304C02050344DF9018E
:1052A00060839394292D30E0882019F082E090E00B
:1052B00002C081E090E0281739070CF48BCD982CC0
:1052C000EA2C8C2C81012B2C3D2CE3942D813E81EA
:1052D0002F5F3F4F2D833E8348A159A14E5F5F4F03
:1052E00048A359A36AA17BA16E5F7F4F6AA37BA3EA
:1052F0000E5F1F4F8D819E81AC89BD898A179B07E8
:1053000008F496CCF32C02C08824839440911E2D7F
:105310004E5F2091202D992019F00091222D01C07F
:105320000FEF80E09CE260E87CE2E980CA800E94A6
:105330006F0C80E067E00E946F10BF2DB03881F4E1
:1053400080913D2D823009F048C280911D2D8370DF
:10535000833009F442C2EF89F1E0EF27EF8B3DC2C1
:105360002F2D203419F410923D2D4FC03F2D303693
:1053700021F441E040933D2D48C05F2D503A21F487
:1053800083E080933D2D41C06F2D643459F597FC27
:105390003CC0992059F071E47093030280E098E0DA
:1053A000809324019093250180E018C095E49093A8
:1053B0000302A0E0B4E0A0932401B0932501809102
:1053C0001E2D90911F2DB1E08C339B0734F0EBE341
:1053D000F1E0E0931E2DF0931F2D83E090E8992ECD
:1053E000982A13C0FF2DF43659F4992071F097FCD8
:1053F0000CC0AA24A3949A2400E8B02E9B2805C0D0
:10540000FF2019F41FE7C12E9C2080913D2D882399
:1054100009F070C080911C2D292D30E0B1E0AB2E39
:10542000B12CA222B32290FE03C060913B2D02C09A
:1054300060913A2D0E945A0EFF2009F4B4C1609188
:105440001C2D8F2D70E040E050E02EE030E001E0B8
:10545000A2E0EA2ECC24C3940E946A0880931C2DFB
:10546000992029F0843018F484E080931C2D8091D9
:105470001C2D0E94AB2CA114B10491F060913B2D26
:105480008F2D70E040E050E026E030E001E0F8E0F1
:10549000EF2EE0E1CE2E0E946A0880933B2D11C0D2
:1054A00060913A2D8F2D70E040E050E026E030E032
:1054B00001E098E0E92E10E1C12E0E946A08809375
:1054C0003A2D60913B2DE62FF0E0E95FF44FE49038
:1054D00080913A2DE82FF0E0E95FF44F0491853098
:1054E00008F084E0653008F064E00E94CE2CE9A664
:1054F00008A759C1813009F05CC080911E2D9091A0
:105500001F2DCE97292D30E0B1E0AB2EB12CA22279
:10551000B32290FE03C06091222D02C06091202D25
:1055200060580E94A30E60911E2D70911F2D99202E
:1055300019F02BE331E002C02BE333E08F2D45EC73
:105540005EEF05E0EE24E394A2E0CA2E0E946A0812
:1055500080931E2D90931F2DA114B104A9F060918A
:10556000222D7091232D8F2D40E050E02FEF30E061
:1055700004E0F0E1EF2EE8E0CE2E0E946A0880936E
:10558000222D9093232D0FC16091202D7091212DFC
:105590008F2D40E050E02FEF30E004E090E1E92E65
:1055A00018E0C12E0E946A088093202D9093212D2F
:1055B000FAC0823009F07EC000913A2DE02FF0E071
:1055C000E95FF44FE49060913C2D772767FD70957B
:1055D000872F972F28E833E140E050E00E94F13B0D
:1055E0002E2D30E040E050E00E94653C04C055950F
:1055F0004795379527950A95D2F7203060E836070A
:1056000060E0460760E056074CF4283273EA37073B
:105610007FEF47077FEF570734F009C02FEF3FE7D1
:1056200040E050E004C020E030E84FEF5FEF8091B1
:105630001D2DB9010E94C70E2F2DF1FE07C08091CC
:105640001D2D803418F4805E80931D2D20FF07C02F
:1056500080911D2D803218F0805280931D2D8F2D4A
:105660008430A1F490911D2D96FF03C088E0892716
:105670000BC095FF04C09F2590931D2D07C0892F57
:105680008F5F83709C7F892B80931D2D24FF07C023
:1056900080913C2D82381CF0815080933C2D23FF5B
:1056A00082C080913C2D8F3709F47DC08F5F80933D
:1056B0003C2D79C0833009F076C09AA5492E552437
:1056C000B1E0AB2EB12CAC0EBD1EA40CB51CD501A7
:1056D0006C918F2D70E040E050E020E830E004E075
:1056E000EE24E394A2E0CA2E0E946A08F5018083AA
:1056F0008F2DB20140E050E021E030E001E0F0E128
:10570000EF2EE8E0CE2E0E946A088AA700911C2D99
:10571000E02FF0E0EE0FFF1FE35EF44F6591749110
:1057200080E090E02981332727FD30954A81552775
:1057300047FD5095241B350B442737FD4095542FCA
:105740000E94F13B053078F42AE030E040E050E080
:105750000E94F13B28E030E040E050E00E94653CD0
:10576000002379F016C00A3028F428E030E040E049
:1057700050E004C020E530E040E050E00E94653C8D
:105780000EC092E055954795379527959A95D1F794
:1057900006C0013021F45595479537952795C901E5
:1057A000602F0E941C0F90FE03C087E19BE002C0A7
:1057B00081E19BE00E94DA10FF89FF2311F083E56D
:1057C00005C0882011F482E501C087E40E949D1085
:1057D0002F2D203209F00AC904C032E030933D2D4C
:1057E00014CEC95BDF4FCDBFDEBFCF91DF911F91DC
:1057F0000F91FF90EF90DF90CF90BF90AF909F9070
:105800008F907F906F905F904F903F902F90089572
:10581000AAECB1E092E09C93E82FF0E084911C9216
:105820000895CF93DF9380E20E94082CC0E0D2E07D
:105830008C8781E20E94082C8D8788ED80938001FF
:10584000E0E4F9E043E0408380E490E086A397A39E
:1058500081E0888330E139838981898322E02A834A
:1058600081E48B832C8348A38BE289A348A783E33D
:1058700089A718AA39ABA0EAB0E012968C911297CA
:10588000826012968C931297E0E0F1E080E88083CA
:1058900055E050A321A312968C9112978260129624
:1058A0008C93129745E942A333A380E098E084A348
:1058B00095A330A721A712A680E090E284A795A720
:1058C00016A650AB21AB42AB81E183AB80E094E004
:1058D00084AB95AB82E180AF21AF12AE80E094E261
:1058E00084AF90933D0110923E01DF91CF910895D6
:1058F000E0E0F2E010821092000181E08093400924
:1059000012820895E0E0F2E0808184608083208943
:105910003189C9010895E0E0F2E0808188608083E8
:1059200022893389C90108958091000280618093A2
:105930000002809133028823E1F38FE08A95F1F72A
:105940002091140230E040911502942F80E0282B22
:10595000392BC9010895E82FF0E0EE0FFF1FE35E39
:10596000F44F2591349121503040E0E4F9E026A332
:1059700037A3893010F087E00DC0883011F486E03D
:1059800009C0873011F484E005C0853010F083E051
:1059900001C082E0E0E0F2E084830895660F660FC4
:1059A0006360E0E0F2E060A7880F880F836080A367
:1059B00008957F928F929F92AF92BF92CF92DF9283
:1059C000EF92FF920F931F93CF93DF9382E0E0E07B
:1059D000F2E08483E4E0CE2EE3E0DE2EBB2477E029
:1059E000A72E812C62E0962E59E1752E8B2D6A2D03
:1059F0000E94103C990F990F9360F40190A390A717
:105A0000C0E0D0E0EE24FF24870114C0872D8A95E2
:105A1000F1F7FB2DF73018F40E94822C02C00E948F
:105A20008B2CAA2797FDA095BA2FE80EF91E0A1F06
:105A30001B1F2196D7FFEACF41E115950795F794F3
:105A4000E7944A95D1F781E8E8168FEFF8068FEFD3
:105A500008078FEF180744F431E8E32E3FEFF32EE9
:105A60003FEF032F3FEF132FE0E8EE16F10401059F
:105A700011052CF02FE7E22EF12C012D112D6E2DAA
:105A80006195C6010E94903CB3940894C11CD11C3E
:105A9000FB2DFE3009F0AACFDF91CF911F910F911E
:105AA000FF90EF90DF90CF90BF90AF909F908F903E
:105AB0007F900895EF92FF920F931F93DF93CF9300
:105AC00000D0CDB7DEB78C01842F90E08C5F9C4F67
:105AD00029836A830E94803CE82EFF24EE0CFF1C81
