:100000000C9446060C9463060C9463060C946306E9
:100010000C9463060C9463060C9463060C940824F9
:100020000C941D240C9463060C9463060C946306D4
:100030000C9463060C9463060C9463060C9463069C
:100040000C9463060C9463060C9463060C9463068C
:100050000C9463060C9463060C9463060C9463067C
:100060000C9463060C9463060C9463060C9463066C
:100070000C9463060C9463060C9463060C9463065C
:100080000C9463060C9463060C94DA070C946306D4
:100090000C9463060C9463060C9463060C9463063C
:1000A0000C9463060C9463060C9463060C9463062C
:1000B0000C9463060C9463060C9463060C9463061C
:1000C0000C9463060C9463060C9463060C9463060C
:1000D0000C9463060C9463060C9463060C946306FC
:1000E0000C9463060C9463060C940C350C94630614
:1000F0000C9463060C9463060C9463060C946306DC
:100100000C94ED210C9463060C9463060C94630626
:100110000C9463060C9463060C9463060C946306BB
:100120000C9463060C9463060C9463060C946306AB
:100130000C9463060C9463060C9463060C9463069B
:100140000C9463060C9463060C9463060C9463068B
:100150000C9463060C9463060C9463060C9463067B
:100160000C9463060C9463060C9463060C9463066B
:100170000C9463060C9463064F7363796C6F736B16
:100180006F700047656E657261746F722000416E1A
:10019000616C697A61746F7200416E2E73742E6C9B
:1001A0006F672E00576F62756C6F736B6F70004DC9
:1001B000756C74696D657472200052533233322D40
:1001C0003E50432000557374617769656E69610024
:1001D000506F6D6961726F7779004B6F6D62616A04
:1001E0006E004D696E6900202020350020202032ED
:1001F0000020202031003530306D003230306D006D
:100200003130306D002035306D002032306D0020EF
:1002100031306D002020356D002020327500202007
:1002200035750020203875002031307500203230BF
:100230007500203530750031303075003230307542
:100240000035303075002020316D002020326D00E7
:100250002020356D002031306D002032306D0020BF
:1002600035306D002D4E415333316B320020323525
:100270006B0031326B35002020356B0020326B353E
:1002800000316B32350020353030002032353000FF
:100290002031323500202035300020203235003129
:1002A000322E3500202020350064422000487A207C
:1002B000413D00463D0030757320200075732020BD
:1002C000200030306E73200064743D0020004C46E6
:1002D000004846004C4600484600543A2000205949
:1002E0003D00583D0064425700487A2F6400562F65
:1002F0006400732F6400000000000000005F000035
:100300000007000700147F147F14242A7F2A122379
:100310001308646236495522500005030000001C92
:100320002241000041221C00082A1C2A0808083E1D
:1003300008080050300000080808080800303000A5
:100340000020100804023E5149453E00427F400013
:1003500042615149462141454B311814127F102703
:10036000454545393C4A494930017109050336493B
:10037000494936064949291E0036360000005636DE
:10038000000000081422411414141414412214080B
:10039000000201510906324979413E7E1111117E58
:1003A0007F494949363E414141227F4141221C7FDC
:1003B000494949417F090901013E414151327F08C4
:1003C00008087F00417F41002040413F017F081421
:1003D00022417F404040407F0204027F7F0408109A
:1003E0007F3E4141413E7F090909063E4151215E60
:1003F0007F09192946464949493101017F01013FD9
:100400004040403F1F2040201F7F2018207F631462
:100410000814630304780403615149454300007FD5
:100420004141020408102041417F00000402010202
:1004300004404040404000010204002054545478DD
:100440007F484444383844444420384444487F3842
:1004500054545418087E090102081454543C7F086F
:1004600004047800447D40002040443D00007F109B
:10047000284400417F40007C041804787C08040470
:100480007838444444387C14141408081414187C34
:100490007C080404084854545420043F4440203C41
:1004A0004040207C1C2040201C3C4030403C4428E4
:1004B0001028440C5050503C4464544C44000836BE
:1004C000410000007F0000004136080008082A1C97
:1004D00008081C2A0808464D00414D005357007378
:1004E000696E65202020202020007371756172657F
:1004F0002020202000747269616E676C65202000E6
:1005000070696E6B206E6F697365007768697465DA
:10051000206E6F6973006172626974726172792012
:10052000006E6F6E6520286F6666290000009101DD
:100530002303B5044706D8076909F90A8A0C190E7E
:10054000A90F3711C5125214DF156A17F5187F1A53
:10055000071C8F1D161F9B201F22A2232325A326C5
:1005600021289E29192B932C0B2E812FF5306832D0
:10057000D8334735B3361D388539EB3A4F3CB03D5B
:100580000F3F6C40C6411D437244C5451447614846
:10059000AB49F24A374C784DB74EF24F2A51605270
:1005A0009253C154EC55145739585B59795A935B9F
:1005B000AA5CBE5DCE5EDA5FE260E761E862E56399
:1005C000DF64D465C666B3679D688369646A416BFE
:1005D0001B6CF06CC16D8D6E566F1A70DA70957170
:1005E0004C72FF72AD735774FD749D753A76D17677
:1005F0006577F3777D7802798379FF79767AE97A7E
:10060000577BC07B247C847CDE7C347D857DD27DE1
:10061000197E5C7E997ED27E067F357F5F7F857FE7
:10062000A57FC07FD77FE87FF57FFD7FFF7FFD7FC0
:10063000F67FEA7FD97FC37FA97F897F647F3B7F75
:100640000D7FD97EA17E647E227EDB7D907D3F7D05
:10065000EA7C907C317CCD7B657BF77A867A0F7A59
:10066000937913798F7805787777E5764E76B2753A
:1006700012756D74C47316736472AD71F270337059
:10068000706FA86EDC6D0B6D376C5E6B816AA06954
:10069000BB68D267E566F465FF64066409630962B6
:1006A0000461FC5FF15EE15DCE5CB85B9E5A8059EF
:1006B0005F583B571356E854B953885253511B5057
:1006C000E04EA24D614C1D4BD6498C484047F04549
:1006D0009E444A43F34199403D3FDE3D7D3C1A3BF9
:1006E000B4394C38E2367635083498322531B12F9A
:1006F0003C2EC42C4A2BCF295328D5265525D4234C
:100700005122CD20481FC21D3A1CB21A28199E172B
:1007100012168614F9126B11DC0F4D0EBE0C2D0B48
:100720009D090C087B06E9045703C6013400A3FEAB
:1007300011FD7FFBEEF95CF8CBF63BF5AAF31AF25C
:100740008BF0FDEE6EEDE1EB55EAC9E83EE7B4E56E
:100750002CE4A4E21DE198DF13DE91DC0FDB8FD9DE
:1007600010D893D618D59ED326D2B0D03BCFC8CDC3
:1007700058CCE9CA7CC912C8A9C643C5DFC37DC22B
:100780001EC1C1BF67BE0FBDBABB67BA17B9CAB732
:100790007FB638B5F3B3B1B272B137B0FEAEC8AD03
:1007A00096AC67AB3BAA12A9EDA7CBA6ACA591A4CA
:1007B0007AA366A255A149A0409F3A9E399D3B9CD1
:1007C000419B4B9A59996B9881979B96B995DB946D
:1007D00001942C935A928D91C490FF8F3F8F838EFA
:1007E000CB8D188D698CBF8B198B778ADA894289FA
:1007F000AE881F8895870F878D86118699852685F7
:10080000B7844E84E98388832D83D782858238829A
:10081000F081AD816E8135810081D180A68080809C
:100820005F8043802C801A800C80048001800280CD
:100830000980148024803980548073809780BF8021
:10084000ED80208157819481D5811B826682B6829A
:100850000B836483C38326848E84FA846B85E1854D
:100860005C86DC866087E987768808899E893A8A73
:10087000D98A7D8B268CD38C858D3B8EF58EB48F5B
:1008800077903E910A92DA92AE938694629543965F
:1008900027971098FC98ED99E19AD99BD69CD69D04
:1008A000DA9EE19FECA0FBA10EA324A43EA55BA6CB
:1008B0007BA79FA8C7A9F1AA1FAC51AD85AEBCAF5D
:1008C000F7B035B275B3B9B4FFB549B795B8E4B967
:1008D00036BB8ABCE1BD3ABF96C0F4C155C3B8C4AB
:1008E0001DC685C7EFC85BCAC9CB38CDAACE1ED0FE
:1008F00094D10BD384D4FFD57CD7FAD879DAFADB3C
:100900007DDD00DF85E00BE293E31BE5A5E62FE844
:10091000BAE947EBD4EC61EEF0EF7FF10EF39FF410
:100920002FF6C0F751F9E3FA74FC06FE98FF29018F
:10093000BB024D04DE0570070109910A220CB20DBD
:10094000410FD0105E12EB13781504178F18191A87
:10095000A21B291DB01E3620BA213D23BF243F26ED
:10096000BE273B29B72A312CA92D202F95300832DC
:100970007933E8345536BF3728398F3AF33B553D44
:10098000B43E12406C41C4421A446D45BD460B480A
:1009900056499E4AE34B254D644EA14FDA50105202
:1009A000435372549F55C856ED5710592F5A4A5BFE
:1009B000625C775D875E955F9E60A461A662A463BA
:1009C0009E64956587667667616847692A6A086BE1
:1009D000E36BB96C8B6D596E226FE76FA870657110
:1009E0001D72D17281732C74D27474751276AA76CA
:1009F0003F77CF775A78E0786279DF79587ACC7A86
:100A00003B7BA57B0B7C6B7CC77C1E7D717DBE7D9B
:100A1000077E4B7E8A7EC47EF97E297F557F7B7F51
:100A20009D7FBA7FD17FE47FF27FFB7F205A3D001C
:100A3000576176653A2000252020473D0020446517
:100A400065703D00202020202044433D0044757403
:100A5000793D0020563D0041726269747220583D14
:100A600000463D006D560020473D00463D00577250
:100A70006974652E2E2E00344D000000324D0000AA
:100A800000314D0000003530306B003230306B00EB
:100A90003130306B0035306B000032306B0000318C
:100AA000306B0000356B000000326B000000316BD2
:100AB000000000353030000032303000000000010E
:100AC0000004000C0024004C009C008C011C033C22
:100AD000069C0F3C1F7C3E3C9C547269673D002085
:100AE000563D004375723D00205A00583D00526546
:100AF0006164792E2E2E00532F73202000426173E3
:100B0000653A2000101414141919193F7DFA204376
:100B10004831200020434832200004000500040032
:100B200005000A00190032006400FA00F401E8032D
:100B3000C40988131027A861487A006B487A0046D8
:100B40007265713D005670703D00204D696E3D002C
:100B50004D61783D004176673D00524D533D004E5A
:100B600053004452002078200030487A0052200080
:100B70005357200020202020202020524D533D009C
:100B80004B616C69627261636A6100525332333245
:100B9000202D20504300577973776965746C616329
:100BA00000313932303020200033383430302020CA
:100BB00000353736303020200031313532303020AA
:100BC000003233303430302000343630383030208A
:100BD000003932313630302000313135323030306A
:100BE0000031353030303030003235303030303058
:100BF000004B6F6E74726173743A20004A61736EB9
:100C00006F73633A200020575953574945544C415C
:100C1000435A0053706565643A20002052533233C2
:100C200032202D20504300206F6B006B616C00411F
:100C30004443206F66667365743A20004441432044
:100C40006F66667365743A200044414320777A6D7D
:100C50006F636E3A2000204B414C49425241434A57
:100C6000410020555354415749454E4941200067A2
:100C7000332210F66B251835134D4B503C2D2D5259
:100C8000532D3233322D2D3E5043000011241FBE10
:100C9000CFEFDFE2DEBFCDBF1DE2A0E0B0E2E8E9CA
:100CA000F5E702C005900D92AE32B107D9F71DE20B
:100CB000AEE2BDE201C01D92A634B107E1F70E9489
:100CC000DE060C94CA3A0C940000EF92FF920F9348
:100CD0001F93CF93DF93E82E8FE062E00E94E50F31
:100CE00082EE91E00E94501086E063E00E94E50FE2
:100CF0008AED91E00E94501080E064E00E94E50FD0
:100D000080ED91E00E9450100BE08E2D809F8001BD
:100D1000112408581E4FC8E7D1E0FF2480E46F2D4E
:100D20000E94E50FFE1421F4C8010E94611003C067
:100D3000CE010E945010F3942B968F2D883071F7BE
:100D4000DF91CF911F910F91FF90EF90089583E471
:100D5000E0E5F0E0828388E08093500080915100CC
:100D600083FFFCCF84ECE0E5F0E0858380915000C8
:100D70008061809350008091510084FFFCCF80E41B
:100D800090E064E00E946C070895809150008460B8
:100D9000809350008091510082FFFCCF80E490E06E
:100DA00062E00E946C07809150008F7E809350001B
:100DB00080915000877F809350000895FF920F9399
:100DC0001F93CF93DF930E94A7060E945B2B0E9484
:100DD00081070E94BF070E9438350E94B70F0E940A
:100DE000001080E00E946506789410E0C0E4D6E030
:100DF0000FEFFF24F3940E94F607803129F41F5F60
:100E00001830D8F110E039C0883031F4112311F0D6
:100E1000115033C017E031C0843099F50E940010A2
:100E20000E94F6078823E1F7112319F40E94322467
:100E300022C0113019F40E9476121DC0123019F42C
:100E40000E94042018C0133019F40E94EE2113C030
:100E5000143019F40E9464320EC0153019F40E9447
:100E6000412D09C0163019F40E948E3704C0173086
:100E700011F40E94CF340E940010812F0E94650659
:100E8000BACF803209F0B7CF0E94130F0E94B20789
:100E90000E94C22B0E94C5060E94F6078823E1F734
:100EA0001C82802F8A95F1F7F092480088950E9465
:100EB000A7060E945B2B0E9481070E94B70F0E9429
:100EC0000010812F0E9465060E94F6078823E1F733
:100ED000802F8A95F1F78FCF0F93DF93CF930F92E7
:100EE000CDB7DEB72FB72983F8941BBEFC0108ED00
:100EF00004BF608389818FBF0F90CF91DF910F91E5
:100F0000089580EDE0E8F1E08183E0E0F9E021E0A0
:100F100020838DE790E086A397A3E0E2F3E085E0ED
:100F20008083218388E18283238380E5848384E630
:100F300081878087E0E0F1E080E8808385E2808B34
:100F400099E5928B838B80E094E0848B958B80E095
:100F500098E2808F918F128E88E3848F83E0858F53
:100F6000168E089510922003E0E0F1E0108A1092AE
:100F700000090895E0E2F3E0808F918F08959AE0F0
:100F80009093B000E0E2F6E08AE1808B81858C7F6F
:100F9000826081879287E0EAF0E0828182608283CA
:100FA0007894E0E4F8E087E0808380E593EC86A322
:100FB00097A3089568941895CF92EF920F9382FFAC
:100FC00001E0E82211F0601B71098C2111F0600F23
:100FD000711D261737070CF4B901641775070CF457
:100FE000BA01CB010F91EF90CF9008958FEF8093CE
:100FF000400687EFE0E4F6E084838FE08A95F1F71E
:101000009091280681E091FD80E09091280693FF61
:1010100002C020E001C024E0282B8FEEE0E4F6E0DF
:1010200084834FE04A95F1F78091280681FF02C042
:1010300080E001C082E0822B9091280693FF02C0DD
:1010400020E001C020E6282B8FEDE0E4F6E0848369
:101050004FE04A95F1F78091280681FF02C090E0A9
:1010600001C090EA922B8091280683FF02C080E0A5
:1010700001C080E1892B9FEBE0E4F6E094834FE030
:101080004A95F1F79091280691FF02C030E001C027
:1010900030E8832B9091280693FF02C020E001C026
:1010A00020E4822B9FE7E0E4F6E094832FE02A958A
:1010B000F1F79091280691FF02C090E001C090E204
:1010C000892B9091280693FF02C090E001C098E020
:1010D000892B09F1209160083091610895E02D3D40
:1010E000390700F190912E2D943118F49F5F909361
:1010F0002E2DE0E4F8E010A211A290912E2D913057
:1011000091F0953081F0983071F09A3061F09C3018
:1011100050F480EE089510922E2DE0E4F8E010A235
:1011200011A2089580EE08950F931F93182F80E366
:1011300002C014568F5F082F00531436D0F70023D7
:1011400009F480E20E94131080E303C01A508F5FFD
:101150000F5F1A30D8F7002309F480E20E941310C1
:10116000812F805D0E9413101F910F9108951F938E
:10117000182F87FF04C011958DE20E941310812F54
:101180000E9494081F9108951F93CF93DF93EC0161
:1011900097FF05C0D095C195DF4F8DE201C080E279
:1011A0000E94131080E303C0C456D0408F5F182FF5
:1011B0001053C436D105C4F7112309F480E20E940C
:1011C000131080E303C02A978F5F1F5FCA30D105D9
:1011D000D4F7112309F480E20E9413109E01205DD0
:1011E000822F0E941310DF91CF911F9108951F93BA
:1011F000CF93DF93EC0180E303C0C051D7428F5FF0
:10120000182F105327E2C031D207B8F7112309F481
:1012100080E20E94131080E304C0C85ED3408F5F59
:101220001F5F33E0C83ED307C0F7112309F480E203
:101230000E94131080E304C0C456D0408F5F1F5F2C
:10124000C436D105C8F7112309F480E20E941310B7
:1012500080E303C02A978F5F1F5FCA30D105D0F7A4
:10126000112309F480E20E9413109E01205D822F59
:101270000E941310DF91CF911F910895CF93DF93B8
:10128000EC0197FF05C0D095C195DF4F8DE201C0FD
:1012900080E20E941310CE010E94F708DF91CF91E7
:1012A0000895DF92EF92FF920F931F937B018C01C1
:1012B00080E309C020E639E74EEF5FEFE20EF31E50
:1012C000041F151F8F5F90EDD92ED80E30EAE3165C
:1012D00036E8F30631E0030730E0130758F7DD2066
:1012E00009F480E20E94131080E30AC020EF38ED79
:1012F0004FEF5FEFE20EF31E041F151F8F5FD394B5
:1013000030E1E31637E2F30630E0030730E013077D
:1013100068F7DD2009F480E20E94131080E30AC020
:1013200028E13CEF4FEF5FEFE20EF31E041F151FA5
:101330008F5FD39438EEE31633E0F30630E0030713
:1013400030E0130768F7DD2009F480E20E941310F3
:1013500080E30AC02CE93FEF4FEF5FEFE20EF31E90
:10136000041F151F8F5FD39434E6E316F1040105C3
:10137000110580F7DD2009F480E20E94131080E35C
:101380000AC026EF3FEF4FEF5FEFE20EF31E041FA0
:10139000151F8F5FD3943AE0E316F10401051105A0
:1013A00080F7DD2009F480E20E9413108E2D805D0D
:1013B0000E9413101F910F91FF90EF90DF900895FE
:1013C000EF92FF920F931F937B018C0197FF0AC04E
:1013D00010950095F094E094E11CF11C011D111D85
:1013E0008DE201C080E20E941310C801B7010E9483
:1013F00051091F910F91FF90EF9008950F931F9344
:10140000CF93DF93EC01062F80E303C0C051D74296
:101410008F5F182F105327E2C031D207B8F7013081
:1014200031F4112309F480E20E94311005C0112328
:1014300009F480E20E94131080E304C0C85ED34028
:101440008F5F1F5F33E0C83ED307C0F7023031F42F
:10145000112309F480E20E94311005C0112309F420
:1014600080E20E94131080E304C0C456D0408F5F16
:101470001F5FC436D105C8F7033031F4112309F4D6
:1014800080E20E94311005C0112309F480E20E941D
:10149000131080E303C02A978F5F1F5FCA30D10506
:1014A000D0F7043031F4112309F480E20E943110A6
:1014B00005C0112309F480E20E9413108EE20E94FD
:1014C00013109E01205D822F053019F40E94311007
:1014D00002C00E941310DF91CF911F910F910895C8
:1014E000CF92DF92EF92FF920F931F937B018C01BB
:1014F000C42E80E309C020E839E647E65FEFE20E3C
:10150000F31E041F151F8F5F30EDD32ED80E30E869
:10151000E31636E9F30638E9030730E0130758F716
:101520004C2D413031F4DD2009F480E20E9431106D
:1015300005C0DD2009F480E20E94131080E30AC098
:1015400020EC3DEB40EF5FEFE20EF31E041F151F92
:101550008F5FD39430E4E31632E4F3063FE00307F1
:1015600030E0130768F74C2D423031F4DD2009F4E8
:1015700080E20E94311005C0DD2009F480E20E9463
:10158000131080E30AC020E639E74EEF5FEFE20E6A
:10159000F31E041F151F8F5FD39430EAE31636E85D
:1015A000F30631E0030730E0130768F74C2D4330B2
:1015B00031F4DD2009F480E20E94311005C0DD2005
:1015C00009F480E20E94131080E30AC020EF38ED96
:1015D0004FEF5FEFE20EF31E041F151F8F5FD394D2
:1015E00030E1E31637E2F30630E0030730E013079B
:1015F00068F74C2D443031F4DD2009F480E20E947C
:10160000311005C0DD2009F480E20E94131080E350
:101610000AC028E13CEF4FEF5FEFE20EF31E041F1C
:10162000151F8F5FD39438EEE31633E0F30630E0F6
:10163000030730E0130768F74C2D453031F4DD2007
:1016400009F480E20E94311005C0DD2009F480E237
:101650000E94131080E309C02CE93FEF4FEF5FEFCA
:10166000E20EF31E041F151F8F5F34E6E316F1042C
:101670000105110588F74C2D463019F40E943110F0
:1016800002C00E94131020E3D22E09C086EF9FEF04
:10169000AFEFBFEFE80EF91E0A1F1B1FD3949AE0AD
:1016A000E916F1040105110588F78EE20E94131076
:1016B000AC2DA73021F48D2D0E9431100BC08D2D43
:1016C0000E941310BC2DB83029F48E2D805D0E942D
:1016D000311004C08E2D805D0E9413101F910F9158
:1016E000FF90EF90DF90CF9008950F931F93CF93CB
:1016F000DF93EC012FE0803A920738F06AE070E067
:101700000E94333AEB0101E001C000E080E303C036
:10171000C85ED3408F5F182F105333E0C83ED30705
:10172000B8F7112309F480E20E94131080E304C08B
:10173000C456D0408F5F1F5FC436D105C8F7112350
:1017400011F4002329F00E941310002331F002C08D
:1017500080E201C08EE20E94131080E303C02A974A
:101760008F5F1F5FCA30D105D0F7112309F480E2E3
:101770000E9413109E01205D822F0E9413100023EF
:1017800019F48DE60E94131086E50E941310DF9174
:10179000CF911F910F910895CF93DF93EC0197FFA5
:1017A00007C08DE20E941310D095C195DF4F03C092
:1017B00080E20E941310CE010E94750BDF91CF9141
:1017C00008952F923F924F925F926F927F928F92E5
:1017D0009F92AF92BF92CF92DF92EF92FF920F93C0
:1017E0001F93DF93CF93CDB7DEB76C97CDBFDEBF2E
:1017F0004C016887798749835E2C4C2C2095422FB9
:1018000050E0CA018770907061E070E07B0102C017
:10181000EE0CFF1C8A95E2F7EA82822F8F5F90E040
:10182000FC01E770F070DB0102C0AA0FBB1FEA9554
:10183000E2F7AB83215030E0F901E770F0707B01F3
:1018400002C0EE0CFF1CEA95E2F7EC82C02EC094B9
:101850002C2C3324D101A770B070FB0102C0EE0F15
:10186000FF1FAA95E2F7ED83AC2CA394BB24D5010E
:10187000A770B070FB0102C0EE0FFF1FAA95E2F740
:10188000EE83CA94DD24D601A770B07002C0660F43
:10189000771FAA95E2F76F83662477241CE061E046
:1018A000E62EF12CA9816A2F70E0FB013196EA87C0
:1018B000FB87DB011197AC87BD87FA01E87FF070E9
:1018C000EE87FF87AC01487F5070488B598BB90178
:1018D000687F70706A8B7B8BC101887F90708C8B66
:1018E0009D8BD501A87FB070AE8BBF8B58EF252E96
:1018F000312C2C203D20C12EE885F985E98FFA8F07
:10190000A02E80E0662D0E94E50FC3010C968C018D
:1019100043E0000F111F4A95E1F742E09C0121705E
:10192000307028873987D4015D914D015095EC9135
:10193000E095852F90E09C01287F307020173107BB
:1019400051F487709070970102C0220F331F8A955F
:10195000E2F7C90101C080E05E1750F5A98DBA8D8C
:10196000652F70E09B01287F30702017310749F404
:1019700067707070970102C0220F331F6A95E2F7FB
:10198000822B5F5F5E1760F317C06E2F70E09B01C4
:10199000287F30702017310749F467707070970105
:1019A00002C0220F331F6A95E2F7822BEF5F02C05D
:1019B000A98DBA8DE51748F3A98FBA8F3A2D3F3F0D
:1019C00009F44BC0A98DBA8D9D91A98FBA8F9095BE
:1019D0005C915095292F30E0B901687F70706017D5
:1019E000710749F427703070F70102C0EE0FFF1F36
:1019F0002A95E2F78E2B951750F5E98DFA8D692F10
:101A000070E09B01287F30702017310749F4677020
:101A10007070970102C0220F331F6A95E2F7822B84
:101A20009F5F951760F317C0652F70E09B01287FBB
:101A300030702017310749F467707070D70102C009
:101A4000AA0FBB1F6A95E2F78A2B5F5F02C0E98D80
:101A5000FA8D591748F3E98FFA8F942F9F7029F464
:101A6000E885F985309709F08068942F937021F408
:101A7000FC2DFF3009F48068403409F4886829811E
:101A8000421721F43C2D3C3009F48F60242F30E0C4
:101A90006A857B852617370729F0AC85BD852A170F
:101AA0003B0721F4BC2DBC3009F48460451509F4D2
:101AB0008868441509F488684C8F0E94DF0E4C8DAD
:101AC0004F5F403809F02FCF80E00E94DF0E90E09A
:101AD000498D5A8DEE85FF85E017F10711F080E002
:101AE00001C08A81913071F4288939892017310722
:101AF00011F43B81832B6A897B896017710711F48C
:101B00007C81872BAA2DAF3FA1F0EC89FD89E017DE
:101B1000F10709F48D81913061F42E893F892017F6
:101B2000310711F43E81832B2016310611F46F81A9
:101B3000862B4C8F5B8F988F0E94DF0E988D9F5F56
:101B40004C8D5B8D943031F6498F5A8FC394089435
:101B5000611C711C7C2D733149F082E89FEF880E67
:101B6000991E4E575040498F5A8FCBCE6C96CDBFA1
:101B7000DEBFCF91DF911F910F91FF90EF90DF902B
:101B8000CF90BF90AF909F908F907F906F905F901D
:101B90004F903F902F9008951F93DF93CF930F9214
:101BA000CDB7DEB715E0819FC0011124875E9D4F40
:101BB00069830E94501082EF92E00E945010698168
:101BC000619FC001112489519E4F0E9450108EEEDA
:101BD00092E00E9450100F90CF91DF911F910895D5
:101BE0001F93DF93CF930F92CDB7DEB7825015E0EE
:101BF000819FC001112488599D4F69830E94501014
:101C000089EE92E00E9450106981619FC001112409
:101C100089519E4F0E94501085EE92E00E94501014
:101C20000F90CF91DF911F9108950F931F93DF9332
:101C3000CF930F92CDB7DEB78C0182EE92E069832D
:101C40000E945010C8010E94C4088EED92E00E94CC
:101C500050106981862F992787FD90950E94C408AE
:101C600080E20E9413100F90CF91DF911F910F918E
:101C70000895EF92FF920F931F93CF93DF93082F56
:101C80007B018AED92E00E945010C02FD0E08E01BF
:101C900000761070FE01E370F0700115110531F44B
:101CA000EC59FD4F84910E94311011C0EC59FD4F49
:101CB00084910E9413100032110549F4CE0182FD77
:101CC00002C08CE501C08FE20E94311014C0C2FF37
:101CD00002C08FE201C08CE50E9413100034110590
:101CE00051F4C3FF03C087ED92E002C084ED92E09F
:101CF0000E94611009C0C3FF03C081ED92E002C0E1
:101D00008EEC92E00E9450108CEC92E00E945010F9
:101D1000C7010E94CC0BDF91CF911F910F91FF90D3
:101D2000EF9008950F931F93DF93CF930F92CDB74A
:101D3000DEB78C0188EC92E069830E945010C801E4
:101D40000E943E096981653018F482EC92E007C078
:101D50006A3018F48CEB92E002C086EB92E00E94AD
:101D600050100F90CF91DF911F910F910895EF9236
:101D7000FF920F931F93DF93CF930F92CDB7DEB7F0
:101D80007B018C0183EB92E049830E945010C801D3
:101D9000B7010E9451098DEA92E00E9450104981DA
:101DA000842F0E94B70889EA92E00E9450100F9099
:101DB000CF91DF911F910F91FF90EF900895E0E494
:101DC000F6E09FEF9183000000008483A0E0B6E07E
:101DD00092E016969C931697E0E8F6E081E0868301
:101DE0000000000015969C93159785830000000065
:101DF0000895E0E4F6E09FEF918300000000848303
:101E0000A0E0B6E096E016969C931697E0E8F6E020
:101E100081E086830000000015969C9315978583CA
:101E20000000000008958EEA0E94F90EE0E4F6E05A
:101E30001482E0E0FAE011821082E0E0F6E08FE048
:101E4000868383E0A0E8B6E016968C93169780E12F
:101E5000868308951F93182F81E090E00E94973A9F
:101E6000180F153608F014E6212F30E0E0E0FAE014
:101E700022A733A781E090E0612F0E94A73A812F2B
:101E80001F9108950F931F93DF93CF9300D0CDB789
:101E9000DEB7E0E0F6E08FE085838183A0E8B6E07E
:101EA00083E015968C93159711968C938FEFA0E491
:101EB000B6E014968C93149780E181838583198210
:101EC0001A8205C089819A81019689839A838981C2
:101ED0009A8123E188389207A8F388E0E0E0F6E0F1
:101EE000868319821A8205C089819A810196898325
:101EF0009A8389819A81E1E0843F9E07A8F388E074
:101F0000E0E0F6E0858300E01AE086E08093000AD6
:101F100084E690E0F80186A397A380E00E942A0F50
:101F200083E2F80181830F900F90CF91DF911F9191
:101F30000F9108951F93182F80E090E00E94973A28
:101F4000180F1F3118F41A3018F003C01EE101C039
:101F50001AE081E80E94F90E812F0E94F90E80E0BC
:101F600090E0612F0E94A73A812F1F9108950E944F
:101F7000420F8FEF9FEF0197F1F781EA0E94F90E70
:101F800080EC0E94F90E82EA0E94F90E8FE20E9414
:101F9000F90E8FEF8A95F1F780E00E949A0F84EA9C
:101FA0000E94F90E8FEA0E94F90E86EA0E94F90E4D
:101FB00080EB0E94F90E80E10E94F90E80E00E9401
:101FC000F90E80E40E94F90E08951F93DF93CF93DA
:101FD0000F92CDB7DEB7182F82958F70806169831D
:101FE0000E94F90E812F8F700E94F90E6981862F51
:101FF000806B0E94F90E0F90CF91DF911F91089591
:102000000F931F9310E080E0612F0E94E50F04E81A
:1020100080E00E94DF0E0150D9F71F5F183099F75A
:102020001F910F9108950F931F93CF93DF9305E0B6
:10203000809F800111240A5A1D4FC0E0D0E0F801B2
:10204000EC0FFD1F84910E94DF0E2196C530D10553
:10205000B1F780E00E94DF0EDF91CF911F910F91C9
:1020600008950F931F93CF93DF9305E0809F800126
:1020700011240A5A1D4FC0E0D0E0F801EC0FFD1FFB
:10208000849180950E94DF0E2196C530D105A9F775
:102090008FEF0E94DF0EDF91CF911F910F91089576
:1020A000CF93DF93EC0105C02196FC0184910E943F
:1020B0001310CE01FE0124912223B1F7DF91CF91BD
:1020C0000895CF93DF93EC0105C02196FC01849124
:1020D0000E943110CE01FE0124912223B1F7DF913D
:1020E000CF910895BF92CF92DF92EF92FF920F931C
:1020F0001F93CF93DF93EB01082F192FC12C83E09F
:10210000D82EC60ED71E7E01CE010E94973AF80146
:102110008083CE0101960E94973AB82EF801818300
:102120002396C70102960E94973AF80182838B2D6D
:1021300082958F7083838B2D8F7081830C5F1F4FEF
:10214000CC15DD0501F7DF91CF911F910F91FF9025
:10215000EF90DF90CF90BF900895CF92DF92EF92F3
:10216000FF920F931F93CF93DF93EC01062F172F4E
:10217000C12C93E0D92ECC0EDD1E7E01CE01F801DC
:1021800060810E94A73AF80163816295607F818136
:102190008F70682BCE0101960E94A73A2396C70143
:1021A0000296F80162810E94A73A0C5F1F4FCC157E
:1021B000DD0519F7DF91CF911F910F91FF90EF90FF
:1021C000DF90CF9008952F923F924F925F926F923F
:1021D0007F928F929F92AF92BF92DF92EF92FF9287
:1021E0000F931F93DF93CF93CDB7DEB76A97CDBF21
:1021F000DEBF698F7A8F49875A870F831887DE2C55
:102200000197E0E0F9E086A397A38091322D9091A9
:10221000332D498D5A8D84179507B9F0E0E0F1E030
:10222000809110018F77808BCA01880F991F848B52
:10223000958B80E098E2808F918F88E3848F83E094
:10224000858F809110018068808B898D9A8D809315
:10225000322D9093332D289F7001299FF00C389FC9
:10226000F00C112400E010E0C801B70124E630E0D2
:1022700040E050E00E947C3A3901B0E0AB2EB8E279
:10228000BB2EAA27BB27A21BB30BAD83BE83222480
:102290003324210119821A821B821C8288249924EA
:1022A00040E050E02D873E874F87588B898D9A8D6F
:1022B000861997099C0140E050E0298B3A8B4B8BA3
:1022C0005C8BA98DBA8DCD01A0E0B0E08D8B9E8B8B
:1022D000AF8BB88F49855A859A0140E050E0298735
:1022E0003A874B875C878F8198858050984F8F8382
:1022F0009887898D9A8DA98EBA8E5C01BFC0DD202A
:10230000C1F469817A818B819C812D893E894F89B5
:10231000588D0E945A3AF901E058FF4FEE0FFF1F07
:10232000E45DFA4FE590F4900027F7FC0095102F3C
:1023300056C09D2D913061F48614970408F449C06D
:10234000E12CF0E8FF2EFFEF0F2FFFEF1F2F47C00C
:10235000AD2DA23079F568147904C8F4ED81FE81C1
:10236000BF0180E090E0CB017727662729893A8971
:102370004B895C890E947C3A6FEFE62E6FE7F62E60
:10238000012D112DE21AF30A040B150B28C0C2010E
:10239000B1012D853E854F8558890E947C3A79018F
:1023A0008A0120E030E84FEF5FEFE20EF31E041FDA
:1023B000151F15C03D2D333009F464C0343009F4C5
:1023C00061C0353009F45EC0363049F40E94B2076E
:1023D00059C02FEFE22E2FE7F22E012D112DC8014B
:1023E000B70129853A854B855C850E94083A7B01B7
:1023F0008C0120E43DE043E050E00E947C3A8F8174
:102400009885820F931FA98DBA8D8D939C931197F8
:10241000BDE781309B0728F0E98DFA8D108211828B
:102420000AC0F0E180309F0730F0EFEFFFE0A98DA8
:10243000BA8DED93FC930894811C911C298D3A8DE3
:102440002E5F3F4F298F3A8F89819A81AB81BC8162
:1024500080509E4FAF4FBF4F89839A83AB83BC831D
:1024600020E030E041E050E0220E331E441E551EB5
:102470004D815E814F5F5F4F4D835E838A149B0465
:1024800008F43DCF6A96CDBFDEBFCF91DF911F919B
:102490000F91FF90EF90DF90BF90AF909F908F9043
:1024A0007F906F905F904F903F902F9008951F9373
:1024B000182F8150883098F421E030E040E050E05F
:1024C0000AC0CA01B9012AE030E040E050E00E94B1
:1024D000083A9B01AC011F5F193099F703C020E057
:1024E00030E0A901B901CA011F9108952F923F92CE
:1024F0004F925F926F927F928F929F92AF92BF9214
:10250000CF92DF92EF92FF920F931F93DF93CF93BF
:10251000CDB7DEB72E97CDBFDEBF809110018068AA
:10252000E0E0F1E0808B1A821D8223E030E02B8313
:102530003C8332E03A878AE090E08E839F8318865E
:10254000198619821E861D86E2C5602F70E080E024
:1025500090E0A50194010E94083A672F782F892FF7
:102560009927261637064806590620F46C197D0966
:102570008E099F09E02FF0E0E050F44D660F771FC1
:102580006050784DDB012D913C911197C901880F66
:10259000991F820F931F892F885980830F5F0038FE
:1025A000A1F680E09CE260E070E040E02D850FEF56
:1025B000EE8411E8C12E0E94E10B0E94F607B82EAE
:1025C000803421F1803609F4BEC5803809F4BEC5D7
:1025D000803A09F4BEC5843441F480E098E262E0B8
:1025E00070E00E947210BB2412C0843681F480E037
:1025F00067E00E94E50F8EE69AE00E94501082E0AC
:1026000090E060E078E20E94AD1001C019828091F4
:102610002F2D833009F0A5C0EA81EE2309F403C110
:102620008FEFE0E4F6E086838091042D9091052DF4
:10263000E0E0F8E220E034E00DC0769567954F5F6A
:102640005F4F60FFFACF41932F5F3F4F48E020304C
:10265000340721F0B90140E050E0F3CF0F921F9210
:102660002F923F929F92AF92CF92DF92EF92FF9282
:102670000F932F933F934F935F936F937F93AF93FA
:10268000BF93CF93DF93EF93FF936FEF77E0681BD8
:10269000790B880F991F880F991F880F991F880F32
:1026A000991F880F991FEE2422240BE0E0E0FCE242
:1026B000E1920A95E9F7D1E0CD2ED0E0DD2EED2EA6
:1026C000D0EDFD2E21E030E040E050E09924AA2436
:1026D000E0E0F8E2DCE23190FC3209F4F8E2C32DEC
:1026E000088020FF08C0569547953795279500919B
:1026F0002806056F08C056954795379527952C25D0
:102700003D254E255F2558839018A208950EA21CE2
:10271000BB27A89EA12D999EA10DBB1FA99EA00D10
:10272000B11DA60FB71FA0933803B09339030F3F15
:1027300091F2FF91EF91DF91CF91BF91AF917F9196
:102740006F915F914F913F912F910F91FF90EF907B
:10275000DF90CF90AF909F903F902F901F900F9061
:1027600062C0843009F05FC08A81882309F45BC0AD
:102770008FEFE0E4F6E086838091042D9091052DA3
:102780000F921F92CF92DF92EF92FF920F932F93AF
:102790003F934F935F936F937F93CF93DF936FEF4D
:1027A00077E0681B790B880F991FD1E0CD2ED0E020
:1027B000DD2EED2ED0EDFD2E21E030E040E050E0AA
:1027C000E89420FF08C056954795379527950091C6
:1027D0002806056F08C056954795379527952C25EF
:1027E0003D254E255F25DD27589FC12D499FC10DF1
:1027F000DD1F599FC00DD11DC60FD71FC0933803D1
:10280000D09339030F3FE9F2DF91CF917F916F9120
:102810005F914F913F912F910F91FF90EF90DF903B
:10282000CF901F900F9080E067E00E94E50F9981A4
:10283000992309F0A8C18BE69AE00E9450100B8101
:102840006091002D7091012D8091022D9091032DAA
:10285000402F0E94700A87E69AE00E945010602F75
:1028600068508091042D9091052D0E94FE0984E608
:102870009AE00E945010BB2009F449C48B2D6B8153
:102880007C8140E050E02DE030E002E0EE24E39473
:10289000A2E0CA2E0E94DC078B879C87AB85BC8593
:1028A000AB83BC838B2D60E070E046EF5FEF2AE0E6
:1028B00030E004E0F0E1EF2EE8E0CE2E0E94DC07ED
:1028C000E82EFF24E7FCF0940F2D1F2DEB81FC81F7
:1028D000E930F105B0F08B8185500E9457126E9D52
:1028E00090016F9D300D7E9D300D11248091042D3F
:1028F0009091052D820F931F8093042D9093052DA9
:102900001DC08B810E945712A80197010E94083AAE
:102910009B01AC018091002D9091012DA091022D81
:10292000B091032D820F931FA41FB51F8093002D1C
:102930009093012DA093022DB093032D8091042D2F
:102940009091052DF3EC81359F0728F01092042D0E
:102950001092052D0AC02CE98134920730F080E4F2
:102960009CE98093042D9093052D8091002D9091EA
:10297000012DA091022DB091032DC297A109B1099B
:102980008F3C36E8930733E9A30733E0B30760F0E1
:1029900082E390E0A0E0B0E08093002D9093012DC1
:1029A000A093022DB093032D8091002D9091012DC5
:1029B000A091022DB091032D813840EF94074AEF8A
:1029C000A40742E0B40760F080E890EFAAEFB2E01D
:1029D0008093002D9093012DA093022DB093032D91
:1029E0008B859C858930910508F0B5C0E090002D5D
:1029F000F090012D0091022D1091032D60E870EFF1
:102A00008AEF92E0A80197010E945A3A220F331FE1
:102A1000441F551F20930B2D30930C2D40930D2DEB
:102A200050930E2D203092E0390790E0490790E056
:102A3000590760F080E092E0A0E0B0E080930B2DB9
:102A400090930C2DA0930D2DB0930E2D20900B2D57
:102A500030900C2D40900D2D50900E2D612C40E2A9
:102A6000742E4CEB842E4EEB942EC401B301A201C4
:102A700091010E945A3ACA01B901A80197010E9426
:102A80005A3A2093072D3093082D4093092D5093E7
:102A90000A2DC401B3010E945A3ACA01B901A20128
:102AA00091010E945A3A79018A012138A0EF3A0730
:102AB000AAEF4A07A2E05A0700F180E290E0A0E006
:102AC000B0E08093072D9093082DA093092DB0932B
:102AD0000A2D82E090E0A0E0B0E080930B2D90936F
:102AE0000C2DA0930D2DB0930E2D30E8E32E30EF7A
:102AF000F32E3AEF032F32E0132F8091072D9091A0
:102B0000082DA091092DB0910A2D8030E0E09E079C
:102B1000E1E0AE07E0E0BE0770F0B695A7959795A7
:102B200087958093072D9093082DA093092DB0933E
:102B30000A2D82E001C081E08093000980E066E018
:102B40000E94E50F81E69AE00E945010C801B7018B
:102B50004B850E94700A60910B2D70910C2D409155
:102B6000042D5091052D2091062D0091302D1091AE
:102B7000312D8091072D9091082D30E0E0902F2D80
:102B80000E94E310C1C2F981F13009F0C2C0809106
:102B90002F2D853009F06BC087E59AE00E94501018
:102BA000888599850E94C40883E59AE00E945010A8
:102BB0008E819F81805098400E943E0920910B2D6C
:102BC00030910C2D8B2D6885798540E050E001E037
:102BD000EE24E394B2E0CB2E0E94DC074C01888700
:102BE0009987B2FC09C0FC01EE0FFF1FE050F84DC1
:102BF000208131812E833F838B2D6E817F8140E048
:102C000050E020E030E108E2E0E1EE2E98E0C92E4D
:102C10000E94DC078E839F83F401EE0FFF1FE050BC
:102C2000F84D80839183B40180E090E0982F872F46
:102C3000762F66273A85E32FF0E040910B2D5091D7
:102C40000C2DE49F9001E59F300DF49F300D112471
:102C500040E050E00E945A3A2E5F2E878E819F817D
:102C6000B6E095958795BA95E1F78D874DC28DE4CD
:102C70009AE00E9450108091062D0E94940884E4EE
:102C80009AE00E9450108091302D9091312D0E9439
:102C90003E09BB2009F460C26091062D8B2D70E0C7
:102CA00041E050E023E630E003E0EE24E394A2E0CC
:102CB000CA2E0E94DC078093062D6091302D709102
:102CC000312D8B2D40E358EF20ED37E004E1F0E1AA
:102CD000EF2EE8E0CE2E0E94DC078C018093302D91
:102CE0009093312D60910B2D70910C2D4091042DFE
:102CF0005091052D2091062D8091072D9091082D42
:102D000030E0E0902F2D0E94E3101E8640E84D87B2
:102D1000FBC18981823009F090C183E0AD81A89F19
:102D2000C00111248A529B4F0E9450108DE39AE0FB
:102D30000E94501090910F2D84E6989FC00111249D
:102D4000880F892F881F990B91950E94940887E31B
:102D50009AE00E9450108091042D9091052D60E022
:102D60000E94FE0946C10E94F607B82EBD81BB2312
:102D700009F089C08091072D9091082DA091092D0F
:102D8000B0910A2D9C0140910F2D50E0569547952A
:102D900056954795405E5F4F60E070E048175907D1
:102DA0006A077B0708F466C0C0900B2DD0900C2DED
:102DB000E0900D2DF0900E2DE4E0CE16D104E1044C
:102DC000F10408F457C0880F991FF694E794D7943C
:102DD000C7944091042D5091052D2091062D00910E
:102DE000302D1091312DB60130E0E0902F2D0E9452
:102DF000E3102091072D3091082D220F331F3AC088
:102E00000E94CC2B6C0120910F2D30E040E050E06F
:102E1000C801B7010E94083A9601442737FD409542
:102E2000542F0E94083AF2E195958795779567951A
:102E3000FA95D1F76E0D7F1D801F911F6030F0E075
:102E40007F07F1E08F07F0E09F0734F460327105EF
:102E50008105910534F009C06FEF7FEF80E090E0CD
:102E600004C060E270E080E090E060932609709317
:102E7000270903C0790100E010E00E94F6078823CB
:102E800009F4BECFB6C02D81213009F05DC056C017
:102E9000E090042DF090052D00E010E00E94CC2B76
:102EA000DC01BD01882777FD8095982FA801970147
:102EB0000E94083AE3E09595879577956795EA959E
:102EC000D1F720910F2D30E040E050E00E94083A09
:102ED0009B01AC016FE055954795379527956A950D
:102EE000D1F72E0D3F1D401F511F57FF03C020E09B
:102EF00030E0A9018091072D9091082D60910B2D54
:102F000070910C2D69017A012134BCE93B07B0E0D6
:102F10004B07B0E05B0734F020E4C22E2CE9D22E40
:102F2000E12CF12C2091062D0091302D1091312DA6
:102F3000A60130E0E0902F2D0E94E3100E94F607DA
:102F4000882309F4A5CF55C0ED81E23009F051C0C6
:102F500060910F2D70E080E090E02091072D30917E
:102F6000082D4091092D50910A2D0E94083A7B01AD
:102F70008C013AC0992717FD9A95812F702F6F2DDC
:102F800060957095809590956E0D7F1D801F911FA7
:102F90002091072D3091082D4091092D50910A2D37
:102FA000621773078407950738F460910F2D70E05E
:102FB00080E090E00E94083A7B018C016030F0E0F4
:102FC0007F07F1E08F07F0E09F0734F0BFEFEB2EB3
:102FD000BFEFFB2E012D112DE0922609F09227095B
:102FE0008FEF9FE00197F1F70E94F607882309F41D
:102FF000C1CFBB2009F4B7CE60910F2D8B2D70E0AF
:1030000041E050E02FEF30E003E0A0E1EA2EF8E0ED
:10301000CF2E0E94DC0780930F2D8B2D6D8170E0E9
:1030200040E050E022E030E001E0EE24E394E2E012
:10303000CE2E0E94DC078D8367C02981233009F0E2
:1030400063C080E39AE00E94501090912F2D8BE096
:10305000989FC001112481529B4F0E9450108CE216
:103060009AE00E9450108A850E9494080B2DB3FEAE
:1030700012C080912F2D982F915090932F2D88233F
:1030800019F486E080932F2D80912F2D853011F437
:103090000E9481071A8204FF0DC080912F2D982F66
:1030A0009F5F90932F2D863020F010922F2D0E943D
:1030B00081071A8202FF19C060910B2D70910C2DAF
:1030C0004091042D5091052D2091062D0091302D19
:1030D0001091312D8091072D9091082D30E0E090D6
:1030E0002F2D0E94E31031E03A838B2D6A8570E02A
:1030F00041E050E024E030E001E0EE24E39492E08F
:10310000C92E0E94DC078A874B2D403249F1C090BE
:103110000B2DD0900C2DE0900D2DF0900E2DAA854A
:103120006A2F70E080E090E0A70196010E94083AC3
:103130004B015C0116012701089421083108410860
:10314000510800E002CAB1E0B98361CAE2E0E98354
:103150005ECAF3E0F9835BCA1E8620E82D87D7CFCD
:103160002E96CDBFDEBFCF91DF911F910F91FF90C3
:10317000EF90DF90CF90BF90AF909F908F907F9017
:103180006F905F904F903F902F90089520E030E037
:1031900070E00BC0A901440F551F9C0121703070D5
:1031A000242B352B969587957F5F761798F3C90169
:1031B0000895611571058105910581F020E005C034
:1031C00096958795779567952C5F68307105810591
:1031D0009105B0F7862F8370820F089580E00895DF
:1031E000009759F020E003C0969587952C5F8830B2
:1031F0009105D0F78370820F089580E008952F9293
:103200003F924F925F926F927F928F929F92AF9276
:10321000BF92CF92DF92EF92FF920F931F93DF93B3
:10322000CF93CDB7DEB7AC97CDBFDEBF862EC72E0E
:103230009C0120503C4F2D833E838F8398877C01D7
:1032400000E010E0EDEB4E2EE9EE5E2EE7E06E2E94
:10325000712C5C01D5018D919C919C01442737FD17
:103260004095542F29833A834B835C83F801EE7F8A
:10327000E45DF94F859194919C01220F331FC901A0
:1032800063E0880F991F6A95E1F7821B930BAA27C9
:1032900097FDA095BA2FA3019201281B390B4A0B69
:1032A0005B0BCA01B90129813A814B815C810E9483
:1032B000083AD5018D939D935D010F5F1F4FB4E0D8
:1032C00000301B0739F6C70120E030E050E8A52E9A
:1032D00057E0B52EAE0CBF1C870143C0E280F380DF
:1032E000DB01ED92FD92BD01E080F180D201ED9213
:1032F000FD922D014150504034964115510571F712
:10330000DC01A050BF4F80589F4FFC01A90106C0AF
:103310006D917D91619371934F5F5F4F63E0403892
:103320005607B0F3F50140E450E0D3016D917D9173
:103330003D016193719341505040B9F7205C3F4F7C
:10334000B2E020303B0769F4E9E0F0E0ED87FE876A
:1033500021E030E02B8B3C8B812C41E0942E5801F6
:103360001FC1A82DBC2D3D012C01B301FC0140E47F
:1033700050E0B4CFF601EE0FFF1FE45DFA4F8591E8
:103380009491880F892F881F990B9C01442737FD42
:103390004095542F2B8F3C8F4D8F5E8FF601EE0F93
:1033A000FF1FE45DF94F85919491880F892F881F45
:1033B000990B9C01442737FD4095542F2F8F38A33C
:1033C00049A35AA3C60168E00E94C618019668E0A6
:1033D0000E94C6186C01A80140505C4F4D8B5E8B5B
:1033E000C10180509C4F898F9A8F2F8A388E0F870A
:1033F000188B19861A860FA318A7C9A6DAA69FC02C
:10340000AF85B8896D907C90882477FC8094982C47
:10341000ED89FE89A080B180CC24B7FCC094DC2C5F
:10342000AF89B88D0D90BC91A02DABA7BCA76F8DB7
:1034300078A189A19AA1A40193010E94083AE72EDC
:10344000F82E092F112707FD1A956B8D7C8D8D8D18
:103450009E8DA60195010E94083A672F782F892F2B
:10346000992787FD9A95E60EF71E081F191FEBA5F1
:10347000FCA5CF01AA2797FDA095BA2FE80EF91E4B
:103480000A1F1B1F15950795F794E794CF018E1916
:103490009F09AF85B8898D939D93AF87B88BEF89CE
:1034A000F88DE192F192EF8BF88FA98DBA8D0D9086
:1034B000BC91A02DABA7BCA76F8D78A189A19AA1C3
:1034C0000E94083AE72EF82E092F112707FD1A95BA
:1034D000EBA5FCA5CF01AA2797FDA095BA2FE80E72
:1034E000F91E0A1F1B1F6B8D7C8D8D8D9E8DA40177
:1034F00093010E94083A672F782F892F992787FD1B
:103500009A95E61AF70A080B190B15950795F79483
:10351000E7948BA59CA58E199F09AD89BE898D93D3
:103520009D93AD8BBE8BE98DFA8DE192F192E98F7F
:10353000FA8F29853A852F5F3F4F29873A8749853A
:103540005A854415550508F45BCF0FA118A5C9A4E9
:10355000DAA489819A81019689839A83ABA1BCA15F
:103560000A0F1B1F2A0E3B1EE981FA81AB88BC881B
:10357000EA15FB0508F4FECE4201ADA0BEA02D85E4
:103580003E85215030402D873E8721153105E9F0D9
:103590004B895C89440F551F4B8B5C8B96948794A9
:1035A000C401880F991F880F991F8BA39CA38401C6
:1035B000000F111F0A0D1B1D1501CC24DD241982DB
:1035C0001A822401ADA2BEA2CFCF1501ED80FE80EC
:1035D000650100E010E057017101C80169E00E9437
:1035E000C61880179107F0F0880F991FF701E80FB0
:1035F000F91F40815181D6012D913C911197208373
:1036000031834D935C93ED81FE81E80FF91F80813A
:103610009181D5012D913C911197208331838D9318
:103620009C9311970F5F1F4FE2E0F0E0CE0EDF1E7C
:10363000AE0EBF1EF2E000301F0779F61701D7016A
:103640008D919C911197ED81FE8120813181820FB6
:10365000931F8D939C931197108211822D913C9111
:10366000442737FD4095542FCA01B9010E94083AFA
:1036700026E095958795779567952A95D1F70E94CD
:10368000D918D7018C9311961C92870102501C4FB8
:10369000F701EE5FFB4FED83FE838EEFA82E87E0F0
:1036A000B82E2A0C3B1C21E030E029833A830D8B95
:1036B0001E8B8101AF81B88512962D913C91139795
:1036C000ED89FE8940815181C901841B950B5C0104
:1036D000CC24B7FCC094DC2CA986BA86CB86DC86C9
:1036E000AD81BE81ED90FC90F8010190F081E02D5C
:1036F000ED87FE87CF018E0D9F1D5C01CC24B7FCAA
:10370000C094DC2CAF86B88AC98ADA8A89819A810A
:1037100096958795FC01EE0FFF1FE45DFA4FA5908B
:10372000B490AA0CAB2CAA1CBB08CC24B7FCC09448
:10373000DC2CFC01EE0FFF1FE45DF94F85919491A5
:10374000880F892F881F990B2C01662457FC6094E1
:10375000762CCA01820F931F8B8B9C8BC301B20105
:103760002F85388949895A890E94083A672F782F0E
:10377000892F992787FD9A951B01C601B5012985D7
:103780003A854B855C850E94083A272F382F492FB0
:10379000552747FD5A9549018B899C89820D931DB8
:1037A000821B930BAF81B88512968D939C931397D0
:1037B000ED85FE85EE1AFF0AC601B5012F85388911
:1037C00049895A890E94083A672F782F892F9927AB
:1037D00087FD9A956B01C301B20129853A854B8516
:1037E0005C850E94083A672F782F892F992787FDDB
:1037F0009A95C7018C199D09861B970BAD81BE81D7
:103800008D939C93EB89FC898E0E9F1E82189308E2
:10381000AD89BE898D929C92F094E194F108F39465
:10382000EC18FD08E61AF70AF801E082F182AD8192
:10383000BE818D909D90AD83BE83AA2497FCA094F9
:10384000BA2CEF81F88522813381442737FD4095DA
:10385000542FCA01B9010E94083A6B017C01C501CD
:10386000B401A50194010E94083AC60ED71EE81EB5
:10387000F91E9927F7FC9A958F2D7E2D6D2D0E94AC
:10388000D918AF81B88512968C93129713961C9213
:10389000F80180809180AA2497FCA094BA2CAD896D
:1038A000BE892D913C91442737FD4095542FCA0184
:1038B000B9010E94083A6B017C01C501B401A50160
:1038C00094010E94083AC60ED71EE81EF91E9927D9
:1038D000F7FC9A958F2D7E2D6D2D0E94D918ED89BC
:1038E000FE898083118229813A812F5F3F4F29838E
:1038F0003A834F8158854E5F5F4F4F835887329789
:10390000ED8BFE8B0250104051E02130350709F05D
:10391000D1CEAC96CDBFDEBFCF91DF911F910F917D
:10392000FF90EF90DF90CF90BF90AF909F908F90DF
:103930007F906F905F904F903F902F9008952F92BF
:103940003F924F925F926F927F928F929F92AF922F
:10395000BF92CF92DF92EF92FF920F931F93DF936C
:10396000CF93CDB7DEB7AC97CDBFDEBF9C01205063
:103970003E4F29833A838D839E837C0100E010E0D3
:103980007DEBA72E79EEB72E77E0C72ED12C2C0138
:10399000D2016D907C90882477FC8094982CF8015B
:1039A000EE7FE45DF94F859194919C01220F331FC6
:1039B000C90153E0880F991F5A95E1F7821B930BB9
:1039C000AA2797FDA095BA2FA6019501281B390BB0
:1039D0004A0B5B0BCA01B901A40193010E94083A8A
:1039E000D2018D939D932D010F5F1F4FB1E00030E9
:1039F0001B0771F61701E981FA81EFA3F8A79F0170
:103A0000F70180E090E0B70140815181DB014D93E7
:103A10005D93BD0142815381D9014D935D939D0119
:103A2000019634968038910579F7E1E0F0E0ED8B6E
:103A3000FE8B1B8A1C8A40E4842E912C610115C1E7
:103A4000C5019695879596958795FC01EE0FFF1F0A
:103A5000E45DFA4F25913491220F232F221F330B5F
:103A60006901EE24D7FCE094FE2CC98EDA8EEB8E31
:103A7000FC8EFC01EE0FFF1FE45DF94F85919491E0
:103A8000880F892F881F990B9C01442737FD40958B
:103A9000542F2D8F3E8F4F8F58A3C50166E00E9493
:103AA000C618019666E00E94C618212CA2E03A2EA4
:103AB000260C371C4B815C8140505E4F498B5A8BE2
:103AC0006B817C816D877E876F8A788E1B861C86D2
:103AD0002BA63CA61C019AC0AF89B88D8D919C91F4
:103AE0005C01CC24B7FCC094DC2CA9A2BAA2CBA266
:103AF000DCA2ABA5BCA5AD90BC90CC24B7FCC09417
:103B0000DC2CED85FE85408051806D8D7E8D8F8D06
:103B100098A129A13AA14BA15CA10E94083AE72EE5
:103B2000F82E092F112707FD1A95698D7A8D8B8D37
:103B30009C8DA60195010E94083A672F782F892F46
:103B4000992787FD9A95E60EF71E081F191FC201D7
:103B5000AA2797FDA095BA2FE80EF91E0A1F1B1F72
:103B600015950795F794E7944E185F08AF89B88DBF
:103B70004D925D92AF8BB88FED85FE85E192F1920B
:103B8000ED87FE87A989BA894D905C906D8D7E8DF9
:103B90008F8D98A10E94083AE72EF82E092F112741
:103BA00007FD1A95C201AA2797FDA095BA2FE80E26
:103BB000F91E0A1F1B1F698D7A8D8B8D9C8D29A183
:103BC0003AA14BA15CA10E94083A672F782F892F58
:103BD000992787FD9A95E61AF70A080B190B159590
:103BE0000795F794E7944E185F08EBA5FCA5419262
:103BF0005192EBA7FCA7A989BA89ED92FD92A98BF6
:103C0000BA8BEB85FC853196EB87FC87AB84BC8453
:103C1000A814B90408F460CF51012F8138852F5FB3
:103C20003F4F2F8338874DA15EA1640E751E6B81B7
:103C30007C81640F751F6B837C838F819885AD8930
:103C4000BE898A179B0708F4FBCEC9A4DAA4EB89C6
:103C5000FC893196EB8BFC8BE730F105D9F0AA0F8C
:103C6000BB1FAD8BBE8B969487945401AA0CBB1CD2
:103C7000AA0CBB1CADA2BEA23401660C771C6C0C56
:103C80007D1CCB82DC82AA24BB241F821886C9A695
:103C9000DAA6D3CF1601760100E010E0CFA0D8A4B9
:103CA0005101C80167E00E94C61880179107F0F023
:103CB000880F991FF701E80FF91F20813181D50185
:103CC0004D915C911197408351832D933C93E981F1
:103CD000FA81E80FF91F80819181D6012D913C91E5
:103CE0001197208331838D939C9311970F5F1F4F02
:103CF000E2E0F0E0AE0EBF1ECE0EDF1E0038110572
:103D000081F61701D7018D919C911197E981FA8174
:103D100020813181820F931F8D939C931197108284
:103D200011822D913C91442737FD4095542FCA01B3
:103D3000B9010E94083A26E0959587957795679591
:103D40002A95D1F70E94D918D7018C9311961C920D
:103D5000870102501F4FF701EE5FFD4FE983FA83A1
:103D60008EEFA82E82E0B82E2A0C3B1C21E030E01A
:103D70002B833C830B8B1C8B8101AD81BE81129602
:103D80002D913C911397EB89FC8940815181C901A8
:103D9000841B950B5C01CC24B7FCC094DC2CAF8257
:103DA000B886C986DA86A981BA81ED90FC90F801BF
:103DB0000190F081E02DEB87FC87CF018E0D9F1DD8
:103DC0005C01CC24B7FCC094DC2CAD86BE86CF86CB
:103DD000D88A8B819C81B3E096958795BA95E1F757
:103DE000FC01EE0FFF1FE45DFA4FA590B490AA0C02
:103DF000AB2CAA1CBB08CC24B7FCC094DC2CFC0167
:103E0000EE0FFF1FE45DF94F85919491880F892F84
:103E1000881F990B2C01662457FC6094762CBA01FC
:103E2000620F731F698B7A8BC301B2012D853E85AA
:103E30004F8558890E94083A672F782F892F992734
:103E400087FD9A951B01C601B5012F8138854985EB
:103E50005A850E94083A272F382F492F552747FDAA
:103E60005A95490189899A89820D931D821B930B6A
:103E7000AD81BE8112968D939C931397EB85FC8543
:103E8000EE1AFF0AC601B5012D853E854F8558897A
:103E90000E94083A672F782F892F992787FD9A95D6
:103EA0006B01C301B2012F81388549855A850E9473
:103EB000083A672F782F892F992787FD9A95C70190
:103EC0008C199D09861B970BA981BA818D939C93B0
:103ED000E989FA898E0E9F1E82189308AB89BC89E6
:103EE0008D929C92F094E194F108F394EC18FD0803
:103EF000E61AF70AF801E082F182A981BA818D9071
:103F00009D90A983BA83AA2497FCA094BA2CED8132
:103F1000FE8122813381442737FD4095542FCA0109
:103F2000B9010E94083A6B017C01C501B401A501E9
:103F300094010E94083AC60ED71EE81EF91E992762
:103F4000F7FC9A958F2D7E2D6D2D0E94D918AD818D
:103F5000BE8112968C93129713961C92F801808062
:103F60009180AA2497FCA094BA2CAB89BC892D918E
:103F70003C91442737FD4095542FCA01B9010E9456
:103F8000083A6B017C01C501B401A50194010E94AE
:103F9000083AC60ED71EE81EF91E9927F7FC9A9517
:103FA0008F2D7E2D6D2D0E94D918EB89FC89808381
:103FB00011822B813C812F5F3F4F2B833C834D81AE
:103FC0005E814E5F5F4F4D835E833297EB8BFC8B40
:103FD000025010402134310509F0CFCEAC96CDBF50
:103FE000DEBFCF91DF911F910F91FF90EF90DF9097
:103FF000CF90BF90AF909F908F907F906F905F9089
:104000004F903F902F9008952F923F924F925F9242
:104010006F927F928F929F92AF92BF92CF92DF92D8
:10402000EF92FF920F931F93CF93DF9380E098E07E
:10403000E0E0F1E084A395A3DD24FF2410E0612CEF
:1040400041E0742E8824839439E6932E26E4422E90
:10405000512C90E4292E99E0392EA12C82E0B82E23
:10406000112321F08091132D873098F48091200145
:104070008068F30180A3789480924800889580E05E
:1040800090E260E04091372D20E00E94A42CDD24D6
:10409000D3948091200187FD30C0DD2031F080E095
:1040A00090E260E07CE20E94FF182091342D309174
:1040B000352D8091362D792D781B60E0C901860F52
:1040C000911DFC01EE0FFF1FE050F04E4081518129
:1040D0004734510514F040825182E62FF0E0E05061
:1040E000F44DDC01AA0FBB1FA050B04E8C91870F7E
:1040F00080836F5F603811F7DD240E94F607182F68
:104100004091342D4195E090112DE39480E09CE2A4
:1041100060E070E02091362D0FEFA1E8CA2E0E94DA
:10412000E10B80E067E00E94E50F103461F010368B
:1041300009F4D5C0103A09F47FC0FF2009F04CC043
:10414000112309F441C06091132D812F70E042E0EA
:1041500050E02EE030E001E0F2E0EF2ECC24C394FA
:104160000E94DC078093132D6091372D812F70E022
:1041700040E050E026E030E0E8E0EE2E90E1C92E8D
:104180000E94DC078093372D9091132DE92FF0E0EA
:10419000EE0FFF1FE65EF44F25913491F10126A347
:1041A00037A3983010F097E008C0953028F0B4E0BD
:1041B000EB2EF501E48203C092E0F5019483880FB1
:1041C000880F8360F50180A38091132D6091372DB6
:1041D0000E94F00DFF247FC0FF2DF13069F5609142
:1041E000342D7091352D812F40E050E020E831E0F2
:1041F00005E0A2E0EA2ECC24C3940E94DC07809361
:10420000342D9093352D6091362D812F70E040E054
:1042100050E028E230E004E0F8E0EF2EE0E1CE2EBE
:104220000E94DC07682F8093362D8091342D909169
:10423000352D0E94150E4FC06091112D7091122DD9
:10424000812F40E050E020E830E005E0EE24E394E8
:1042500092E0C92E0E94DC07E82EE7017E01F92ECC
:10426000E701E092112DF092122DE091132DF0E074
:10427000EE0FFF1FE65EF44FE590F4906091342D51
:104280007091352D6C0F7D1F80E090E024E83EE1B9
:1042900040E050E00E94083A970140E050E00E9460
:1042A0005A3A8091362D90E080589040C050D44DBD
:1042B0006881860F911DFC01EE0FFF1FE80FF91FAB
:1042C000F595E795F595E795CA01B9014E2F0E943E
:1042D000B70EE2E0FE2E103209F0C2CE03C0FF247A
:1042E000F3947DCFDF91CF911F910F91FF90EF90CD
:1042F000DF90CF90BF90AF909F908F907F906F9006
:104300005F904F903F902F9008957F928F929F9251
:10431000AF92BF92CF92DF92EF92FF920F931F93D3
:10432000CF93DF93982E792E862EC0E0D0E081E0E7
:10433000A82EB12C80E06C2F0E94E50F8C2F8F5C93
:104340000E94131086E00E94DF0E65010C2E02C051
:10435000CC0CDD1C0A94E2F7E92CF72C00E010E00D
:104360000F5F1F4FF70181917F0190E08C219D210C
:10437000009711F081E001C088E0F701208130E072
:104380002C213D212115310521F083FF04C08760D8
:1043900002C080FD8E6098012F70307021153105AC
:1043A00009F48066801609F482690E94DF0E0D37D9
:1043B0001105B1F62196C830D10509F0BBCFDF91C8
:1043C000CF911F910F91FF90EF90DF90CF90BF9012
:1043D000AF909F908F907F90089518952F923F9265
:1043E0004F925F926F927F928F929F92AF92BF9205
:1043F000CF92DF92EF92FF920F931F93DF93CF93B1
:1044000000D0CDB7DEB7E0E0F0E280E090E081934D
:10441000019627E08F3F9207D1F7DD2480E090E0FE
:10442000AA2444244394BB245524FF2488248A943A
:10443000982C20E6622E26E0722E1C010E94F607C0
:10444000182F842D90E0D101A050B04E40E05CE2E6
:104450009C0129833A83FA012C912193A80FB91F5B
:104460002CE2EE37F207C1F7C4010197F1F780E0C3
:104470009CE26A2D0E948521112319F45520F1F246
:1044800002C055245A945A9480E067E00E94E50FD8
:10449000103409F0ADC08DEF9AE00E9450100E94D8
:1044A000F6078823E1F7C4010197F1F70D2D84E2A7
:1044B00067E00E94E50F0E94F607182FE5E00E9FC7
:1044C000C00111248958954F0E94501087EF9AE03F
:1044D0000E945010113021F4002339F0015005C022
:1044E000123019F40E3008F40F5FF4013197F1F730
:1044F0001034E9F6D02E8EEE9AE00E9450100E9401
:10450000F6078823E1F7FFEFF0934606C401019711
:10451000F1F7ED2DF0E0EE0FFF1FE354F54F25917D
:1045200034919091382D9093B00082E1F301808B0B
:104530005091392D5093B00081E1808B80916906B4
:104540008C7F82608187592B52878091A200826084
:104550008093A20090913A2D40913B2D552371F00C
:1045600081E08093480088958091280681FF13C0E0
:104570008091680689238417B1F70DC081E080938C
:10458000480004C08091280681FF05C0809168061C
:1045900089238417B9F72115310581F480E098E06B
:1045A0000F93EF93FF93E0E0F0E200916806019330
:1045B0000197D9F7FF91EF910F9122C0A0E0B8E0E9
:1045C0000F938F939F93EF93FF93E0E0F0E20091BE
:1045D00068060193000000000000C9010197F1F78F
:1045E0001197A9F7FF91EF919F918F910F9108C0BB
:1045F000103641F0103A09F4F0C0103809F4F0C058
:10460000BB20A9F58BEE9AE00E94501080E098E064
:1046100069817A810E94473A9B012D573040812F52
:10462000B10140E050E004E1B2E0EB2ECC24C394B1
:104630000E94DC07482F592F1A01C1010E94F70878
:1046400088EE9AE00E945010812F69817A8141E0C2
:1046500050E020E130E002E0A8E0EA2EF0E1CF2EC9
:104660000E94DC07482E0E949408BB24B2C09B2DF8
:10467000913011F583EE9AE00E945010812F6A2D3F
:1046800070E040E050E020E830E004E0EE24E39405
:10469000E2E0CE2E0E94DC07A82E90E00E94F708F0
:1046A0008FED9AE00E945010EA2DF0E0E050F44DBA
:1046B00080810E9494088DC0EB2DE23009F089C002
:1046C00089ED9AE00E945010EE2401E0CD2CD12E0D
:1046D00080913A2D802349F48091382D802359F41C
:1046E0008091392D802369F006C080913B2D802375
:1046F00051F012E00BC08091392D802331F013E08E
:1047000005C010E003C011E001C014E0812F90E06B
:10471000EF1469F48C5E924DFC0180810E9431108F
:10472000FD2DF83061F41F5F153041F008C08C5E3C
:10473000924DFC0180810E94131001C010E0402FB7
:10474000409580913A2D842380933A2D30913B2DD2
:10475000342330933B2D2091392D24232093392D60
:104760009091382D94239093382D113021F4802B83
:1047700080933A2D14C0123039F4802B80933A2D57
:10478000302B30933B2D0BC0133021F4202B209382
:10479000392D05C0143019F4902B9093382DE394E3
:1047A000FE2DF83011F0000F93CF1D2DDC2C1230B0
:1047B00029F4F3942F2D283038F440CE113049F4E9
:1047C000FF2021F0FA943ACEFF2438CE27E0F22ED3
:1047D00035CE103209F032CE06C0BB24B3944ACF96
:1047E00092E0B92E6DCF0F900F90CF91DF911F9176
:1047F0000F91FF90EF90DF90CF90BF90AF909F9080
:104800008F907F906F905F904F903F902F90089582
:104810001F920F920FB60F9211248F93EF93FF9375
:10482000E0E0F1E081A1806281A3FF91EF918F919F
:104830000F900FBE0F901F9018951F920F920FB6FA
:104840000F9211248F93EF93FF93E0E0F1E081A9A1
:10485000806281ABFF91EF918F910F900FBE0F900F
:104860001F9018952F923F924F925F926F927F9276
:104870008F929F92AF92BF92CF92DF92EF92FF9270
:104880000F931F93DF93CF93CDB7DEB7C654D040BD
:10489000CDBFDEBFE0913C2DF0E0EC5FF44FE49043
:1048A000E0913D2DF0E0EC5FF44F049119821A8203
:1048B0001B821C8281E0A0E0B6E011968C931197D8
:1048C00008A7EFA219A622248824FF24992499205E
:1048D00021F080911C2D8730D8F4FF2029F08091A1
:1048E000300180688093300180912001806880933E
:1048F00020017894AA24A394A0924800889580E08F
:1049000090E26F2D40913C2D20913D2D0E94A42CD2
:104910000E94F607982E20911D2D822F90E0837023
:1049200090708330910531F4392D303819F088209A
:1049300009F054C4E0913E2DFF27E7FDF09514E007
:10494000EE0FFF1F1A95E1F72695269523702B870A
:1049500020911E2D30911F2D37FD07C089010F5F5B
:104960001F4F203831054CF402C000E010E0A901CF
:1049700045585E4F4C8B5D8B04C06BEF71E06C8BC8
:104980007D8BFF2031F4AC89BD89A050BE4FAC8B2C
:10499000BD8B009799F082309105A9F460911C2D90
:1049A00088EC90E070E00E94473A6D507040822D94
:1049B00090E08617970754F4239405C088248394C5
:1049C0001E8A222406C088241E8A03C08824B1E0DF
:1049D000BE8B0D831E83A0901C2DAAA68827992725
:1049E000821B930B6C01D594C794D594C794CBA626
:1049F000DCA6A60140505E4F4BAB5CABBFA0AB2C1E
:104A0000BB24CC24DD24AC86BD86CE86DF864091D7
:104A1000202D5091212D5A01CC24B7FCC094DC2CC0
:104A2000AF82B886C986DA864C855D856E857F85BE
:104A3000A2E0440F551F661F771FAA95D1F74DAB13
:104A40005EAB6FAB78AFAC84BD84CE84DF8456E0C0
:104A5000AA0CBB1CCC1CDD1C5A95D1F7ADA6BEA67A
:104A6000CFA6D8AA6C01D594C794C9AADAAAA60180
:104A700040505E4F49AF5AAF8091222D9091232D27
:104A80005C01CC24B7FCC094DC2CABAEBCAECDAE8C
:104A9000DEAEC801821B930B880F991F9C0120502A
:104AA0003C4D2F8F38A3AC014050504E49A35AA320
:104AB000000F111F0250104EEE2478A5672F70E0F2
:104AC00080E090E023966CAF7DAF8EAF9FAF2397D1
:104AD000CF010A978BA39CA3DF011A96ADA3BEA3B7
:104AE0009F012B5F3F4F25962EAF3FAF2597AF011C
:104AF0004550504027964EAF5FAF2797392C9F2CDB
:104B000062C3882009F0B5C05B85552309F042C017
:104B1000D80116962D913C91179712968D919C91E4
:104B200013974D915C911197840F951F14964D9199
:104B30005C911597840F951F820F931F64E070E0BE
:104B40000E94473A2596EEADFFAD2597E617F70789
:104B50000CF091C0D80118968D919C911997820FF5
:104B6000931F1A962D913C911B97820F931F1C96B1
:104B70002D913C911D97820F931F64E070E00E947D
:104B8000473A2796EEADFFAD27976E177F070CF4D7
:104B900079C071C0FB85F230B1F4D80114968D91C3
:104BA0009C911597EDA1FEA1E817F9070CF063C0E1
:104BB00016968D919C911797ABA0BCA08A159B056A
:104BC0000CF460C058C02B852130E1F5D801169651
:104BD0002D913C91179712968D919C9113974D9121
:104BE0005C911197840F951F14964D915C911597C8
:104BF000840F951F820F931F64E070E00E94473A74
:104C0000EBA1FCA16E177F07B4F5D80118968D9122
:104C10009C911997820F931F1A962D913C911B9787
:104C2000820F931F1C962D913C911D97820F931F0D
:104C300064E070E00E94473AEDA1FEA1E617F70795
:104C40000CF119C0FB85F330B1F4D80114968D91A5
:104C50009C911597EBA1FCA18E179F0764F4169603
:104C60008D919C911797ADA0BEA0A816B90654F0DF
:104C700002C0882483942E2D2F3708F090C28820FC
:104C800071F004C0882483942224EE24FF24B22CE3
:104C9000AE2CC82C892C9F2CD32C18016CC23E89B9
:104CA0003323A1F77CC24AA5442309F052C19920BD
:104CB00019F48BA59CA502C08BA99CA96D817E814E
:104CC000860F971FFC01EE0FFF1FEE5FFF4D208147
:104CD0003181A901662757FD6095762F488B598B46
:104CE0006A8B7B8BFC01EE0FFF1FEC5FFF4D208179
:104CF0003181A901662757FD6095762F4F8B588F1C
:104D0000698F7A8FFC01EE0FFF1FEA5FFF4D408035
:104D10005180662457FC6094762CFC01EE0FFF1F37
:104D2000E85FFF4D808191819C01442737FD4095CC
:104D3000542F2B8F3C8F4D8F5E8F6F89788D898D8F
:104D40009A8D28E330E040E050E00E94083A7B0171
:104D50008C01688979898A899B892BEF3FEF4FEF16
:104D60005FEF0E94083AE60EF71E081F191FC301E5
:104D7000B2012EE030E040E050E00E94083AE60E3A
:104D8000F71E081F191F4B8D5C8D6D8D7E8DE41AEB
:104D9000F50A060B170BC801B7012C853D854E851A
:104DA0005F850E94083AFEE095958795779567950F
:104DB000FA95D1F72F81388549855A85620F731F7F
:104DC000841F951F6F3F71058105910509F01CF443
:104DD00097FD06C008C06FEF70E080E090E003C070
:104DE00060E070E0CB01EA2DF0E0E050F44D60832C
:104DF000A3942F89388D498D5A8D240D351D461D5C
:104E0000571DCA01B901E3E0660F771F881F991F7C
:104E1000EA95D1F7620F731F841F951F288939897E
:104E20004A895B89621B730B840B950B2B8D3C8D20
:104E30004D8D5E8D621B730B840B950B2DA93EA9C6
:104E40004FA958AD0E94083A3EE095958795779511
:104E500067953A95D1F72F81388549855A85620F34
:104E6000731F841F951F6F3F71058105910509F020
:104E70001CF497FD06C008C06FEF70E080E090E082
:104E800003C060E070E0CB01EA2DF0E0E050F44DAB
:104E90006083A3946F89788D898D9A8D2EE030E0A0
:104EA00040E050E00E94083A7B018C014889598912
:104EB0006A897B89E41AF50A060B170BC301B20154
:104EC00028E330E040E050E00E94083AE60EF71E8A
:104ED000081F191F6B8D7C8D8D8D9E8D2BEF3FEFE5
:104EE0004FEF5FEF0E94083AE60EF71E081F191FEA
:104EF000C801B7012C853D854E855F850E94083A23
:104F00002EE095958795779567952A95D1F72F810E
:104F1000388549855A85620F731F841F951F6F3F1F
:104F200071058105910509F01CF497FD06C008C0C4
:104F30006FEF70E080E090E003C060E070E0CB01D4
:104F4000EA2DF0E0E050F44D6083A394C301B20178
:104F5000AAC03AA5313009F0B4C0992019F429A9A2
:104F60003AA902C029AD3AAD4D815E81240F351FAB
:104F7000F901EE0FFF1FEA5FFF4D80819181AC01C7
:104F8000662757FD6095762F488B598B6A8B7B8BF4
:104F9000F901EE0FFF1FEC5FFF4D4080518066244A
:104FA00057FC6094762C440E551E661E771EF90140
:104FB000EE0FFF1FE85FFF4D60817181882777FD4D
:104FC0008095982FF901EE0FFF1FEE5FFF4DE080F7
:104FD000F1800027F7FC0095102F6E0D7F1D801FBC
:104FE000911FF901EE0FFF1FE65FFF4DE080F1809A
:104FF0000027F7FC0095102FF901EE0FFF1FE0507E
:10500000F04E20813181442737FD4095542FE20E28
:10501000F31E041F151F2AEF3FEF4FEF5FEF0E94B3
:10502000083AE60EF71E081F191FC301B20126E257
:1050300030E040E050E00E94083AE60EF71E081FFC
:10504000191FC801B7012C853D854E855F850E94DB
:10505000083A5EE095958795779567955A95D1F7CB
:105060002F81388549855A85620F731F841F951FCC
:105070006F3F71058105910509F01CF497FD06C08D
:1050800008C06FEF70E080E090E003C060E070E087
:10509000CB01EA2DF0E0E050F44D6083A3946889E1
:1050A00079898A899B892DA53EA54FA558A90E947B
:1050B000083A4EE095958795779567954A95D1F78B
:1050C00017C0A9A1BAA12D913C9111979920A9F4DB
:1050D000442737FD4095542F6C857D858E859F85AF
:1050E0000E94083A672F782F892F992787FD9A9574
:1050F0002F81388549855A851BC0AF8DB8A12D9168
:105100003C911197442737FD4095542F23966CAD61
:105110007DAD8EAD9FAD23970E94083A672F782F03
:10512000892F992787FD9A952BAD3CAD4DAD5EAD8E
:10513000620F731F841F951F6F3F710581059105D5
:1051400009F01CF497FD06C008C06FEF70E080E026
:1051500090E003C060E070E0CB012A2D30E09920A0
:1051600029F02058334DD9016C9304C02050344DA0
:10517000F90160839394292D30E0882019F082E0B2
:1051800090E002C081E090E0281739070CF48BCD45
:10519000982CEA2C8C2C81012B2C3D2CE3942D8116
:1051A0003E812F5F3F4F2D833E834F8D58A14E5F31
:1051B0005F4F4F8F58A369A17AA16E5F7F4F69A39C
:1051C0007AA30E5F1F4F8D819E81AC89BD898A179E
:1051D0009B0708F496CCF92C932C02C08824839466
:1051E00040911E2D4E5F2091202DFF2019F000913F
:1051F000222D01C00FEF80E09CE260E87CE2E980B4
:10520000CA800E94E10B80E067E00E94E50FB92DA3
:10521000B03419F410923F2D56C0E92DE03621F438
:10522000F1E0F0933F2D4FC0292D203821F432E0DA
:1052300030933F2D48C0492D403A21F483E08093BC
:105240003F2D41C0592D543459F5F7FC3CC0FF2087
:1052500059F061E46093030280E098E080932401B8
:105260009093250180E018C095E490930302A0E09C
:10527000B4E0A0932401B093250180911E2D90915C
:105280001F2DB1E08C339B0734F0EBE3F1E0E093AA
:105290001E2DF0931F2D83E090E8F92EF82A13C0FD
:1052A000F92DF43659F4FF2071F0F7FC0CC0AA2454
:1052B000A394FA2400E8B02EFB2805C0992019F425
:1052C0001FE7C12EFC2080913F2D882309F06AC082
:1052D00080911C2D2F2D30E0B1E0AB2EB12CA222FD
:1052E000B322F0FE03C060913D2D02C060913C2DC1
:1052F0000E94CC0D992009F4AAC160911C2D892D22
:1053000070E040E050E02EE030E001E0A2E0EA2E64
:10531000CC24C3940E94DC0780931C2DFF2029F02D
:10532000843018F484E080931C2D80911C2D0E9401
:10533000F52BA114B10491F060913D2D892D70E001
:1053400040E050E026E030E001E0F8E0EF2EE0E160
:10535000CE2E0E94DC0780933D2D11C060913C2D24
:10536000892D70E040E050E026E030E001E098E078
:10537000E92E10E1C12E0E94DC0780933C2D609144
:105380003D2DE62FF0E0EC5FF44FE49080913C2D52
:10539000E82FF0E0EC5FF44F04910E94182CE8A68F
:1053A0000FA355C1813009F05CC080911E2D9091F2
:1053B0001F2DCE972F2D30E0B1E0AB2EB12CA222C5
:1053C000B322F0FE03C06091222D02C06091202D17
:1053D00060580E94150E60911E2D70911F2DFF20A8
:1053E00019F02BE331E002C02BE333E0892D45ECCB
:1053F0005EEF05E0EE24E394A2E0CA2E0E94DC07F3
:1054000080931E2D90931F2DA114B104A9F06091DB
:10541000222D7091232D892D40E050E02FEF30E0B8
:1054200004E0F0E1EF2EE8E0CE2E0E94DC0780934E
:10543000222D9093232D0BC16091202D7091212D51
:10544000892D40E050E02FEF30E004E090E1E92EBC
:1054500018E0C12E0E94DC078093202D9093212D0F
:10546000F6C0823009F07AC000913C2DE02FF0E0C8
:10547000EC5FF44FE49060913E2D772767FD7095C7
:10548000872F972F28E833E140E050E00E94083A48
:105490002E2D30E040E050E00E947C3A04C055954B
:1054A0004795379527950A95D2F7203060E836075B
:1054B00060E0460760E056074CF4283273EA37078D
:1054C0007FEF47077FEF570734F009C02FEF3FE723
:1054D00040E050E004C020E030E84FEF5FEF809103
:1054E0001D2DB9010E94390E892D91FE07C09091A2
:1054F0001D2D903418F4905E90931D2D80FF07C0F1
:1055000090911D2D903218F0905290931D2D82FF96
:1055100011C090911D2D96FF02C028E003C095FF99
:1055200005C024E0292720931D2D04C09F5F9370A0
:1055300090931D2D84FF07C090913E2D92381CF052
:10554000915090933E2D83FF82C080913E2D8F37E6
:1055500009F47DC08F5F80933E2D79C0833009F0C0
:1055600076C089A5482E5524B1E0AB2EB12CAC0EE7
:10557000BD1EA40CB51CD5016C91892D70E040E0D6
:1055800050E020E830E004E0EE24E394A2E0CA2EEC
:105590000E94DC07F5018083892DB20140E050E0D4
:1055A00021E030E001E0F0E1EF2EE8E0CE2E0E94B5
:1055B000DC0789A700911C2DE02FF0E0EE0FFF1F04
:1055C000E65EF44F6591749180E090E02981332785
:1055D00027FD30954A81552747FD5095241B350BF3
:1055E000442737FD4095542F0E94083A053078F43F
:1055F0002AE030E040E050E00E94083A28E030E045
:1056000040E050E00E947C3A002379F016C00A3056
:1056100028F428E030E040E050E004C020E530E02D
:1056200040E050E00E947C3A0EC092E055954795CC
:10563000379527959A95D1F706C0013021F45595F5
:10564000479537952795C901602F0E94920EF0FE6D
:1056500003C084E19BE002C08EE09BE00E945010FA
:10566000882011F087E401C082E50E941310F92D13
:10567000F03209F02CC9CA5BDF4FCDBFDEBFCF913E
:10568000DF911F910F91FF90EF90DF90CF90BF902F
:10569000AF909F908F907F906F905F904F903F90D2
:1056A0002F900895AAECB1E092E09C93E82FF0E0EF
:1056B00084911C920895CF93DF9380E20E94522B35
:1056C000C0E0D2E08C8781E20E94522B8D8788ED6A
:1056D00080938001E0E4F9E043E0408380E490E0DF
:1056E00086A397A381E0888330E139838981898308
:1056F00022E02A8381E48B832C8348A38BE289A355
:1057000048A783E389A718AA39ABA0EAB0E01296AC
:105710008C911297826012968C931297E0E0F1E0E0
:1057200080E8808355E050A321A312968C911297B4
:10573000826012968C93129745E942A333A380E0CE
:1057400098E084A395A330A721A712A680E090E259
:1057500084A795A716A650AB21AB42AB81E183ABE2
:1057600080E094E084AB95AB82E180AF21AF12AED4
:1057700080E094E284AF90933D0110923E01DF916E
:10578000CF910895E0E0F2E010821092000181E0F4
:105790008093400912820895E0E0F2E08081846005
:1057A000808320893189C9010895E0E0F2E0808199
:1057B0008860808322893389C9010895809100021D
:1057C000806180930002809133028823E1F38FE0AF
:1057D0008A95F1F72091140230E040911502942F40
:1057E00080E0282B392BC9010895E82FF0E0EE0F57
:1057F000FF1FE65EF44F2591349121503040E0E4E4
:10580000F9E026A337A3893010F087E00DC0883077
:1058100011F486E009C0873011F484E005C08530BA
:1058200010F083E001C082E0E0E0F2E084830895BC
:10583000660F660F6360E0E0F2E060A7880F880FF4
:10584000836080A308957F928F929F92AF92BF92C0
:10585000CF92DF92EF92FF920F931F93CF93DF933C
:1058600082E0E0E0F2E08483E2E0CE2EE3E0DE2EB0
:10587000BB2477E0A72E812C62E0962E59E1752E8D
:105880008B2D6A2D0E94273A990F990F9360F4018E
:1058900090A390A7C0E0D0E0EE24FF24870114C0BD
:1058A000872D8A95F1F7FB2DF73018F40E94CC2B49
:1058B00002C00E94D52BAA2797FDA095BA2FE80E0B
:1058C000F91E0A1F1B1F2196D7FFEACF41E115954C
:1058D0000795F794E7944A95D1F781E8E8168FEF9A
:1058E000F8068FEF08078FEF180744F431E8E32E2E
:1058F0003FEFF32E3FEF032F3FEF132FE0E8EE16BD
:10590000F104010511052CF02FE7E22EF12C012DF9
:10591000112D6E2D6195C6010E94A73AB39408948B
:10592000C11CD11CFB2DFE3009F0AACFDF91CF9115
:105930001F910F91FF90EF90DF90CF90BF90AF90AD
:105940009F908F907F900895EF92FF920F931F93F7
:10595000DF93CF9300D0CDB7DEB78C01842F90E0DA
:105960008E5F9C4F29836A830E94973AE82EFF241A
:10597000EE0CFF1CEE0CFF1C2981822F90E0875F4C
:105980009C4F0E94973A482F50E0440F551F440FF8
:10599000551FF801E050FC4F20E030E06A81D8014B
:1059A0008D919C9111978E0D9F1D8D939D938D01CF
:1059B00080819181662319F0840F951F02C08E0D9E
:1059C0009F1D808391832F5F3F4F3296B2E020303E
:1059D0003B0729F70F900F90CF91DF911F910F9107
:1059E000FF90EF900895AF92BF92CF92DF92EF9227
:1059F000FF920F931F939B01AC0180E090E0A0E029
:105A0000B0E407C0E2E0B695A79597958795EA952B
:105A1000D1F7281739074A075B07A0F3AA24BB244C
:105A2000650120C07C018D01EA0CFB1C0C1D1D1DB5
:105A30002E153F054007510750F02E193F09400B26
:105A4000510B57016801A80EB91ECA1EDB1ED69461
:105A5000C794B794A79462E0B695A7959795879554
:105A60006A95D1F70097A105B105E1F6B501C60128
:105A70001F910F91FF90EF90DF90CF90BF90AF906C
:105A800008952F923F924F925F926F927F928F92E2
:105A90009F92AF92BF92CF92DF92EF92FF920F93BD
:105AA0001F93DF93CF93CDB7DEB76197CDBFDEBF36
:105AB0000E94F607898B80912001806880932001E5
:105AC000789421E0209348008895C090402D8C2D3B
:105AD00090E08E5F9C4F0E94973A90E0880F991F4C
